{
  "_format": "hh-sol-artifact-1",
  "contractName": "OracleVerifier",
  "sourceName": "contracts/verifiers/OracleVerifier.sol",
  "abi": [
    {
      "inputs": [
        {
          "internalType": "address",
          "name": "initialOwner",
          "type": "address"
        },
        {
          "internalType": "address[]",
          "name": "guardians",
          "type": "address[]"
        },
        {
          "internalType": "uint256",
          "name": "_threshold",
          "type": "uint256"
        }
      ],
      "stateMutability": "nonpayable",
      "type": "constructor"
    },
    {
      "inputs": [],
      "name": "ECDSAInvalidSignature",
      "type": "error"
    },
    {
      "inputs": [
        {
          "internalType": "uint256",
          "name": "length",
          "type": "uint256"
        }
      ],
      "name": "ECDSAInvalidSignatureLength",
      "type": "error"
    },
    {
      "inputs": [
        {
          "internalType": "bytes32",
          "name": "s",
          "type": "bytes32"
        }
      ],
      "name": "ECDSAInvalidSignatureS",
      "type": "error"
    },
    {
      "inputs": [],
      "name": "EnforcedPause",
      "type": "error"
    },
    {
      "inputs": [],
      "name": "ExpectedPause",
      "type": "error"
    },
    {
      "inputs": [
        {
          "internalType": "address",
          "name": "owner",
          "type": "address"
        }
      ],
      "name": "OwnableInvalidOwner",
      "type": "error"
    },
    {
      "inputs": [
        {
          "internalType": "address",
          "name": "account",
          "type": "address"
        }
      ],
      "name": "OwnableUnauthorizedAccount",
      "type": "error"
    },
    {
      "anonymous": false,
      "inputs": [
        {
          "indexed": true,
          "internalType": "address",
          "name": "previousOwner",
          "type": "address"
        },
        {
          "indexed": true,
          "internalType": "address",
          "name": "newOwner",
          "type": "address"
        }
      ],
      "name": "OwnershipTransferred",
      "type": "event"
    },
    {
      "anonymous": false,
      "inputs": [
        {
          "indexed": true,
          "internalType": "bytes32",
          "name": "nftMint",
          "type": "bytes32"
        },
        {
          "indexed": true,
          "internalType": "address",
          "name": "owner",
          "type": "address"
        },
        {
          "indexed": false,
          "internalType": "uint256",
          "name": "expiry",
          "type": "uint256"
        }
      ],
      "name": "OwnershipVerified",
      "type": "event"
    },
    {
      "anonymous": false,
      "inputs": [
        {
          "indexed": false,
          "internalType": "address",
          "name": "account",
          "type": "address"
        }
      ],
      "name": "Paused",
      "type": "event"
    },
    {
      "anonymous": false,
      "inputs": [
        {
          "indexed": true,
          "internalType": "address",
          "name": "signer",
          "type": "address"
        },
        {
          "indexed": false,
          "internalType": "bool",
          "name": "approved",
          "type": "bool"
        }
      ],
      "name": "SignerUpdated",
      "type": "event"
    },
    {
      "anonymous": false,
      "inputs": [
        {
          "indexed": false,
          "internalType": "uint256",
          "name": "newThreshold",
          "type": "uint256"
        }
      ],
      "name": "ThresholdUpdated",
      "type": "event"
    },
    {
      "anonymous": false,
      "inputs": [
        {
          "indexed": false,
          "internalType": "address",
          "name": "account",
          "type": "address"
        }
      ],
      "name": "Unpaused",
      "type": "event"
    },
    {
      "inputs": [
        {
          "internalType": "address",
          "name": "",
          "type": "address"
        }
      ],
      "name": "approvedSigners",
      "outputs": [
        {
          "internalType": "bool",
          "name": "",
          "type": "bool"
        }
      ],
      "stateMutability": "view",
      "type": "function"
    },
    {
      "inputs": [],
      "name": "isActive",
      "outputs": [
        {
          "internalType": "bool",
          "name": "",
          "type": "bool"
        }
      ],
      "stateMutability": "view",
      "type": "function"
    },
    {
      "inputs": [
        {
          "internalType": "bytes32",
          "name": "nftMint",
          "type": "bytes32"
        }
      ],
      "name": "lastVerifiedAt",
      "outputs": [
        {
          "internalType": "uint256",
          "name": "",
          "type": "uint256"
        }
      ],
      "stateMutability": "view",
      "type": "function"
    },
    {
      "inputs": [
        {
          "internalType": "bytes32",
          "name": "nftMint",
          "type": "bytes32"
        }
      ],
      "name": "lastVerifiedOwner",
      "outputs": [
        {
          "internalType": "address",
          "name": "",
          "type": "address"
        }
      ],
      "stateMutability": "view",
      "type": "function"
    },
    {
      "inputs": [],
      "name": "maxProofAge",
      "outputs": [
        {
          "internalType": "uint256",
          "name": "",
          "type": "uint256"
        }
      ],
      "stateMutability": "view",
      "type": "function"
    },
    {
      "inputs": [],
      "name": "owner",
      "outputs": [
        {
          "internalType": "address",
          "name": "",
          "type": "address"
        }
      ],
      "stateMutability": "view",
      "type": "function"
    },
    {
      "inputs": [],
      "name": "pause",
      "outputs": [],
      "stateMutability": "nonpayable",
      "type": "function"
    },
    {
      "inputs": [],
      "name": "paused",
      "outputs": [
        {
          "internalType": "bool",
          "name": "",
          "type": "bool"
        }
      ],
      "stateMutability": "view",
      "type": "function"
    },
    {
      "inputs": [],
      "name": "renounceOwnership",
      "outputs": [],
      "stateMutability": "nonpayable",
      "type": "function"
    },
    {
      "inputs": [
        {
          "internalType": "uint256",
          "name": "newAge",
          "type": "uint256"
        }
      ],
      "name": "setMaxProofAge",
      "outputs": [],
      "stateMutability": "nonpayable",
      "type": "function"
    },
    {
      "inputs": [
        {
          "internalType": "address",
          "name": "signer",
          "type": "address"
        },
        {
          "internalType": "bool",
          "name": "approved",
          "type": "bool"
        }
      ],
      "name": "setSigner",
      "outputs": [],
      "stateMutability": "nonpayable",
      "type": "function"
    },
    {
      "inputs": [
        {
          "internalType": "uint256",
          "name": "newThreshold",
          "type": "uint256"
        }
      ],
      "name": "setThreshold",
      "outputs": [],
      "stateMutability": "nonpayable",
      "type": "function"
    },
    {
      "inputs": [],
      "name": "threshold",
      "outputs": [
        {
          "internalType": "uint256",
          "name": "",
          "type": "uint256"
        }
      ],
      "stateMutability": "view",
      "type": "function"
    },
    {
      "inputs": [
        {
          "internalType": "address",
          "name": "newOwner",
          "type": "address"
        }
      ],
      "name": "transferOwnership",
      "outputs": [],
      "stateMutability": "nonpayable",
      "type": "function"
    },
    {
      "inputs": [],
      "name": "unpause",
      "outputs": [],
      "stateMutability": "nonpayable",
      "type": "function"
    },
    {
      "inputs": [
        {
          "internalType": "bytes32",
          "name": "nftMint",
          "type": "bytes32"
        },
        {
          "internalType": "address",
          "name": "owner",
          "type": "address"
        },
        {
          "internalType": "uint256",
          "name": "expiry",
          "type": "uint256"
        },
        {
          "internalType": "bytes",
          "name": "proof",
          "type": "bytes"
        }
      ],
      "name": "verifyAccess",
      "outputs": [
        {
          "internalType": "bool",
          "name": "",
          "type": "bool"
        }
      ],
      "stateMutability": "nonpayable",
      "type": "function"
    }
  ],
  "bytecode": "0x608060405261012c60065534801562000016575f80fd5b5060405162001262380380620012628339810160408190526200003991620002b3565b826001600160a01b0381166200006957604051631e4fbdf760e01b81525f60048201526024015b60405180910390fd5b62000074816200017e565b505f8111620000d05760405162461bcd60e51b815260206004820152602160248201527f4f7261636c6556657269666965723a207468726573686f6c64206973207a65726044820152606f60f81b606482015260840162000060565b80825110156200012d5760405162461bcd60e51b815260206004820152602160248201527f4f7261636c6556657269666965723a20746f6f2066657720677561726469616e6044820152607360f81b606482015260840162000060565b5f5b82518110156200017157620001688382815181106200015257620001526200039f565b60200260200101516001620001cd60201b60201c565b6001016200012f565b5060055550620003b39050565b5f80546001600160a01b038381166001600160a01b0319831681178455604051919092169283917f8be0079c531659141344cd1fd0a4f28419497f9722a3daafe3b4186f6b6457e09190a35050565b6001600160a01b038216620002255760405162461bcd60e51b815260206004820152601c60248201527f4f7261636c6556657269666965723a207a65726f206164647265737300000000604482015260640162000060565b6001600160a01b0382165f81815260016020908152604091829020805460ff191685151590811790915591519182527ffcaa24b1276bfa7dbf77797c0a984b9df924acbeaabd48cd2f1b0eca379b78fa910160405180910390a25050565b80516001600160a01b03811681146200029a575f80fd5b919050565b634e487b7160e01b5f52604160045260245ffd5b5f805f60608486031215620002c6575f80fd5b620002d18462000283565b602085810151919450906001600160401b0380821115620002f0575f80fd5b818701915087601f83011262000304575f80fd5b8151818111156200031957620003196200029f565b8060051b604051601f19603f830116810181811085821117156200034157620003416200029f565b60405291825284820192508381018501918a8311156200035f575f80fd5b938501935b828510156200038857620003788562000283565b8452938501939285019262000364565b809750505050505050604084015190509250925092565b634e487b7160e01b5f52603260045260245ffd5b610ea180620003c15f395ff3fe608060405234801561000f575f80fd5b50600436106100fb575f3560e01c80636f5b6b20116100935780638da5cb5b116100635780638da5cb5b14610208578063960bfe0414610218578063d71aa9db1461022b578063f2fde38b1461024a575f80fd5b80636f5b6b20146101cd578063715018a6146101d65780638456cb59146101de5780638a875512146101e6575f80fd5b8063410fbdda116100ce578063410fbdda1461015257806342cde4e814610192578063478846cb146101a95780635c975abb146101bc575f80fd5b80631bddcb19146100ff57806322f3e2d41461011457806331cb6105146101375780633f4ba83a1461014a575b5f80fd5b61011261010d366004610cb3565b61025d565b005b5f54600160a01b900460ff16155b60405190151581526020015b60405180910390f35b610112610145366004610ce5565b6102ce565b6101126102e4565b61017a610160366004610cb3565b5f908152600260205260409020546001600160a01b031690565b6040516001600160a01b03909116815260200161012e565b61019b60055481565b60405190815260200161012e565b6101226101b7366004610d1e565b6102f6565b5f54600160a01b900460ff16610122565b61019b60065481565b6101126107ae565b6101126107bf565b6101226101f4366004610daa565b60016020525f908152604090205460ff1681565b5f546001600160a01b031661017a565b610112610226366004610cb3565b6107cf565b61019b610239366004610cb3565b5f9081526003602052604090205490565b610112610258366004610daa565b61086b565b6102656108a8565b603c81101580156102785750610e108111155b6102c95760405162461bcd60e51b815260206004820181905260248201527f4f7261636c6556657269666965723a20616765206f7574206f662072616e676560448201526064015b60405180910390fd5b600655565b6102d66108a8565b6102e082826108d4565b5050565b6102ec6108a8565b6102f4610988565b565b5f6102ff6109dc565b8342111561034f5760405162461bcd60e51b815260206004820152601d60248201527f4f7261636c6556657269666965723a2070726f6f66206578706972656400000060448201526064016102c0565b60065461035c9042610dde565b8411156103c25760405162461bcd60e51b815260206004820152602e60248201527f4f7261636c6556657269666965723a2070726f6f662065787069727920746f6f60448201526d2066617220696e2066757475726560901b60648201526084016102c0565b6005546103d0906041610df1565b821461042a5760405162461bcd60e51b8152602060048201526024808201527f4f7261636c6556657269666965723a20696e76616c69642070726f6f66206c656044820152630dccee8d60e31b60648201526084016102c0565b60408051602081018890526bffffffffffffffffffffffff19606088901b1691810191909152605481018590524660748201525f906104ae90609401604051602081830303815290604052805190602001207f19457468657265756d205369676e6564204d6573736167653a0a3332000000005f908152601c91909152603c902090565b5f8181526004602052604090205490915060ff161561051a5760405162461bcd60e51b815260206004820152602260248201527f4f7261636c6556657269666965723a2070726f6f6620616c7265616479207573604482015261195960f21b60648201526084016102c0565b5f60055467ffffffffffffffff81111561053657610536610e08565b60405190808252806020026020018201604052801561055f578160200160208202803683370190505b5090505f5b60055481101561072157365f878761057d856041610df1565b90610589866001610dde565b610594906041610df1565b926105a193929190610e1c565b915091505f6105e783838080601f0160208091040260200160405190810160405280939291908181526020018383808284375f920191909152508a93925050610a069050565b6001600160a01b0381165f9081526001602052604090205490915060ff1661065d5760405162461bcd60e51b815260206004820152602360248201527f4f7261636c6556657269666965723a207369676e6572206e6f7420617070726f6044820152621d995960ea1b60648201526084016102c0565b5f5b848110156106e957816001600160a01b031686828151811061068357610683610e43565b60200260200101516001600160a01b0316036106e15760405162461bcd60e51b815260206004820181905260248201527f4f7261636c6556657269666965723a206475706c6963617465207369676e657260448201526064016102c0565b60010161065f565b50808585815181106106fd576106fd610e43565b6001600160a01b039290921660209283029190910190910152505050600101610564565b505f828152600460209081526040808320805460ff191660011790558a83526002825280832080546001600160a01b038c166001600160a01b031990911681179091556003835292819020429055518881528a917f92c07e0e551bf1f828d8701d58aa314f073dec69ad5a440ec97cac2d0e775255910160405180910390a3506001979650505050505050565b6107b66108a8565b6102f45f610a30565b6107c76108a8565b6102f4610a7f565b6107d76108a8565b5f81116108305760405162461bcd60e51b815260206004820152602160248201527f4f7261636c6556657269666965723a207468726573686f6c64206973207a65726044820152606f60f81b60648201526084016102c0565b60058190556040518181527fadfa8ecb21b6962ebcd0adbd9ab985b7b4c5b5eb3b0dead683171565c7bfe1719060200160405180910390a150565b6108736108a8565b6001600160a01b03811661089c57604051631e4fbdf760e01b81525f60048201526024016102c0565b6108a581610a30565b50565b5f546001600160a01b031633146102f45760405163118cdaa760e01b81523360048201526024016102c0565b6001600160a01b03821661092a5760405162461bcd60e51b815260206004820152601c60248201527f4f7261636c6556657269666965723a207a65726f20616464726573730000000060448201526064016102c0565b6001600160a01b0382165f81815260016020908152604091829020805460ff191685151590811790915591519182527ffcaa24b1276bfa7dbf77797c0a984b9df924acbeaabd48cd2f1b0eca379b78fa910160405180910390a25050565b610990610ac1565b5f805460ff60a01b191690557f5db9ee0a495bf2e6ff9c91a7834c1ba4fdd244a5e8aa4e537bd38aeae4b073aa335b6040516001600160a01b03909116815260200160405180910390a1565b5f54600160a01b900460ff16156102f45760405163d93c066560e01b815260040160405180910390fd5b5f805f80610a148686610aea565b925092509250610a248282610b33565b50909150505b92915050565b5f80546001600160a01b038381166001600160a01b0319831681178455604051919092169283917f8be0079c531659141344cd1fd0a4f28419497f9722a3daafe3b4186f6b6457e09190a35050565b610a876109dc565b5f805460ff60a01b1916600160a01b1790557f62e78cea01bee320cd4e420270b5ea74000d11b0c9f74754ebdbfc544b05a2586109bf3390565b5f54600160a01b900460ff166102f457604051638dfc202b60e01b815260040160405180910390fd5b5f805f8351604103610b21576020840151604085015160608601515f1a610b1388828585610beb565b955095509550505050610b2c565b505081515f91506002905b9250925092565b5f826003811115610b4657610b46610e57565b03610b4f575050565b6001826003811115610b6357610b63610e57565b03610b815760405163f645eedf60e01b815260040160405180910390fd5b6002826003811115610b9557610b95610e57565b03610bb65760405163fce698f760e01b8152600481018290526024016102c0565b6003826003811115610bca57610bca610e57565b036102e0576040516335e2f38360e21b8152600481018290526024016102c0565b5f80807f7fffffffffffffffffffffffffffffff5d576e7357a4501ddfe92f46681b20a0841115610c2457505f91506003905082610ca9565b604080515f808252602082018084528a905260ff891692820192909252606081018790526080810186905260019060a0016020604051602081039080840390855afa158015610c75573d5f803e3d5ffd5b5050604051601f1901519150506001600160a01b038116610ca057505f925060019150829050610ca9565b92505f91508190505b9450945094915050565b5f60208284031215610cc3575f80fd5b5035919050565b80356001600160a01b0381168114610ce0575f80fd5b919050565b5f8060408385031215610cf6575f80fd5b610cff83610cca565b915060208301358015158114610d13575f80fd5b809150509250929050565b5f805f805f60808688031215610d32575f80fd5b85359450610d4260208701610cca565b935060408601359250606086013567ffffffffffffffff80821115610d65575f80fd5b818801915088601f830112610d78575f80fd5b813581811115610d86575f80fd5b896020828501011115610d97575f80fd5b9699959850939650602001949392505050565b5f60208284031215610dba575f80fd5b610dc382610cca565b9392505050565b634e487b7160e01b5f52601160045260245ffd5b80820180821115610a2a57610a2a610dca565b8082028115828204841417610a2a57610a2a610dca565b634e487b7160e01b5f52604160045260245ffd5b5f8085851115610e2a575f80fd5b83861115610e36575f80fd5b5050820193919092039150565b634e487b7160e01b5f52603260045260245ffd5b634e487b7160e01b5f52602160045260245ffdfea2646970667358221220134f573486a3582b1f7811bb63efbe1328b4131d316671e89c3de20414a4a96b64736f6c63430008180033",
  "linkReferences": {},
  "deployedLinkReferences": {}
}