{
  "_format": "hh-sol-artifact-1",
  "contractName": "OracleVerifier",
  "sourceName": "contracts/verifiers/OracleVerifier.sol",
  "abi": [
    {
      "inputs": [
        {
          "internalType": "address",
          "name": "initialOwner",
          "type": "address"
        },
        {
          "internalType": "address",
          "name": "initialSigner",
          "type": "address"
        }
      ],
      "stateMutability": "nonpayable",
      "type": "constructor"
    },
    {
      "inputs": [],
      "name": "ECDSAInvalidSignature",
      "type": "error"
    },
    {
      "inputs": [
        {
          "internalType": "uint256",
          "name": "length",
          "type": "uint256"
        }
      ],
      "name": "ECDSAInvalidSignatureLength",
      "type": "error"
    },
    {
      "inputs": [
        {
          "internalType": "bytes32",
          "name": "s",
          "type": "bytes32"
        }
      ],
      "name": "ECDSAInvalidSignatureS",
      "type": "error"
    },
    {
      "inputs": [],
      "name": "EnforcedPause",
      "type": "error"
    },
    {
      "inputs": [],
      "name": "ExpectedPause",
      "type": "error"
    },
    {
      "inputs": [
        {
          "internalType": "address",
          "name": "owner",
          "type": "address"
        }
      ],
      "name": "OwnableInvalidOwner",
      "type": "error"
    },
    {
      "inputs": [
        {
          "internalType": "address",
          "name": "account",
          "type": "address"
        }
      ],
      "name": "OwnableUnauthorizedAccount",
      "type": "error"
    },
    {
      "anonymous": false,
      "inputs": [
        {
          "indexed": true,
          "internalType": "address",
          "name": "previousOwner",
          "type": "address"
        },
        {
          "indexed": true,
          "internalType": "address",
          "name": "newOwner",
          "type": "address"
        }
      ],
      "name": "OwnershipTransferred",
      "type": "event"
    },
    {
      "anonymous": false,
      "inputs": [
        {
          "indexed": true,
          "internalType": "bytes32",
          "name": "nftMint",
          "type": "bytes32"
        },
        {
          "indexed": true,
          "internalType": "bytes32",
          "name": "owner",
          "type": "bytes32"
        },
        {
          "indexed": false,
          "internalType": "uint256",
          "name": "expiry",
          "type": "uint256"
        }
      ],
      "name": "OwnershipVerified",
      "type": "event"
    },
    {
      "anonymous": false,
      "inputs": [
        {
          "indexed": false,
          "internalType": "address",
          "name": "account",
          "type": "address"
        }
      ],
      "name": "Paused",
      "type": "event"
    },
    {
      "anonymous": false,
      "inputs": [
        {
          "indexed": true,
          "internalType": "address",
          "name": "signer",
          "type": "address"
        },
        {
          "indexed": false,
          "internalType": "bool",
          "name": "approved",
          "type": "bool"
        }
      ],
      "name": "SignerUpdated",
      "type": "event"
    },
    {
      "anonymous": false,
      "inputs": [
        {
          "indexed": false,
          "internalType": "address",
          "name": "account",
          "type": "address"
        }
      ],
      "name": "Unpaused",
      "type": "event"
    },
    {
      "inputs": [
        {
          "internalType": "address",
          "name": "",
          "type": "address"
        }
      ],
      "name": "approvedSigners",
      "outputs": [
        {
          "internalType": "bool",
          "name": "",
          "type": "bool"
        }
      ],
      "stateMutability": "view",
      "type": "function"
    },
    {
      "inputs": [],
      "name": "isActive",
      "outputs": [
        {
          "internalType": "bool",
          "name": "",
          "type": "bool"
        }
      ],
      "stateMutability": "view",
      "type": "function"
    },
    {
      "inputs": [
        {
          "internalType": "bytes32",
          "name": "nftMint",
          "type": "bytes32"
        }
      ],
      "name": "lastVerifiedAt",
      "outputs": [
        {
          "internalType": "uint256",
          "name": "",
          "type": "uint256"
        }
      ],
      "stateMutability": "view",
      "type": "function"
    },
    {
      "inputs": [
        {
          "internalType": "bytes32",
          "name": "nftMint",
          "type": "bytes32"
        }
      ],
      "name": "lastVerifiedOwner",
      "outputs": [
        {
          "internalType": "bytes32",
          "name": "",
          "type": "bytes32"
        }
      ],
      "stateMutability": "view",
      "type": "function"
    },
    {
      "inputs": [],
      "name": "maxProofAge",
      "outputs": [
        {
          "internalType": "uint256",
          "name": "",
          "type": "uint256"
        }
      ],
      "stateMutability": "view",
      "type": "function"
    },
    {
      "inputs": [],
      "name": "owner",
      "outputs": [
        {
          "internalType": "address",
          "name": "",
          "type": "address"
        }
      ],
      "stateMutability": "view",
      "type": "function"
    },
    {
      "inputs": [],
      "name": "pause",
      "outputs": [],
      "stateMutability": "nonpayable",
      "type": "function"
    },
    {
      "inputs": [],
      "name": "paused",
      "outputs": [
        {
          "internalType": "bool",
          "name": "",
          "type": "bool"
        }
      ],
      "stateMutability": "view",
      "type": "function"
    },
    {
      "inputs": [],
      "name": "renounceOwnership",
      "outputs": [],
      "stateMutability": "nonpayable",
      "type": "function"
    },
    {
      "inputs": [
        {
          "internalType": "uint256",
          "name": "newAge",
          "type": "uint256"
        }
      ],
      "name": "setMaxProofAge",
      "outputs": [],
      "stateMutability": "nonpayable",
      "type": "function"
    },
    {
      "inputs": [
        {
          "internalType": "address",
          "name": "signer",
          "type": "address"
        },
        {
          "internalType": "bool",
          "name": "approved",
          "type": "bool"
        }
      ],
      "name": "setSigner",
      "outputs": [],
      "stateMutability": "nonpayable",
      "type": "function"
    },
    {
      "inputs": [
        {
          "internalType": "address",
          "name": "newOwner",
          "type": "address"
        }
      ],
      "name": "transferOwnership",
      "outputs": [],
      "stateMutability": "nonpayable",
      "type": "function"
    },
    {
      "inputs": [],
      "name": "unpause",
      "outputs": [],
      "stateMutability": "nonpayable",
      "type": "function"
    },
    {
      "inputs": [
        {
          "internalType": "bytes32",
          "name": "nftMint",
          "type": "bytes32"
        },
        {
          "internalType": "bytes32",
          "name": "owner",
          "type": "bytes32"
        },
        {
          "internalType": "bytes",
          "name": "proof",
          "type": "bytes"
        },
        {
          "internalType": "uint256",
          "name": "expiry",
          "type": "uint256"
        }
      ],
      "name": "verifyAccess",
      "outputs": [
        {
          "internalType": "bool",
          "name": "valid",
          "type": "bool"
        }
      ],
      "stateMutability": "nonpayable",
      "type": "function"
    }
  ],
  "bytecode": "0x608060405261012c600555348015610015575f80fd5b50604051610d95380380610d958339810160408190526100349161019d565b816001600160a01b03811661006357604051631e4fbdf760e01b81525f60048201526024015b60405180910390fd5b61006c8161007f565b506100788160016100ce565b50506101ce565b5f80546001600160a01b038381166001600160a01b0319831681178455604051919092169283917f8be0079c531659141344cd1fd0a4f28419497f9722a3daafe3b4186f6b6457e09190a35050565b6001600160a01b0382166101245760405162461bcd60e51b815260206004820152601c60248201527f4f7261636c6556657269666965723a207a65726f206164647265737300000000604482015260640161005a565b6001600160a01b0382165f81815260016020908152604091829020805460ff191685151590811790915591519182527ffcaa24b1276bfa7dbf77797c0a984b9df924acbeaabd48cd2f1b0eca379b78fa910160405180910390a25050565b80516001600160a01b0381168114610198575f80fd5b919050565b5f80604083850312156101ae575f80fd5b6101b783610182565b91506101c560208401610182565b90509250929050565b610bba806101db5f395ff3fe608060405234801561000f575f80fd5b50600436106100e5575f3560e01c80636f5b6b20116100885780638a875512116100635780638a875512146101a65780638da5cb5b146101c8578063d71aa9db146101e2578063f2fde38b14610201575f80fd5b80636f5b6b201461018d578063715018a6146101965780638456cb591461019e575f80fd5b80633f4ba83a116100c35780633f4ba83a14610134578063410fbdda1461013c5780634ee1949c146101695780635c975abb1461017c575f80fd5b80631bddcb19146100e957806322f3e2d4146100fe57806331cb610514610121575b5f80fd5b6100fc6100f7366004610a46565b610214565b005b5f54600160a01b900460ff16155b60405190151581526020015b60405180910390f35b6100fc61012f366004610a78565b610285565b6100fc61029b565b61015b61014a366004610a46565b5f9081526002602052604090205490565b604051908152602001610118565b61010c610177366004610ab1565b6102ad565b5f54600160a01b900460ff1661010c565b61015b60055481565b6100fc6105dd565b6100fc6105ee565b61010c6101b4366004610b31565b60016020525f908152604090205460ff1681565b5f546040516001600160a01b039091168152602001610118565b61015b6101f0366004610a46565b5f9081526003602052604090205490565b6100fc61020f366004610b31565b6105fe565b61021c61063b565b603c811015801561022f5750610e108111155b6102805760405162461bcd60e51b815260206004820181905260248201527f4f7261636c6556657269666965723a20616765206f7574206f662072616e676560448201526064015b60405180910390fd5b600555565b61028d61063b565b6102978282610667565b5050565b6102a361063b565b6102ab61071b565b565b5f6102b661076f565b814211156103065760405162461bcd60e51b815260206004820152601d60248201527f4f7261636c6556657269666965723a2070726f6f6620657870697265640000006044820152606401610277565b6005546103139042610b51565b8211156103795760405162461bcd60e51b815260206004820152602e60248201527f4f7261636c6556657269666965723a2070726f6f662065787069727920746f6f60448201526d2066617220696e2066757475726560901b6064820152608401610277565b604183146103d55760405162461bcd60e51b8152602060048201526024808201527f4f7261636c6556657269666965723a20696e76616c69642070726f6f66206c656044820152630dccee8d60e31b6064820152608401610277565b6040805160208101889052908101869052606081018390524660808201525f906104449060a001604051602081830303815290604052805190602001207f19457468657265756d205369676e6564204d6573736167653a0a3332000000005f908152601c91909152603c902090565b5f8181526004602052604090205490915060ff16156104b05760405162461bcd60e51b815260206004820152602260248201527f4f7261636c6556657269666965723a2070726f6f6620616c7265616479207573604482015261195960f21b6064820152608401610277565b5f6104f286868080601f0160208091040260200160405190810160405280939291908181526020018383808284375f9201919091525086939250506107999050565b6001600160a01b0381165f9081526001602052604090205490915060ff166105685760405162461bcd60e51b815260206004820152602360248201527f4f7261636c6556657269666965723a207369676e6572206e6f7420617070726f6044820152621d995960ea1b6064820152608401610277565b5f828152600460209081526040808320805460ff191660011790558a8352600282528083208a90556003825291829020429055905185815288918a917ffc3b85faf690576aaa0780feea072b9f19c4397edbd53cf666c8fc72c106704b910160405180910390a3506001979650505050505050565b6105e561063b565b6102ab5f6107c3565b6105f661063b565b6102ab610812565b61060661063b565b6001600160a01b03811661062f57604051631e4fbdf760e01b81525f6004820152602401610277565b610638816107c3565b50565b5f546001600160a01b031633146102ab5760405163118cdaa760e01b8152336004820152602401610277565b6001600160a01b0382166106bd5760405162461bcd60e51b815260206004820152601c60248201527f4f7261636c6556657269666965723a207a65726f2061646472657373000000006044820152606401610277565b6001600160a01b0382165f81815260016020908152604091829020805460ff191685151590811790915591519182527ffcaa24b1276bfa7dbf77797c0a984b9df924acbeaabd48cd2f1b0eca379b78fa910160405180910390a25050565b610723610854565b5f805460ff60a01b191690557f5db9ee0a495bf2e6ff9c91a7834c1ba4fdd244a5e8aa4e537bd38aeae4b073aa335b6040516001600160a01b03909116815260200160405180910390a1565b5f54600160a01b900460ff16156102ab5760405163d93c066560e01b815260040160405180910390fd5b5f805f806107a7868661087d565b9250925092506107b782826108c6565b50909150505b92915050565b5f80546001600160a01b038381166001600160a01b0319831681178455604051919092169283917f8be0079c531659141344cd1fd0a4f28419497f9722a3daafe3b4186f6b6457e09190a35050565b61081a61076f565b5f805460ff60a01b1916600160a01b1790557f62e78cea01bee320cd4e420270b5ea74000d11b0c9f74754ebdbfc544b05a2586107523390565b5f54600160a01b900460ff166102ab57604051638dfc202b60e01b815260040160405180910390fd5b5f805f83516041036108b4576020840151604085015160608601515f1a6108a68882858561097e565b9550955095505050506108bf565b505081515f91506002905b9250925092565b5f8260038111156108d9576108d9610b70565b036108e2575050565b60018260038111156108f6576108f6610b70565b036109145760405163f645eedf60e01b815260040160405180910390fd5b600282600381111561092857610928610b70565b036109495760405163fce698f760e01b815260048101829052602401610277565b600382600381111561095d5761095d610b70565b03610297576040516335e2f38360e21b815260048101829052602401610277565b5f80807f7fffffffffffffffffffffffffffffff5d576e7357a4501ddfe92f46681b20a08411156109b757505f91506003905082610a3c565b604080515f808252602082018084528a905260ff891692820192909252606081018790526080810186905260019060a0016020604051602081039080840390855afa158015610a08573d5f803e3d5ffd5b5050604051601f1901519150506001600160a01b038116610a3357505f925060019150829050610a3c565b92505f91508190505b9450945094915050565b5f60208284031215610a56575f80fd5b5035919050565b80356001600160a01b0381168114610a73575f80fd5b919050565b5f8060408385031215610a89575f80fd5b610a9283610a5d565b915060208301358015158114610aa6575f80fd5b809150509250929050565b5f805f805f60808688031215610ac5575f80fd5b8535945060208601359350604086013567ffffffffffffffff80821115610aea575f80fd5b818801915088601f830112610afd575f80fd5b813581811115610b0b575f80fd5b896020828501011115610b1c575f80fd5b96999598505060200195606001359392505050565b5f60208284031215610b41575f80fd5b610b4a82610a5d565b9392505050565b808201808211156107bd57634e487b7160e01b5f52601160045260245ffd5b634e487b7160e01b5f52602160045260245ffdfea26469706673582212207a1be9ac1f8a17c60f1d9abdd3bb02144117e30eabc2edd9755c4804654defb064736f6c63430008180033",
  "linkReferences": {},
  "deployedLinkReferences": {}
}