{
  "_format": "hh-sol-artifact-1",
  "contractName": "OracleVerifier",
  "sourceName": "contracts/verifiers/OracleVerifier.sol",
  "abi": [
    {
      "inputs": [
        {
          "internalType": "address",
          "name": "initialOwner",
          "type": "address"
        },
        {
          "internalType": "address",
          "name": "initialSigner",
          "type": "address"
        }
      ],
      "stateMutability": "nonpayable",
      "type": "constructor"
    },
    {
      "inputs": [],
      "name": "ECDSAInvalidSignature",
      "type": "error"
    },
    {
      "inputs": [
        {
          "internalType": "uint256",
          "name": "length",
          "type": "uint256"
        }
      ],
      "name": "ECDSAInvalidSignatureLength",
      "type": "error"
    },
    {
      "inputs": [
        {
          "internalType": "bytes32",
          "name": "s",
          "type": "bytes32"
        }
      ],
      "name": "ECDSAInvalidSignatureS",
      "type": "error"
    },
    {
      "inputs": [],
      "name": "EnforcedPause",
      "type": "error"
    },
    {
      "inputs": [],
      "name": "ExpectedPause",
      "type": "error"
    },
    {
      "inputs": [
        {
          "internalType": "address",
          "name": "owner",
          "type": "address"
        }
      ],
      "name": "OwnableInvalidOwner",
      "type": "error"
    },
    {
      "inputs": [
        {
          "internalType": "address",
          "name": "account",
          "type": "address"
        }
      ],
      "name": "OwnableUnauthorizedAccount",
      "type": "error"
    },
    {
      "anonymous": false,
      "inputs": [
        {
          "indexed": true,
          "internalType": "address",
          "name": "previousOwner",
          "type": "address"
        },
        {
          "indexed": true,
          "internalType": "address",
          "name": "newOwner",
          "type": "address"
        }
      ],
      "name": "OwnershipTransferred",
      "type": "event"
    },
    {
      "anonymous": false,
      "inputs": [
        {
          "indexed": true,
          "internalType": "bytes32",
          "name": "nftMint",
          "type": "bytes32"
        },
        {
          "indexed": true,
          "internalType": "address",
          "name": "owner",
          "type": "address"
        },
        {
          "indexed": false,
          "internalType": "uint256",
          "name": "expiry",
          "type": "uint256"
        }
      ],
      "name": "OwnershipVerified",
      "type": "event"
    },
    {
      "anonymous": false,
      "inputs": [
        {
          "indexed": false,
          "internalType": "address",
          "name": "account",
          "type": "address"
        }
      ],
      "name": "Paused",
      "type": "event"
    },
    {
      "anonymous": false,
      "inputs": [
        {
          "indexed": true,
          "internalType": "address",
          "name": "signer",
          "type": "address"
        },
        {
          "indexed": false,
          "internalType": "bool",
          "name": "approved",
          "type": "bool"
        }
      ],
      "name": "SignerUpdated",
      "type": "event"
    },
    {
      "anonymous": false,
      "inputs": [
        {
          "indexed": false,
          "internalType": "address",
          "name": "account",
          "type": "address"
        }
      ],
      "name": "Unpaused",
      "type": "event"
    },
    {
      "inputs": [
        {
          "internalType": "address",
          "name": "",
          "type": "address"
        }
      ],
      "name": "approvedSigners",
      "outputs": [
        {
          "internalType": "bool",
          "name": "",
          "type": "bool"
        }
      ],
      "stateMutability": "view",
      "type": "function"
    },
    {
      "inputs": [],
      "name": "isActive",
      "outputs": [
        {
          "internalType": "bool",
          "name": "",
          "type": "bool"
        }
      ],
      "stateMutability": "view",
      "type": "function"
    },
    {
      "inputs": [
        {
          "internalType": "bytes32",
          "name": "nftMint",
          "type": "bytes32"
        }
      ],
      "name": "lastVerifiedAt",
      "outputs": [
        {
          "internalType": "uint256",
          "name": "",
          "type": "uint256"
        }
      ],
      "stateMutability": "view",
      "type": "function"
    },
    {
      "inputs": [
        {
          "internalType": "bytes32",
          "name": "nftMint",
          "type": "bytes32"
        }
      ],
      "name": "lastVerifiedOwner",
      "outputs": [
        {
          "internalType": "address",
          "name": "",
          "type": "address"
        }
      ],
      "stateMutability": "view",
      "type": "function"
    },
    {
      "inputs": [],
      "name": "maxProofAge",
      "outputs": [
        {
          "internalType": "uint256",
          "name": "",
          "type": "uint256"
        }
      ],
      "stateMutability": "view",
      "type": "function"
    },
    {
      "inputs": [],
      "name": "owner",
      "outputs": [
        {
          "internalType": "address",
          "name": "",
          "type": "address"
        }
      ],
      "stateMutability": "view",
      "type": "function"
    },
    {
      "inputs": [],
      "name": "pause",
      "outputs": [],
      "stateMutability": "nonpayable",
      "type": "function"
    },
    {
      "inputs": [],
      "name": "paused",
      "outputs": [
        {
          "internalType": "bool",
          "name": "",
          "type": "bool"
        }
      ],
      "stateMutability": "view",
      "type": "function"
    },
    {
      "inputs": [],
      "name": "renounceOwnership",
      "outputs": [],
      "stateMutability": "nonpayable",
      "type": "function"
    },
    {
      "inputs": [
        {
          "internalType": "uint256",
          "name": "newAge",
          "type": "uint256"
        }
      ],
      "name": "setMaxProofAge",
      "outputs": [],
      "stateMutability": "nonpayable",
      "type": "function"
    },
    {
      "inputs": [
        {
          "internalType": "address",
          "name": "signer",
          "type": "address"
        },
        {
          "internalType": "bool",
          "name": "approved",
          "type": "bool"
        }
      ],
      "name": "setSigner",
      "outputs": [],
      "stateMutability": "nonpayable",
      "type": "function"
    },
    {
      "inputs": [
        {
          "internalType": "address",
          "name": "newOwner",
          "type": "address"
        }
      ],
      "name": "transferOwnership",
      "outputs": [],
      "stateMutability": "nonpayable",
      "type": "function"
    },
    {
      "inputs": [],
      "name": "unpause",
      "outputs": [],
      "stateMutability": "nonpayable",
      "type": "function"
    },
    {
      "inputs": [
        {
          "internalType": "bytes32",
          "name": "nftMint",
          "type": "bytes32"
        },
        {
          "internalType": "address",
          "name": "owner",
          "type": "address"
        },
        {
          "internalType": "uint256",
          "name": "expiry",
          "type": "uint256"
        },
        {
          "internalType": "bytes",
          "name": "proof",
          "type": "bytes"
        }
      ],
      "name": "verifyAccess",
      "outputs": [
        {
          "internalType": "bool",
          "name": "valid",
          "type": "bool"
        }
      ],
      "stateMutability": "nonpayable",
      "type": "function"
    }
  ],
  "bytecode": "0x608060405261012c600555348015610015575f80fd5b50604051610de4380380610de48339810160408190526100349161019d565b816001600160a01b03811661006357604051631e4fbdf760e01b81525f60048201526024015b60405180910390fd5b61006c8161007f565b506100788160016100ce565b50506101ce565b5f80546001600160a01b038381166001600160a01b0319831681178455604051919092169283917f8be0079c531659141344cd1fd0a4f28419497f9722a3daafe3b4186f6b6457e09190a35050565b6001600160a01b0382166101245760405162461bcd60e51b815260206004820152601c60248201527f4f7261636c6556657269666965723a207a65726f206164647265737300000000604482015260640161005a565b6001600160a01b0382165f81815260016020908152604091829020805460ff191685151590811790915591519182527ffcaa24b1276bfa7dbf77797c0a984b9df924acbeaabd48cd2f1b0eca379b78fa910160405180910390a25050565b80516001600160a01b0381168114610198575f80fd5b919050565b5f80604083850312156101ae575f80fd5b6101b783610182565b91506101c560208401610182565b90509250929050565b610c09806101db5f395ff3fe608060405234801561000f575f80fd5b50600436106100e5575f3560e01c80636f5b6b20116100885780638a875512116100635780638a875512146101c75780638da5cb5b146101e9578063d71aa9db146101f9578063f2fde38b14610218575f80fd5b80636f5b6b20146101a0578063715018a6146101b75780638456cb59146101bf575f80fd5b80633f4ba83a116100c35780633f4ba83a14610134578063410fbdda1461013c578063478846cb1461017c5780635c975abb1461018f575f80fd5b80631bddcb19146100e957806322f3e2d4146100fe57806331cb610514610121575b5f80fd5b6100fc6100f7366004610a89565b61022b565b005b5f54600160a01b900460ff16155b60405190151581526020015b60405180910390f35b6100fc61012f366004610abb565b61029c565b6100fc6102b2565b61016461014a366004610a89565b5f908152600260205260409020546001600160a01b031690565b6040516001600160a01b039091168152602001610118565b61010c61018a366004610af4565b6102c4565b5f54600160a01b900460ff1661010c565b6101a960055481565b604051908152602001610118565b6100fc610620565b6100fc610631565b61010c6101d5366004610b80565b60016020525f908152604090205460ff1681565b5f546001600160a01b0316610164565b6101a9610207366004610a89565b5f9081526003602052604090205490565b6100fc610226366004610b80565b610641565b61023361067e565b603c81101580156102465750610e108111155b6102975760405162461bcd60e51b815260206004820181905260248201527f4f7261636c6556657269666965723a20616765206f7574206f662072616e676560448201526064015b60405180910390fd5b600555565b6102a461067e565b6102ae82826106aa565b5050565b6102ba61067e565b6102c261075e565b565b5f6102cd6107b2565b8342111561031d5760405162461bcd60e51b815260206004820152601d60248201527f4f7261636c6556657269666965723a2070726f6f662065787069726564000000604482015260640161028e565b60055461032a9042610ba0565b8411156103905760405162461bcd60e51b815260206004820152602e60248201527f4f7261636c6556657269666965723a2070726f6f662065787069727920746f6f60448201526d2066617220696e2066757475726560901b606482015260840161028e565b604182146103ec5760405162461bcd60e51b8152602060048201526024808201527f4f7261636c6556657269666965723a20696e76616c69642070726f6f66206c656044820152630dccee8d60e31b606482015260840161028e565b60408051602081018890526bffffffffffffffffffffffff19606088901b1691810191909152605481018590524660748201525f9061047090609401604051602081830303815290604052805190602001207f19457468657265756d205369676e6564204d6573736167653a0a3332000000005f908152601c91909152603c902090565b5f8181526004602052604090205490915060ff16156104dc5760405162461bcd60e51b815260206004820152602260248201527f4f7261636c6556657269666965723a2070726f6f6620616c7265616479207573604482015261195960f21b606482015260840161028e565b5f61051e85858080601f0160208091040260200160405190810160405280939291908181526020018383808284375f9201919091525086939250506107dc9050565b6001600160a01b0381165f9081526001602052604090205490915060ff166105945760405162461bcd60e51b815260206004820152602360248201527f4f7261636c6556657269666965723a207369676e6572206e6f7420617070726f6044820152621d995960ea1b606482015260840161028e565b5f828152600460209081526040808320805460ff191660011790558a83526002825280832080546001600160a01b038c166001600160a01b031990911681179091556003835292819020429055518881528a917f92c07e0e551bf1f828d8701d58aa314f073dec69ad5a440ec97cac2d0e775255910160405180910390a3506001979650505050505050565b61062861067e565b6102c25f610806565b61063961067e565b6102c2610855565b61064961067e565b6001600160a01b03811661067257604051631e4fbdf760e01b81525f600482015260240161028e565b61067b81610806565b50565b5f546001600160a01b031633146102c25760405163118cdaa760e01b815233600482015260240161028e565b6001600160a01b0382166107005760405162461bcd60e51b815260206004820152601c60248201527f4f7261636c6556657269666965723a207a65726f206164647265737300000000604482015260640161028e565b6001600160a01b0382165f81815260016020908152604091829020805460ff191685151590811790915591519182527ffcaa24b1276bfa7dbf77797c0a984b9df924acbeaabd48cd2f1b0eca379b78fa910160405180910390a25050565b610766610897565b5f805460ff60a01b191690557f5db9ee0a495bf2e6ff9c91a7834c1ba4fdd244a5e8aa4e537bd38aeae4b073aa335b6040516001600160a01b03909116815260200160405180910390a1565b5f54600160a01b900460ff16156102c25760405163d93c066560e01b815260040160405180910390fd5b5f805f806107ea86866108c0565b9250925092506107fa8282610909565b50909150505b92915050565b5f80546001600160a01b038381166001600160a01b0319831681178455604051919092169283917f8be0079c531659141344cd1fd0a4f28419497f9722a3daafe3b4186f6b6457e09190a35050565b61085d6107b2565b5f805460ff60a01b1916600160a01b1790557f62e78cea01bee320cd4e420270b5ea74000d11b0c9f74754ebdbfc544b05a2586107953390565b5f54600160a01b900460ff166102c257604051638dfc202b60e01b815260040160405180910390fd5b5f805f83516041036108f7576020840151604085015160608601515f1a6108e9888285856109c1565b955095509550505050610902565b505081515f91506002905b9250925092565b5f82600381111561091c5761091c610bbf565b03610925575050565b600182600381111561093957610939610bbf565b036109575760405163f645eedf60e01b815260040160405180910390fd5b600282600381111561096b5761096b610bbf565b0361098c5760405163fce698f760e01b81526004810182905260240161028e565b60038260038111156109a0576109a0610bbf565b036102ae576040516335e2f38360e21b81526004810182905260240161028e565b5f80807f7fffffffffffffffffffffffffffffff5d576e7357a4501ddfe92f46681b20a08411156109fa57505f91506003905082610a7f565b604080515f808252602082018084528a905260ff891692820192909252606081018790526080810186905260019060a0016020604051602081039080840390855afa158015610a4b573d5f803e3d5ffd5b5050604051601f1901519150506001600160a01b038116610a7657505f925060019150829050610a7f565b92505f91508190505b9450945094915050565b5f60208284031215610a99575f80fd5b5035919050565b80356001600160a01b0381168114610ab6575f80fd5b919050565b5f8060408385031215610acc575f80fd5b610ad583610aa0565b915060208301358015158114610ae9575f80fd5b809150509250929050565b5f805f805f60808688031215610b08575f80fd5b85359450610b1860208701610aa0565b935060408601359250606086013567ffffffffffffffff80821115610b3b575f80fd5b818801915088601f830112610b4e575f80fd5b813581811115610b5c575f80fd5b896020828501011115610b6d575f80fd5b9699959850939650602001949392505050565b5f60208284031215610b90575f80fd5b610b9982610aa0565b9392505050565b8082018082111561080057634e487b7160e01b5f52601160045260245ffd5b634e487b7160e01b5f52602160045260245ffdfea2646970667358221220cb3b2c8b1c2e921a91ab03f1162577f20da49e00d1205215f60bd363210da32b64736f6c63430008180033",
  "linkReferences": {},
  "deployedLinkReferences": {}
}