{
  "_format": "hh-sol-artifact-1",
  "contractName": "TreasurySplitter",
  "sourceName": "contracts/TreasurySplitter.sol",
  "abi": [
    {
      "inputs": [
        {
          "internalType": "address",
          "name": "initialOwner",
          "type": "address"
        },
        {
          "internalType": "address",
          "name": "_treasury",
          "type": "address"
        },
        {
          "internalType": "address",
          "name": "_pool",
          "type": "address"
        },
        {
          "internalType": "uint256",
          "name": "_treasuryBps",
          "type": "uint256"
        }
      ],
      "stateMutability": "nonpayable",
      "type": "constructor"
    },
    {
      "inputs": [
        {
          "internalType": "address",
          "name": "owner",
          "type": "address"
        }
      ],
      "name": "OwnableInvalidOwner",
      "type": "error"
    },
    {
      "inputs": [
        {
          "internalType": "address",
          "name": "account",
          "type": "address"
        }
      ],
      "name": "OwnableUnauthorizedAccount",
      "type": "error"
    },
    {
      "anonymous": false,
      "inputs": [
        {
          "indexed": true,
          "internalType": "address",
          "name": "from",
          "type": "address"
        },
        {
          "indexed": false,
          "internalType": "uint256",
          "name": "amount",
          "type": "uint256"
        }
      ],
      "name": "FeeReceived",
      "type": "event"
    },
    {
      "anonymous": false,
      "inputs": [
        {
          "indexed": false,
          "internalType": "uint256",
          "name": "toTreasury",
          "type": "uint256"
        },
        {
          "indexed": false,
          "internalType": "uint256",
          "name": "toPool",
          "type": "uint256"
        }
      ],
      "name": "FeeSplit",
      "type": "event"
    },
    {
      "anonymous": false,
      "inputs": [
        {
          "indexed": true,
          "internalType": "address",
          "name": "previousOwner",
          "type": "address"
        },
        {
          "indexed": true,
          "internalType": "address",
          "name": "newOwner",
          "type": "address"
        }
      ],
      "name": "OwnershipTransferred",
      "type": "event"
    },
    {
      "anonymous": false,
      "inputs": [
        {
          "indexed": true,
          "internalType": "address",
          "name": "newPool",
          "type": "address"
        }
      ],
      "name": "PoolUpdated",
      "type": "event"
    },
    {
      "anonymous": false,
      "inputs": [
        {
          "indexed": false,
          "internalType": "uint256",
          "name": "newTreasuryBps",
          "type": "uint256"
        }
      ],
      "name": "SplitUpdated",
      "type": "event"
    },
    {
      "anonymous": false,
      "inputs": [
        {
          "indexed": true,
          "internalType": "address",
          "name": "newTreasury",
          "type": "address"
        }
      ],
      "name": "TreasuryUpdated",
      "type": "event"
    },
    {
      "stateMutability": "payable",
      "type": "fallback"
    },
    {
      "inputs": [],
      "name": "owner",
      "outputs": [
        {
          "internalType": "address",
          "name": "",
          "type": "address"
        }
      ],
      "stateMutability": "view",
      "type": "function"
    },
    {
      "inputs": [],
      "name": "pool",
      "outputs": [
        {
          "internalType": "address",
          "name": "",
          "type": "address"
        }
      ],
      "stateMutability": "view",
      "type": "function"
    },
    {
      "inputs": [],
      "name": "renounceOwnership",
      "outputs": [],
      "stateMutability": "nonpayable",
      "type": "function"
    },
    {
      "inputs": [
        {
          "internalType": "address",
          "name": "newPool",
          "type": "address"
        }
      ],
      "name": "setPool",
      "outputs": [],
      "stateMutability": "nonpayable",
      "type": "function"
    },
    {
      "inputs": [
        {
          "internalType": "uint256",
          "name": "newBps",
          "type": "uint256"
        }
      ],
      "name": "setSplit",
      "outputs": [],
      "stateMutability": "nonpayable",
      "type": "function"
    },
    {
      "inputs": [
        {
          "internalType": "address",
          "name": "newTreasury",
          "type": "address"
        }
      ],
      "name": "setTreasury",
      "outputs": [],
      "stateMutability": "nonpayable",
      "type": "function"
    },
    {
      "inputs": [],
      "name": "sweep",
      "outputs": [],
      "stateMutability": "nonpayable",
      "type": "function"
    },
    {
      "inputs": [
        {
          "internalType": "address",
          "name": "newOwner",
          "type": "address"
        }
      ],
      "name": "transferOwnership",
      "outputs": [],
      "stateMutability": "nonpayable",
      "type": "function"
    },
    {
      "inputs": [],
      "name": "treasury",
      "outputs": [
        {
          "internalType": "address",
          "name": "",
          "type": "address"
        }
      ],
      "stateMutability": "view",
      "type": "function"
    },
    {
      "inputs": [],
      "name": "treasuryBps",
      "outputs": [
        {
          "internalType": "uint256",
          "name": "",
          "type": "uint256"
        }
      ],
      "stateMutability": "view",
      "type": "function"
    },
    {
      "stateMutability": "payable",
      "type": "receive"
    }
  ],
  "bytecode": "0x608060405234801561000f575f80fd5b50604051610a03380380610a0383398101604081905261002e9161021d565b836001600160a01b03811661005d57604051631e4fbdf760e01b81525f60048201526024015b60405180910390fd5b610066816101b3565b506001600160a01b0383166100bd5760405162461bcd60e51b815260206004820152601f60248201527f547265617375727953706c69747465723a207a65726f207472656173757279006044820152606401610054565b6001600160a01b0382166101135760405162461bcd60e51b815260206004820152601b60248201527f547265617375727953706c69747465723a207a65726f20706f6f6c00000000006044820152606401610054565b5f81118015610123575061271081105b61017a5760405162461bcd60e51b815260206004820152602260248201527f547265617375727953706c69747465723a20627073206f7574206f662072616e604482015261676560f01b6064820152608401610054565b600180546001600160a01b039485166001600160a01b031991821617909155600280549390941692169190911790915560035550610265565b5f80546001600160a01b038381166001600160a01b0319831681178455604051919092169283917f8be0079c531659141344cd1fd0a4f28419497f9722a3daafe3b4186f6b6457e09190a35050565b80516001600160a01b0381168114610218575f80fd5b919050565b5f805f8060808587031215610230575f80fd5b61023985610202565b935061024760208601610202565b925061025560408601610202565b6060959095015193969295505050565b610791806102725f395ff3fe608060405260043610610094575f3560e01c8063674e694f11610058578063674e694f1461015e578063715018a61461017d5780638da5cb5b14610191578063f0f44260146101ad578063f2fde38b146101cc576100a4565b806316f0115b146100ad57806335faa416146100e95780634437152a146100fd5780634dc10ea11461011c57806361d027b31461013f576100a4565b366100a4576100a2346101eb565b005b6100a2346101eb565b3480156100b8575f80fd5b506002546100cc906001600160a01b031681565b6040516001600160a01b0390911681526020015b60405180910390f35b3480156100f4575f80fd5b506100a26102cc565b348015610108575f80fd5b506100a26101173660046106b4565b61034b565b348015610127575f80fd5b5061013160035481565b6040519081526020016100e0565b34801561014a575f80fd5b506001546100cc906001600160a01b031681565b348015610169575f80fd5b506100a26101783660046106e1565b6103f2565b348015610188575f80fd5b506100a261049c565b34801561019c575f80fd5b505f546001600160a01b03166100cc565b3480156101b8575f80fd5b506100a26101c73660046106b4565b6104af565b3480156101d7575f80fd5b506100a26101e63660046106b4565b610556565b805f036101f55750565b5f61271060035483610207919061070c565b6102119190610729565b90505f61021e8284610748565b60405184815290915033907fbb527541f6cc244ae00ab689f8c23d072a30a3b4176021df62ea1c2bac8aa2269060200160405180910390a260408051838152602081018390527fe3d1bc957029c183464081fe664746cbab35398d3abf32c333f85dfc4165ee4d910160405180910390a181156102ab576001546102ab906001600160a01b031683610590565b80156102c7576002546102c7906001600160a01b031682610590565b505050565b6102d4610639565b47806103325760405162461bcd60e51b815260206004820152602260248201527f547265617375727953706c69747465723a206e6f7468696e6720746f20737765604482015261065760f41b60648201526084015b60405180910390fd5b600154610348906001600160a01b031682610590565b50565b610353610639565b6001600160a01b0381166103a95760405162461bcd60e51b815260206004820152601e60248201527f547265617375727953706c69747465723a207a65726f206164647265737300006044820152606401610329565b600280546001600160a01b0319166001600160a01b0383169081179091556040517f380cec482764ddef4f75351b5398e3e2bea99ba23e53a00d5521f569fb668e1f905f90a250565b6103fa610639565b5f8111801561040a575061271081105b6104615760405162461bcd60e51b815260206004820152602260248201527f547265617375727953706c69747465723a20627073206f7574206f662072616e604482015261676560f01b6064820152608401610329565b60038190556040518181527fa23d3c5d31dafc039390918afffaf4f320934b77bb86a5a37ef3ec965e5ba5979060200160405180910390a150565b6104a4610639565b6104ad5f610665565b565b6104b7610639565b6001600160a01b03811661050d5760405162461bcd60e51b815260206004820152601e60248201527f547265617375727953706c69747465723a207a65726f206164647265737300006044820152606401610329565b600180546001600160a01b0319166001600160a01b0383169081179091556040517f7dae230f18360d76a040c81f050aa14eb9d6dc7901b20fc5d855e2a20fe814d1905f90a250565b61055e610639565b6001600160a01b03811661058757604051631e4fbdf760e01b81525f6004820152602401610329565b61034881610665565b5f826001600160a01b0316826040515f6040518083038185875af1925050503d805f81146105d9576040519150601f19603f3d011682016040523d82523d5f602084013e6105de565b606091505b50509050806102c75760405162461bcd60e51b815260206004820152602160248201527f547265617375727953706c69747465723a207472616e73666572206661696c656044820152601960fa1b6064820152608401610329565b5f546001600160a01b031633146104ad5760405163118cdaa760e01b8152336004820152602401610329565b5f80546001600160a01b038381166001600160a01b0319831681178455604051919092169283917f8be0079c531659141344cd1fd0a4f28419497f9722a3daafe3b4186f6b6457e09190a35050565b5f602082840312156106c4575f80fd5b81356001600160a01b03811681146106da575f80fd5b9392505050565b5f602082840312156106f1575f80fd5b5035919050565b634e487b7160e01b5f52601160045260245ffd5b8082028115828204841417610723576107236106f8565b92915050565b5f8261074357634e487b7160e01b5f52601260045260245ffd5b500490565b81810381811115610723576107236106f856fea2646970667358221220420a001c296eac953cbdd1ccbd2da0ef250528f9c018dad3b9eb71a8ed6a9e1d64736f6c63430008180033",
  "linkReferences": {},
  "deployedLinkReferences": {}
}