{
  "_format": "hh-sol-artifact-1",
  "contractName": "VaultFactory",
  "sourceName": "contracts/VaultFactory.sol",
  "abi": [
    {
      "inputs": [
        {
          "internalType": "contract IEntryPoint",
          "name": "_entryPoint",
          "type": "address"
        },
        {
          "internalType": "address",
          "name": "_owner",
          "type": "address"
        }
      ],
      "stateMutability": "nonpayable",
      "type": "constructor"
    },
    {
      "inputs": [],
      "name": "FailedDeployment",
      "type": "error"
    },
    {
      "inputs": [
        {
          "internalType": "uint256",
          "name": "balance",
          "type": "uint256"
        },
        {
          "internalType": "uint256",
          "name": "needed",
          "type": "uint256"
        }
      ],
      "name": "InsufficientBalance",
      "type": "error"
    },
    {
      "anonymous": false,
      "inputs": [
        {
          "indexed": true,
          "internalType": "address",
          "name": "caller",
          "type": "address"
        }
      ],
      "name": "CallerAuthorized",
      "type": "event"
    },
    {
      "anonymous": false,
      "inputs": [
        {
          "indexed": true,
          "internalType": "address",
          "name": "caller",
          "type": "address"
        }
      ],
      "name": "CallerRevoked",
      "type": "event"
    },
    {
      "anonymous": false,
      "inputs": [
        {
          "indexed": true,
          "internalType": "address",
          "name": "vault",
          "type": "address"
        },
        {
          "indexed": true,
          "internalType": "address",
          "name": "locker",
          "type": "address"
        },
        {
          "indexed": false,
          "internalType": "uint256",
          "name": "slotIndex",
          "type": "uint256"
        },
        {
          "indexed": false,
          "internalType": "bytes32",
          "name": "nftMint",
          "type": "bytes32"
        }
      ],
      "name": "VaultDeployed",
      "type": "event"
    },
    {
      "inputs": [
        {
          "internalType": "address",
          "name": "caller",
          "type": "address"
        }
      ],
      "name": "authorizeCaller",
      "outputs": [],
      "stateMutability": "nonpayable",
      "type": "function"
    },
    {
      "inputs": [
        {
          "internalType": "address",
          "name": "",
          "type": "address"
        }
      ],
      "name": "authorizedCallers",
      "outputs": [
        {
          "internalType": "bool",
          "name": "",
          "type": "bool"
        }
      ],
      "stateMutability": "view",
      "type": "function"
    },
    {
      "inputs": [
        {
          "internalType": "address",
          "name": "locker",
          "type": "address"
        },
        {
          "internalType": "uint256",
          "name": "slotIndex",
          "type": "uint256"
        },
        {
          "internalType": "bytes32",
          "name": "nftMint",
          "type": "bytes32"
        },
        {
          "internalType": "address",
          "name": "signingWallet",
          "type": "address"
        },
        {
          "internalType": "uint8",
          "name": "securityMode",
          "type": "uint8"
        },
        {
          "internalType": "address",
          "name": "verifier",
          "type": "address"
        }
      ],
      "name": "deployVault",
      "outputs": [
        {
          "internalType": "address",
          "name": "vault",
          "type": "address"
        }
      ],
      "stateMutability": "nonpayable",
      "type": "function"
    },
    {
      "inputs": [],
      "name": "entryPoint",
      "outputs": [
        {
          "internalType": "contract IEntryPoint",
          "name": "",
          "type": "address"
        }
      ],
      "stateMutability": "view",
      "type": "function"
    },
    {
      "inputs": [],
      "name": "owner",
      "outputs": [
        {
          "internalType": "address",
          "name": "",
          "type": "address"
        }
      ],
      "stateMutability": "view",
      "type": "function"
    },
    {
      "inputs": [
        {
          "internalType": "address",
          "name": "locker",
          "type": "address"
        },
        {
          "internalType": "uint256",
          "name": "slotIndex",
          "type": "uint256"
        },
        {
          "internalType": "bytes32",
          "name": "nftMint",
          "type": "bytes32"
        },
        {
          "internalType": "address",
          "name": "signingWallet",
          "type": "address"
        }
      ],
      "name": "predictVaultAddress",
      "outputs": [
        {
          "internalType": "address",
          "name": "",
          "type": "address"
        }
      ],
      "stateMutability": "view",
      "type": "function"
    },
    {
      "inputs": [
        {
          "internalType": "address",
          "name": "caller",
          "type": "address"
        }
      ],
      "name": "revokeCaller",
      "outputs": [],
      "stateMutability": "nonpayable",
      "type": "function"
    },
    {
      "inputs": [
        {
          "internalType": "address",
          "name": "newOwner",
          "type": "address"
        }
      ],
      "name": "transferOwnership",
      "outputs": [],
      "stateMutability": "nonpayable",
      "type": "function"
    },
    {
      "inputs": [],
      "name": "vaultImplementation",
      "outputs": [
        {
          "internalType": "address",
          "name": "",
          "type": "address"
        }
      ],
      "stateMutability": "view",
      "type": "function"
    }
  ],
  "bytecode": "0x60c060405234801561000f575f80fd5b5060405161288338038061288383398101604081905261002e916100e3565b6001600160a01b0382811660a0525f80546001600160a01b0319169183169190911781556040518390610060906100bf565b6001600160a01b039091168152602001604051809103905ff080158015610089573d5f803e3d5ffd5b506001600160a01b03908116608052919091165f908152600160208190526040909120805460ff191690911790555061011b9050565b611f8f806108f483390190565b6001600160a01b03811681146100e0575f80fd5b50565b5f80604083850312156100f4575f80fd5b82516100ff816100cc565b6020840151909250610110816100cc565b809150509250929050565b60805160a0516107a36101515f395f61012201525f818161015c0152818161022a01528181610339015261037f01526107a35ff3fe608060405234801561000f575f80fd5b5060043610610090575f3560e01c8063b0d691fe11610063578063b0d691fe1461011d578063b774353014610144578063bba48a9014610157578063e31776521461017e578063f2fde38b14610191575f80fd5b80632c388d5d14610094578063536fff6c146100a95780636986244d146100e05780638da5cb5b1461010b575b5f80fd5b6100a76100a2366004610685565b6101a4565b005b6100cb6100b7366004610685565b60016020525f908152604090205460ff1681565b60405190151581526020015b60405180910390f35b6100f36100ee36600461069e565b610224565b6040516001600160a01b0390911681526020016100d7565b5f546100f3906001600160a01b031681565b6100f37f000000000000000000000000000000000000000000000000000000000000000081565b6100a7610152366004610685565b610264565b6100f37f000000000000000000000000000000000000000000000000000000000000000081565b6100f361018c3660046106e1565b6102d5565b6100a761019f366004610685565b61047a565b5f546001600160a01b031633146101d65760405162461bcd60e51b81526004016101cd9061074a565b60405180910390fd5b6001600160a01b0381165f818152600160208190526040808320805460ff1916909217909155517f6acfd92212f0ec670af78f8ba2273e4a85ac17023475650c25be0440602bff2d9190a250565b5f61025b7f000000000000000000000000000000000000000000000000000000000000000061025587878787610504565b3061055d565b95945050505050565b5f546001600160a01b0316331461028d5760405162461bcd60e51b81526004016101cd9061074a565b6001600160a01b0381165f81815260016020526040808220805460ff19169055517f0491b0192bae7692618bfa4eff3f4942d2d8ec3300ef2e63d325b45e937c4ff19190a250565b335f9081526001602052604081205460ff166103245760405162461bcd60e51b815260206004820152600e60248201526d139bdd08185d5d1a1bdc9a5e995960921b60448201526064016101cd565b5f61033188888888610504565b90505f61035f7f0000000000000000000000000000000000000000000000000000000000000000833061055d565b90506001600160a01b0381163b1561037a5791506104709050565b6103a47f0000000000000000000000000000000000000000000000000000000000000000836105c2565b604051632a85537960e11b81526001600160a01b038b81166004830152602482018b9052604482018a9052888116606483015260ff8816608483015286811660a48301529194509084169063550aa6f29060c4015f604051808303815f87803b15801561040f575f80fd5b505af1158015610421573d5f803e3d5ffd5b5050604080518b8152602081018b90526001600160a01b03808e169450871692507f240fc14917e6e1554c81cfb539719a310c54751a7bfacbebcd20672d4d5fd0af910160405180910390a350505b9695505050505050565b5f546001600160a01b031633146104a35760405162461bcd60e51b81526004016101cd9061074a565b6001600160a01b0381166104e35760405162461bcd60e51b8152602060048201526007602482015266125b9d985b1a5960ca1b60448201526064016101cd565b5f80546001600160a01b0319166001600160a01b0392909216919091179055565b6040516bffffffffffffffffffffffff19606086811b82166020840152603483018690526054830185905283901b1660748201525f90608801604051602081830303815290604052805190602001209050949350505050565b60405160388101919091526f5af43d82803e903d91602b57fd5bf3ff60248201526014810192909252733d602d80600a3d3981f3363d3d373d3d3d363d73825260588201526037600c820120607882015260556043909101206001600160a01b031690565b5f6105ce83835f6105d5565b9392505050565b5f814710156106005760405163cf47918160e01b8152476004820152602481018390526044016101cd565b763d602d80600a3d3981f3363d3d373d3d3d363d730000008460601b60e81c175f526e5af43d82803e903d91602b57fd5bf38460781b17602052826037600984f590506001600160a01b0381166105ce5760405163b06ebf3d60e01b815260040160405180910390fd5b80356001600160a01b0381168114610680575f80fd5b919050565b5f60208284031215610695575f80fd5b6105ce8261066a565b5f805f80608085870312156106b1575f80fd5b6106ba8561066a565b935060208501359250604085013591506106d66060860161066a565b905092959194509250565b5f805f805f8060c087890312156106f6575f80fd5b6106ff8761066a565b9550602087013594506040870135935061071b6060880161066a565b9250608087013560ff81168114610730575f80fd5b915061073e60a0880161066a565b90509295509295509295565b6020808252600990820152682737ba1037bbb732b960b91b60408201526060019056fea26469706673582212204fed5ba962f744799814d356386778fc882fff9eb74fa40e059e194dd01957e464736f6c6343000818003360c06040523060805234801562000014575f80fd5b5060405162001f8f38038062001f8f833981016040819052620000379162000109565b6001600160a01b03811660a0526200004e62000055565b5062000138565b7ff0c57e16840df040f15088dc2f81fe391c3923bec73e23a9662efc9c229c6a00805468010000000000000000900460ff1615620000a65760405163f92ee8a960e01b815260040160405180910390fd5b80546001600160401b0390811614620001065780546001600160401b0319166001600160401b0390811782556040519081527fc7f505b2f371ae2175ee4913f4499e1f2633a7b5936321eed1cdaeb6115181d29060200160405180910390a15b50565b5f602082840312156200011a575f80fd5b81516001600160a01b038116811462000131575f80fd5b9392505050565b60805160a051611e126200017d5f395f81816104870152818161058601528181610fcc015261106901525f81816114640152818161148d01526115f40152611e125ff3fe6080604052600436106101d3575f3560e01c806392dd7b99116100fd578063c72cdfef11610092578063d9f1be5511610062578063d9f1be551461051d578063dc2a60f614610531578063dd4286951461021f578063fb2a59be14610551575f80fd5b8063c72cdfef146104ca578063cea26e4c146103b2578063d087d288146104e9578063d5d93a10146104fd575f80fd5b8063ad3cb1cc116100cd578063ad3cb1cc14610427578063ae565e1114610464578063b0d691fe14610479578063b61d27f6146104ab575f80fd5b806392dd7b99146103b2578063964cbf6a146103c6578063995143ef146103f45780639be0a71b14610408575f80fd5b80633675f29b1161017357806352d1902d1161014357806352d1902d1461034b578063550aa6f21461035f57806358bc29441461037e578063719414b41461039d575f80fd5b80633675f29b146102ca5780633b55e385146102e957806347e1da2a146103195780634f1ef28614610338575f80fd5b806312b226c9116101ae57806312b226c91461023357806313feaacd1461025657806319822f7c146102755780632b7ac3f314610294575f80fd5b806306f4bcbf146101de5780630917848d146101f45780630c7edb5d1461021f575f80fd5b366101da57005b5f80fd5b3480156101e9575f80fd5b506101f2610565565b005b3480156101ff575f80fd5b50610208600481565b60405160ff90911681526020015b60405180910390f35b34801561022a575f80fd5b50610208600281565b34801561023e575f80fd5b5061024860055481565b604051908152602001610216565b348015610261575f80fd5b506101f261027036600461184d565b610603565b348015610280575f80fd5b5061024861028f36600461188c565b610680565b34801561029f575f80fd5b505f546102b2906001600160a01b031681565b6040516001600160a01b039091168152602001610216565b3480156102d5575f80fd5b506001546102b2906001600160a01b031681565b3480156102f4575f80fd5b5060045461030990600160b01b900460ff1681565b6040519015158152602001610216565b348015610324575f80fd5b506101f261033336600461191c565b6106a5565b6101f2610346366004611a67565b610931565b348015610356575f80fd5b50610248610950565b34801561036a575f80fd5b506101f2610379366004611ac2565b61096b565b348015610389575f80fd5b506101f2610398366004611b24565b610c35565b3480156103a8575f80fd5b5061024860035481565b3480156103bd575f80fd5b50610208600181565b3480156103d1575f80fd5b506102086103e0366004611b24565b60066020525f908152604090205460ff1681565b3480156103ff575f80fd5b506101f2610cf7565b348015610413575f80fd5b506101f2610422366004611b3d565b610daa565b348015610432575f80fd5b50610457604051806040016040528060058152602001640352e302e360dc1b81525081565b6040516102169190611bb1565b34801561046f575f80fd5b5061024860025481565b348015610484575f80fd5b507f00000000000000000000000000000000000000000000000000000000000000006102b2565b3480156104b6575f80fd5b506101f26104c5366004611bc3565b610eb7565b3480156104d5575f80fd5b506004546102b2906001600160a01b031681565b3480156104f4575f80fd5b50610248610fc9565b348015610508575f80fd5b5060045461020890600160a01b900460ff1681565b348015610528575f80fd5b50610208600381565b34801561053c575f80fd5b5060045461030990600160a81b900460ff1681565b34801561055c575f80fd5b50610208600581565b6004546001600160a01b031633148015906105a95750336001600160a01b037f00000000000000000000000000000000000000000000000000000000000000001614155b156105c75760405163b5357b8f60e01b815260040160405180910390fd5b6004805460ff60b01b191690555f60058190556040517f9e4f5027adc4051ea8e8cb01bfcf333d6e85f1aa5d9e2e01fdff18e17c847acb9190a1565b6001546001600160a01b0316331461062e57604051630762163b60e31b815260040160405180910390fd5b6004805461ffff60a81b1916600160a81b1790556040517fb549bded4331f0939af765e1a24f49c4fc9c190e88e541c9e6861dd386907f3b906106749084908490611c19565b60405180910390a15050565b5f61068961105e565b61069384846110d8565b905061069e82611220565b9392505050565b6106ad61105e565b6106b5611275565b6106bd6112c1565b84831480156106cb57508481145b61070e5760405162461bcd60e51b815260206004820152600f60248201526e098cadccee8d040dad2e6dac2e8c6d608b1b60448201526064015b60405180910390fd5b5f5b85811015610928575f60065f89898581811061072e5761072e611c47565b90506020020160208101906107439190611b24565b6001600160a01b0316815260208101919091526040015f205460ff16905080156107bb576107bb88888481811061077c5761077c611c47565b90506020020160208101906107919190611b24565b828686868181106107a4576107a4611c47565b90506020028101906107b69190611c5b565b6112ec565b5f808989858181106107cf576107cf611c47565b90506020020160208101906107e49190611b24565b6001600160a01b03168888868181106107ff576107ff611c47565b9050602002013587878781811061081857610818611c47565b905060200281019061082a9190611c5b565b604051610838929190611c9e565b5f6040518083038185875af1925050503d805f8114610872576040519150601f19603f3d011682016040523d82523d5f602084013e610877565b606091505b50915091508161089c57806040516315fcd67560e01b81526004016107059190611bb1565b8989858181106108ae576108ae611c47565b90506020020160208101906108c39190611b24565b6001600160a01b03167f6f6c6d78a4851d4c222c8404fc92372ee84b7b81054305ae8ea3c83c2dabd42e8989878181106108ff576108ff611c47565b9050602002013560405161091591815260200190565b60405180910390a2505050600101610710565b50505050505050565b610939611459565b610942826114fd565b61094c8282611528565b5050565b5f6109596115e9565b505f80516020611dbd83398151915290565b5f610974611632565b805490915060ff600160401b820416159067ffffffffffffffff165f8115801561099b5750825b90505f8267ffffffffffffffff1660011480156109b75750303b155b9050811580156109c5575080155b156109e35760405163f92ee8a960e01b815260040160405180910390fd5b845467ffffffffffffffff191660011785558315610a0d57845460ff60401b1916600160401b1785555b6001600160a01b038b16610a545760405162461bcd60e51b815260206004820152600e60248201526d24b73b30b634b2103637b1b5b2b960911b6044820152606401610705565b6001600160a01b038816610a9b5760405162461bcd60e51b815260206004820152600e60248201526d24b73b30b634b21039b4b3b732b960911b6044820152606401610705565b6001600160a01b038616610ae45760405162461bcd60e51b815260206004820152601060248201526f24b73b30b634b2103b32b934b334b2b960811b6044820152606401610705565b60ff871660011480610af9575060ff87166002145b610b345760405162461bcd60e51b815260206004820152600c60248201526b496e76616c6964206d6f646560a01b6044820152606401610705565b600180546001600160a01b03808e166001600160a01b0319928316811790935560028d905560038c90556004805460ff8c16600160a01b026001600160a81b03199091168d8416171790555f8054918a16919092161790556040517f0362dfbc2163a6ffbf30f36e9776263e8397e9e0e957c5c16765fecd2d0b135090610bda908d908d908d9092835260208301919091526001600160a01b0316604082015260600190565b60405180910390a28315610c2857845460ff60401b19168555604051600181527fc7f505b2f371ae2175ee4913f4499e1f2633a7b5936321eed1cdaeb6115181d29060200160405180910390a15b5050505050505050505050565b6001546001600160a01b03163314610c6057604051630762163b60e31b815260040160405180910390fd5b6001600160a01b038116610ca75760405162461bcd60e51b815260206004820152600e60248201526d24b73b30b634b21039b4b3b732b960911b6044820152606401610705565b60048054600162ff000160a01b0319166001600160a01b0383169081179091555f60058190556040517fbbb5fb2ee7e707ae0c968f63e94211ea81e66a718c34e2f810a7619e5678a2179190a250565b6001546001600160a01b03163314610d2257604051630762163b60e31b815260040160405180910390fd5b600454600160a81b900460ff16610d735760405162461bcd60e51b81526020600482015260156024820152744e6f7420696e20726561642d6f6e6c79206d6f646560581b6044820152606401610705565b6004805460ff60a81b191690556040517fce529c8e386c3507a21070ecb409eecf1c31018e8f44c12728797935e7cd5529905f90a1565b610db261105e565b610dba611275565b6001600160a01b038216610e025760405162461bcd60e51b815260206004820152600f60248201526e496e76616c6964206164647265737360881b6044820152606401610705565b600160ff821610801590610e1a5750600560ff821611155b610e585760405162461bcd60e51b815260206004820152600f60248201526e496e76616c696420707572706f736560881b6044820152606401610705565b6001600160a01b0382165f81815260066020908152604091829020805460ff191660ff861690811790915591519182527fc2d7486efc2cbb21ab0b0e80a4d953cc19b26ccbb75b412812dc3c861f304291910160405180910390a25050565b610ebf61105e565b610ec7611275565b610ecf6112c1565b6001600160a01b0384165f9081526006602052604090205460ff168015610efc57610efc858285856112ec565b5f80866001600160a01b0316868686604051610f19929190611c9e565b5f6040518083038185875af1925050503d805f8114610f53576040519150601f19603f3d011682016040523d82523d5f602084013e610f58565b606091505b509150915081610f7d57806040516315fcd67560e01b81526004016107059190611bb1565b866001600160a01b03167f6f6c6d78a4851d4c222c8404fc92372ee84b7b81054305ae8ea3c83c2dabd42e87604051610fb891815260200190565b60405180910390a250505050505050565b5f7f0000000000000000000000000000000000000000000000000000000000000000604051631aab3f0d60e11b81523060048201525f60248201526001600160a01b0391909116906335567e1a90604401602060405180830381865afa158015611035573d5f803e3d5ffd5b505050506040513d601f19601f820116820180604052508101906110599190611cad565b905090565b336001600160a01b037f000000000000000000000000000000000000000000000000000000000000000016146110d65760405162461bcd60e51b815260206004820152601c60248201527f6163636f756e743a206e6f742066726f6d20456e747279506f696e74000000006044820152606401610705565b565b5f8080806110ea610100870187611c5b565b8101906110f79190611cc4565b92509250925060035483146111125760019350505050611217565b600454600160a81b900460ff16156111305760019350505050611217565b5f80546004805460405163478846cb60e01b81526001600160a01b039384169363478846cb93611169938a939216918991899101611d10565b6020604051808303815f875af1158015611185573d5f803e3d5ffd5b505050506040513d601f19601f820116820180604052508101906111a99190611d46565b9050806111bd576001945050505050611217565b6004805460ff60b01b1916600160b01b17905560058390556040517fb329a2518e512dc58360d4ecf87f490d2167e7171bb8a362e7706c1e632a9513906112079085815260200190565b60405180910390a15f9450505050505b92915050565b50565b801561121d576040515f9033905f1990849084818181858888f193505050503d805f8114611269576040519150601f19603f3d011682016040523d82523d5f602084013e61126e565b606091505b5050505050565b600454600160b01b900460ff1661129f576040516327406db960e01b815260040160405180910390fd5b60055442106110d657604051630fe82d2560e11b815260040160405180910390fd5b600454600160a81b900460ff16156110d657604051633fbd4e2360e11b815260040160405180910390fd5b60021960ff8416016113995760048110611399575f61130e6004828486611d65565b61131791611d8c565b90506001600160e01b0319811663a9059cbb60e01b1480159061134b57506001600160e01b031981166323b872dd60e01b14155b6113975760405162461bcd60e51b815260206004820152601d60248201527f446f6373207661756c743a207472616e736665727320626c6f636b65640000006044820152606401610705565b505b60041960ff841601611453578015806113d757506370a0823160e01b6113c260045f8486611d65565b6113cb91611d8c565b6001600160e01b031916145b8061140757506318160ddd60e01b6113f260045f8486611d65565b6113fb91611d8c565b6001600160e01b031916145b6114535760405162461bcd60e51b815260206004820152601c60248201527f4c6564676572207661756c743a2077726974657320626c6f636b6564000000006044820152606401610705565b50505050565b306001600160a01b037f00000000000000000000000000000000000000000000000000000000000000001614806114df57507f00000000000000000000000000000000000000000000000000000000000000006001600160a01b03166114d35f80516020611dbd833981519152546001600160a01b031690565b6001600160a01b031614155b156110d65760405163703e46dd60e11b815260040160405180910390fd5b6001546001600160a01b0316331461121d57604051630762163b60e31b815260040160405180910390fd5b816001600160a01b03166352d1902d6040518163ffffffff1660e01b8152600401602060405180830381865afa925050508015611582575060408051601f3d908101601f1916820190925261157f91810190611cad565b60015b6115aa57604051634c9c8ce360e01b81526001600160a01b0383166004820152602401610705565b5f80516020611dbd83398151915281146115da57604051632a87526960e21b815260048101829052602401610705565b6115e4838361165a565b505050565b306001600160a01b037f000000000000000000000000000000000000000000000000000000000000000016146110d65760405163703e46dd60e11b815260040160405180910390fd5b5f807ff0c57e16840df040f15088dc2f81fe391c3923bec73e23a9662efc9c229c6a00611217565b611663826116af565b6040516001600160a01b038316907fbc7cd75a20ee27fd9adebab32041f755214dbc6bffa90cc0225b39da2e5c2d3b905f90a28051156116a7576115e48282611712565b61094c6117b2565b806001600160a01b03163b5f036116e457604051634c9c8ce360e01b81526001600160a01b0382166004820152602401610705565b5f80516020611dbd83398151915280546001600160a01b0319166001600160a01b0392909216919091179055565b60605f61171f84846117d1565b905080801561174057505f3d118061174057505f846001600160a01b03163b115b156117555761174d6117e4565b915050611217565b801561177f57604051639996b31560e01b81526001600160a01b0385166004820152602401610705565b3d156117925761178d6117fd565b6117ab565b60405163d6bda27560e01b815260040160405180910390fd5b5092915050565b34156110d65760405163b398979f60e01b815260040160405180910390fd5b5f805f835160208501865af49392505050565b6040513d81523d5f602083013e3d602001810160405290565b6040513d5f823e3d81fd5b5f8083601f840112611818575f80fd5b50813567ffffffffffffffff81111561182f575f80fd5b602083019150836020828501011115611846575f80fd5b9250929050565b5f806020838503121561185e575f80fd5b823567ffffffffffffffff811115611874575f80fd5b61188085828601611808565b90969095509350505050565b5f805f6060848603121561189e575f80fd5b833567ffffffffffffffff8111156118b4575f80fd5b840161012081870312156118c6575f80fd5b95602085013595506040909401359392505050565b5f8083601f8401126118eb575f80fd5b50813567ffffffffffffffff811115611902575f80fd5b6020830191508360208260051b8501011115611846575f80fd5b5f805f805f8060608789031215611931575f80fd5b863567ffffffffffffffff80821115611948575f80fd5b6119548a838b016118db565b9098509650602089013591508082111561196c575f80fd5b6119788a838b016118db565b90965094506040890135915080821115611990575f80fd5b5061199d89828a016118db565b979a9699509497509295939492505050565b80356001600160a01b03811681146119c5575f80fd5b919050565b634e487b7160e01b5f52604160045260245ffd5b5f82601f8301126119ed575f80fd5b813567ffffffffffffffff80821115611a0857611a086119ca565b604051601f8301601f19908116603f01168101908282118183101715611a3057611a306119ca565b81604052838152866020858801011115611a48575f80fd5b836020870160208301375f602085830101528094505050505092915050565b5f8060408385031215611a78575f80fd5b611a81836119af565b9150602083013567ffffffffffffffff811115611a9c575f80fd5b611aa8858286016119de565b9150509250929050565b803560ff811681146119c5575f80fd5b5f805f805f8060c08789031215611ad7575f80fd5b611ae0876119af565b95506020870135945060408701359350611afc606088016119af565b9250611b0a60808801611ab2565b9150611b1860a088016119af565b90509295509295509295565b5f60208284031215611b34575f80fd5b61069e826119af565b5f8060408385031215611b4e575f80fd5b611b57836119af565b9150611b6560208401611ab2565b90509250929050565b5f81518084525f5b81811015611b9257602081850181015186830182015201611b76565b505f602082860101526020601f19601f83011685010191505092915050565b602081525f61069e6020830184611b6e565b5f805f8060608587031215611bd6575f80fd5b611bdf856119af565b935060208501359250604085013567ffffffffffffffff811115611c01575f80fd5b611c0d87828801611808565b95989497509550505050565b60208152816020820152818360408301375f818301604090810191909152601f909201601f19160101919050565b634e487b7160e01b5f52603260045260245ffd5b5f808335601e19843603018112611c70575f80fd5b83018035915067ffffffffffffffff821115611c8a575f80fd5b602001915036819003821315611846575f80fd5b818382375f9101908152919050565b5f60208284031215611cbd575f80fd5b5051919050565b5f805f60608486031215611cd6575f80fd5b8335925060208401359150604084013567ffffffffffffffff811115611cfa575f80fd5b611d06868287016119de565b9150509250925092565b84815260018060a01b0384166020820152826040820152608060608201525f611d3c6080830184611b6e565b9695505050505050565b5f60208284031215611d56575f80fd5b8151801515811461069e575f80fd5b5f8085851115611d73575f80fd5b83861115611d7f575f80fd5b5050820193919092039150565b6001600160e01b03198135818116916004851015611db45780818660040360031b1b83161692505b50509291505056fe360894a13ba1a3210667c828492db98dca3e2076cc3735a920a3ca505d382bbca2646970667358221220d4e18478bdc55279eaab7dcfd2e3f47d53de6b7a7a03da5183122ee900eab94364736f6c63430008180033",
  "linkReferences": {},
  "deployedLinkReferences": {}
}