{
  "_format": "hh-sol-artifact-1",
  "contractName": "ZKVerifier",
  "sourceName": "contracts/verifiers/ZKVerifier.sol",
  "abi": [
    {
      "inputs": [
        {
          "internalType": "address",
          "name": "initialOwner",
          "type": "address"
        }
      ],
      "stateMutability": "nonpayable",
      "type": "constructor"
    },
    {
      "inputs": [
        {
          "internalType": "address",
          "name": "owner",
          "type": "address"
        }
      ],
      "name": "OwnableInvalidOwner",
      "type": "error"
    },
    {
      "inputs": [
        {
          "internalType": "address",
          "name": "account",
          "type": "address"
        }
      ],
      "name": "OwnableUnauthorizedAccount",
      "type": "error"
    },
    {
      "anonymous": false,
      "inputs": [
        {
          "indexed": true,
          "internalType": "address",
          "name": "previousOwner",
          "type": "address"
        },
        {
          "indexed": true,
          "internalType": "address",
          "name": "newOwner",
          "type": "address"
        }
      ],
      "name": "OwnershipTransferred",
      "type": "event"
    },
    {
      "anonymous": false,
      "inputs": [
        {
          "indexed": true,
          "internalType": "bytes32",
          "name": "nftMint",
          "type": "bytes32"
        },
        {
          "indexed": true,
          "internalType": "address",
          "name": "owner",
          "type": "address"
        },
        {
          "indexed": false,
          "internalType": "uint256",
          "name": "expiry",
          "type": "uint256"
        }
      ],
      "name": "OwnershipVerified",
      "type": "event"
    },
    {
      "anonymous": false,
      "inputs": [
        {
          "indexed": true,
          "internalType": "address",
          "name": "signer",
          "type": "address"
        },
        {
          "indexed": false,
          "internalType": "bool",
          "name": "approved",
          "type": "bool"
        }
      ],
      "name": "SignerUpdated",
      "type": "event"
    },
    {
      "inputs": [],
      "name": "isActive",
      "outputs": [
        {
          "internalType": "bool",
          "name": "",
          "type": "bool"
        }
      ],
      "stateMutability": "view",
      "type": "function"
    },
    {
      "inputs": [
        {
          "internalType": "bytes32",
          "name": "nftMint",
          "type": "bytes32"
        }
      ],
      "name": "lastVerifiedAt",
      "outputs": [
        {
          "internalType": "uint256",
          "name": "",
          "type": "uint256"
        }
      ],
      "stateMutability": "view",
      "type": "function"
    },
    {
      "inputs": [
        {
          "internalType": "bytes32",
          "name": "nftMint",
          "type": "bytes32"
        }
      ],
      "name": "lastVerifiedOwner",
      "outputs": [
        {
          "internalType": "address",
          "name": "",
          "type": "address"
        }
      ],
      "stateMutability": "view",
      "type": "function"
    },
    {
      "inputs": [],
      "name": "latestSlot",
      "outputs": [
        {
          "internalType": "uint64",
          "name": "",
          "type": "uint64"
        }
      ],
      "stateMutability": "view",
      "type": "function"
    },
    {
      "inputs": [],
      "name": "latestStateRoot",
      "outputs": [
        {
          "internalType": "bytes32",
          "name": "",
          "type": "bytes32"
        }
      ],
      "stateMutability": "view",
      "type": "function"
    },
    {
      "inputs": [],
      "name": "owner",
      "outputs": [
        {
          "internalType": "address",
          "name": "",
          "type": "address"
        }
      ],
      "stateMutability": "view",
      "type": "function"
    },
    {
      "inputs": [],
      "name": "renounceOwnership",
      "outputs": [],
      "stateMutability": "nonpayable",
      "type": "function"
    },
    {
      "inputs": [
        {
          "internalType": "bool",
          "name": "active",
          "type": "bool"
        }
      ],
      "name": "setActive",
      "outputs": [],
      "stateMutability": "nonpayable",
      "type": "function"
    },
    {
      "inputs": [
        {
          "internalType": "uint64",
          "name": "",
          "type": "uint64"
        }
      ],
      "name": "slotRoots",
      "outputs": [
        {
          "internalType": "bytes32",
          "name": "",
          "type": "bytes32"
        }
      ],
      "stateMutability": "view",
      "type": "function"
    },
    {
      "inputs": [
        {
          "internalType": "uint64",
          "name": "slot",
          "type": "uint64"
        },
        {
          "internalType": "bytes32",
          "name": "stateRoot",
          "type": "bytes32"
        }
      ],
      "name": "submitHeader",
      "outputs": [],
      "stateMutability": "nonpayable",
      "type": "function"
    },
    {
      "inputs": [
        {
          "internalType": "address",
          "name": "newOwner",
          "type": "address"
        }
      ],
      "name": "transferOwnership",
      "outputs": [],
      "stateMutability": "nonpayable",
      "type": "function"
    },
    {
      "inputs": [
        {
          "internalType": "bytes32",
          "name": "",
          "type": "bytes32"
        },
        {
          "internalType": "address",
          "name": "",
          "type": "address"
        },
        {
          "internalType": "uint256",
          "name": "",
          "type": "uint256"
        },
        {
          "internalType": "bytes",
          "name": "",
          "type": "bytes"
        }
      ],
      "name": "verifyAccess",
      "outputs": [
        {
          "internalType": "bool",
          "name": "",
          "type": "bool"
        }
      ],
      "stateMutability": "pure",
      "type": "function"
    }
  ],
  "bytecode": "0x608060405234801561000f575f80fd5b5060405161068638038061068683398101604081905261002e916100c5565b806001600160a01b03811661005c57604051631e4fbdf760e01b81525f600482015260240160405180910390fd5b61006581610076565b50506005805460ff191690556100f2565b5f80546001600160a01b038381166001600160a01b0319831681178455604051919092169283917f8be0079c531659141344cd1fd0a4f28419497f9722a3daafe3b4186f6b6457e09190a35050565b5f602082840312156100d5575f80fd5b81516001600160a01b03811681146100eb575f80fd5b9392505050565b610587806100ff5f395ff3fe608060405234801561000f575f80fd5b50600436106100b1575f3560e01c8063991beafd1161006e578063991beafd14610151578063acec338a14610168578063bb034d361461017b578063d71aa9db1461019a578063dfa2d9f0146101b9578063f2fde38b146101ec575f80fd5b806322f3e2d4146100b55780633d4b7596146100d1578063410fbdda146100e6578063478846cb14610126578063715018a6146101395780638da5cb5b14610141575b5f80fd5b60055460ff165b60405190151581526020015b60405180910390f35b6100e46100df366004610418565b6101ff565b005b61010e6100f4366004610440565b5f908152600360205260409020546001600160a01b031690565b6040516001600160a01b0390911681526020016100c8565b6100bc61013436600461046d565b6102af565b6100e4610316565b5f546001600160a01b031661010e565b61015a60015481565b6040519081526020016100c8565b6100e46101763660046104f9565b610329565b61015a61018936600461051f565b60026020525f908152604090205481565b61015a6101a8366004610440565b5f9081526004602052604090205490565b5f546101d390600160a01b900467ffffffffffffffff1681565b60405167ffffffffffffffff90911681526020016100c8565b6100e46101fa366004610538565b610344565b610207610381565b5f5467ffffffffffffffff600160a01b9091048116908316116102715760405162461bcd60e51b815260206004820152601a60248201527f5a4b56657269666965723a20736c6f74206e6f74206e6577657200000000000060448201526064015b60405180910390fd5b5f805467ffffffffffffffff60a01b1916600160a01b67ffffffffffffffff9490941693840217815560018290559182526002602052604090912055565b60405162461bcd60e51b815260206004820152603460248201527f5a4b56657269666965723a206e6f742079657420696d706c656d656e7465642060448201527316903ab9b29027b930b1b632ab32b934b334b2b960611b60648201525f90608401610268565b61031e610381565b6103275f6103ad565b565b610331610381565b6005805460ff1916911515919091179055565b61034c610381565b6001600160a01b03811661037557604051631e4fbdf760e01b81525f6004820152602401610268565b61037e816103ad565b50565b5f546001600160a01b031633146103275760405163118cdaa760e01b8152336004820152602401610268565b5f80546001600160a01b038381166001600160a01b0319831681178455604051919092169283917f8be0079c531659141344cd1fd0a4f28419497f9722a3daafe3b4186f6b6457e09190a35050565b803567ffffffffffffffff81168114610413575f80fd5b919050565b5f8060408385031215610429575f80fd5b610432836103fc565b946020939093013593505050565b5f60208284031215610450575f80fd5b5035919050565b80356001600160a01b0381168114610413575f80fd5b5f805f805f60808688031215610481575f80fd5b8535945061049160208701610457565b935060408601359250606086013567ffffffffffffffff808211156104b4575f80fd5b818801915088601f8301126104c7575f80fd5b8135818111156104d5575f80fd5b8960208285010111156104e6575f80fd5b9699959850939650602001949392505050565b5f60208284031215610509575f80fd5b81358015158114610518575f80fd5b9392505050565b5f6020828403121561052f575f80fd5b610518826103fc565b5f60208284031215610548575f80fd5b6105188261045756fea2646970667358221220b66523593f99689b51d2cf3979e4279fa4644b19dde37261e2aec701aeb2437f64736f6c63430008180033",
  "linkReferences": {},
  "deployedLinkReferences": {}
}