{
  "_format": "hh-sol-artifact-1",
  "contractName": "ZKVerifier",
  "sourceName": "contracts/verifiers/ZKVerifier.sol",
  "abi": [
    {
      "inputs": [
        {
          "internalType": "address",
          "name": "initialOwner",
          "type": "address"
        }
      ],
      "stateMutability": "nonpayable",
      "type": "constructor"
    },
    {
      "inputs": [
        {
          "internalType": "address",
          "name": "owner",
          "type": "address"
        }
      ],
      "name": "OwnableInvalidOwner",
      "type": "error"
    },
    {
      "inputs": [
        {
          "internalType": "address",
          "name": "account",
          "type": "address"
        }
      ],
      "name": "OwnableUnauthorizedAccount",
      "type": "error"
    },
    {
      "anonymous": false,
      "inputs": [
        {
          "indexed": true,
          "internalType": "address",
          "name": "previousOwner",
          "type": "address"
        },
        {
          "indexed": true,
          "internalType": "address",
          "name": "newOwner",
          "type": "address"
        }
      ],
      "name": "OwnershipTransferred",
      "type": "event"
    },
    {
      "anonymous": false,
      "inputs": [
        {
          "indexed": true,
          "internalType": "bytes32",
          "name": "nftMint",
          "type": "bytes32"
        },
        {
          "indexed": true,
          "internalType": "bytes32",
          "name": "owner",
          "type": "bytes32"
        },
        {
          "indexed": false,
          "internalType": "uint256",
          "name": "expiry",
          "type": "uint256"
        }
      ],
      "name": "OwnershipVerified",
      "type": "event"
    },
    {
      "anonymous": false,
      "inputs": [
        {
          "indexed": true,
          "internalType": "address",
          "name": "signer",
          "type": "address"
        },
        {
          "indexed": false,
          "internalType": "bool",
          "name": "approved",
          "type": "bool"
        }
      ],
      "name": "SignerUpdated",
      "type": "event"
    },
    {
      "inputs": [],
      "name": "isActive",
      "outputs": [
        {
          "internalType": "bool",
          "name": "",
          "type": "bool"
        }
      ],
      "stateMutability": "view",
      "type": "function"
    },
    {
      "inputs": [
        {
          "internalType": "bytes32",
          "name": "nftMint",
          "type": "bytes32"
        }
      ],
      "name": "lastVerifiedAt",
      "outputs": [
        {
          "internalType": "uint256",
          "name": "",
          "type": "uint256"
        }
      ],
      "stateMutability": "view",
      "type": "function"
    },
    {
      "inputs": [
        {
          "internalType": "bytes32",
          "name": "nftMint",
          "type": "bytes32"
        }
      ],
      "name": "lastVerifiedOwner",
      "outputs": [
        {
          "internalType": "bytes32",
          "name": "",
          "type": "bytes32"
        }
      ],
      "stateMutability": "view",
      "type": "function"
    },
    {
      "inputs": [],
      "name": "latestSlot",
      "outputs": [
        {
          "internalType": "uint64",
          "name": "",
          "type": "uint64"
        }
      ],
      "stateMutability": "view",
      "type": "function"
    },
    {
      "inputs": [],
      "name": "latestStateRoot",
      "outputs": [
        {
          "internalType": "bytes32",
          "name": "",
          "type": "bytes32"
        }
      ],
      "stateMutability": "view",
      "type": "function"
    },
    {
      "inputs": [],
      "name": "owner",
      "outputs": [
        {
          "internalType": "address",
          "name": "",
          "type": "address"
        }
      ],
      "stateMutability": "view",
      "type": "function"
    },
    {
      "inputs": [],
      "name": "renounceOwnership",
      "outputs": [],
      "stateMutability": "nonpayable",
      "type": "function"
    },
    {
      "inputs": [
        {
          "internalType": "bool",
          "name": "active",
          "type": "bool"
        }
      ],
      "name": "setActive",
      "outputs": [],
      "stateMutability": "nonpayable",
      "type": "function"
    },
    {
      "inputs": [
        {
          "internalType": "uint64",
          "name": "",
          "type": "uint64"
        }
      ],
      "name": "slotRoots",
      "outputs": [
        {
          "internalType": "bytes32",
          "name": "",
          "type": "bytes32"
        }
      ],
      "stateMutability": "view",
      "type": "function"
    },
    {
      "inputs": [
        {
          "internalType": "uint64",
          "name": "slot",
          "type": "uint64"
        },
        {
          "internalType": "bytes32",
          "name": "stateRoot",
          "type": "bytes32"
        }
      ],
      "name": "submitHeader",
      "outputs": [],
      "stateMutability": "nonpayable",
      "type": "function"
    },
    {
      "inputs": [
        {
          "internalType": "address",
          "name": "newOwner",
          "type": "address"
        }
      ],
      "name": "transferOwnership",
      "outputs": [],
      "stateMutability": "nonpayable",
      "type": "function"
    },
    {
      "inputs": [
        {
          "internalType": "bytes32",
          "name": "",
          "type": "bytes32"
        },
        {
          "internalType": "bytes32",
          "name": "",
          "type": "bytes32"
        },
        {
          "internalType": "bytes",
          "name": "",
          "type": "bytes"
        },
        {
          "internalType": "uint256",
          "name": "",
          "type": "uint256"
        }
      ],
      "name": "verifyAccess",
      "outputs": [
        {
          "internalType": "bool",
          "name": "",
          "type": "bool"
        }
      ],
      "stateMutability": "pure",
      "type": "function"
    }
  ],
  "bytecode": "0x608060405234801561000f575f80fd5b5060405161065a38038061065a83398101604081905261002e916100c5565b806001600160a01b03811661005c57604051631e4fbdf760e01b81525f600482015260240160405180910390fd5b61006581610076565b50506005805460ff191690556100f2565b5f80546001600160a01b038381166001600160a01b0319831681178455604051919092169283917f8be0079c531659141344cd1fd0a4f28419497f9722a3daafe3b4186f6b6457e09190a35050565b5f602082840312156100d5575f80fd5b81516001600160a01b03811681146100eb575f80fd5b9392505050565b61055b806100ff5f395ff3fe608060405234801561000f575f80fd5b50600436106100b1575f3560e01c8063991beafd1161006e578063991beafd14610148578063acec338a14610151578063bb034d3614610164578063d71aa9db14610183578063dfa2d9f0146101a2578063f2fde38b146101d5575f80fd5b806322f3e2d4146100b55780633d4b7596146100d1578063410fbdda146100e65780634ee1949c14610113578063715018a6146101265780638da5cb5b1461012e575b5f80fd5b60055460ff165b60405190151581526020015b60405180910390f35b6100e46100df366004610401565b6101e8565b005b6101056100f4366004610429565b5f9081526003602052604090205490565b6040519081526020016100c8565b6100bc610121366004610440565b610298565b6100e46102ff565b5f546040516001600160a01b0390911681526020016100c8565b61010560015481565b6100e461015f3660046104c0565b610312565b6101056101723660046104e6565b60026020525f908152604090205481565b610105610191366004610429565b5f9081526004602052604090205490565b5f546101bc90600160a01b900467ffffffffffffffff1681565b60405167ffffffffffffffff90911681526020016100c8565b6100e46101e33660046104ff565b61032d565b6101f061036a565b5f5467ffffffffffffffff600160a01b90910481169083161161025a5760405162461bcd60e51b815260206004820152601a60248201527f5a4b56657269666965723a20736c6f74206e6f74206e6577657200000000000060448201526064015b60405180910390fd5b5f805467ffffffffffffffff60a01b1916600160a01b67ffffffffffffffff9490941693840217815560018290559182526002602052604090912055565b60405162461bcd60e51b815260206004820152603460248201527f5a4b56657269666965723a206e6f742079657420696d706c656d656e7465642060448201527316903ab9b29027b930b1b632ab32b934b334b2b960611b60648201525f90608401610251565b61030761036a565b6103105f610396565b565b61031a61036a565b6005805460ff1916911515919091179055565b61033561036a565b6001600160a01b03811661035e57604051631e4fbdf760e01b81525f6004820152602401610251565b61036781610396565b50565b5f546001600160a01b031633146103105760405163118cdaa760e01b8152336004820152602401610251565b5f80546001600160a01b038381166001600160a01b0319831681178455604051919092169283917f8be0079c531659141344cd1fd0a4f28419497f9722a3daafe3b4186f6b6457e09190a35050565b803567ffffffffffffffff811681146103fc575f80fd5b919050565b5f8060408385031215610412575f80fd5b61041b836103e5565b946020939093013593505050565b5f60208284031215610439575f80fd5b5035919050565b5f805f805f60808688031215610454575f80fd5b8535945060208601359350604086013567ffffffffffffffff80821115610479575f80fd5b818801915088601f83011261048c575f80fd5b81358181111561049a575f80fd5b8960208285010111156104ab575f80fd5b96999598505060200195606001359392505050565b5f602082840312156104d0575f80fd5b813580151581146104df575f80fd5b9392505050565b5f602082840312156104f6575f80fd5b6104df826103e5565b5f6020828403121561050f575f80fd5b81356001600160a01b03811681146104df575f80fdfea26469706673582212201102f4c5dbf374560a60d7727e5804c9e0472575edd7cd004402441a3892713264736f6c63430008180033",
  "linkReferences": {},
  "deployedLinkReferences": {}
}