{
  "_format": "hh-sol-artifact-1",
  "contractName": "UserOperationLib",
  "sourceName": "@account-abstraction/contracts/core/UserOperationLib.sol",
  "abi": [
    {
      "inputs": [],
      "name": "PAYMASTER_DATA_OFFSET",
      "outputs": [
        {
          "internalType": "uint256",
          "name": "",
          "type": "uint256"
        }
      ],
      "stateMutability": "view",
      "type": "function"
    },
    {
      "inputs": [],
      "name": "PAYMASTER_POSTOP_GAS_OFFSET",
      "outputs": [
        {
          "internalType": "uint256",
          "name": "",
          "type": "uint256"
        }
      ],
      "stateMutability": "view",
      "type": "function"
    },
    {
      "inputs": [],
      "name": "PAYMASTER_VALIDATION_GAS_OFFSET",
      "outputs": [
        {
          "internalType": "uint256",
          "name": "",
          "type": "uint256"
        }
      ],
      "stateMutability": "view",
      "type": "function"
    }
  ],
  "bytecode": "0x60a7610034600b8282823980515f1a60731461002857634e487b7160e01b5f525f60045260245ffd5b305f52607381538281f3fe73000000000000000000000000000000000000000030146080604052600436106046575f3560e01c806325093e1b14604a578063b29a8ff4146063578063ede3150214606a575b5f80fd5b6051602481565b60405190815260200160405180910390f35b6051601481565b605160348156fea2646970667358221220c4a747037a192b2b217e82aef42f5cc00719694cfcb62079e4726fe30c77af4a64736f6c63430008180033",
  "linkReferences": {},
  "deployedLinkReferences": {}
}