{"contracts/VaultFactory.sol":{"VaultFactory":{"abi":[{"inputs":[{"internalType":"contract IEntryPoint","name":"_entryPoint","type":"address"},{"internalType":"address","name":"_owner","type":"address"}],"stateMutability":"nonpayable","type":"constructor"},{"inputs":[],"name":"FailedDeployment","type":"error"},{"inputs":[{"internalType":"uint256","name":"balance","type":"uint256"},{"internalType":"uint256","name":"needed","type":"uint256"}],"name":"InsufficientBalance","type":"error"},{"anonymous":false,"inputs":[{"indexed":true,"internalType":"address","name":"caller","type":"address"}],"name":"CallerAuthorized","type":"event"},{"anonymous":false,"inputs":[{"indexed":true,"internalType":"address","name":"caller","type":"address"}],"name":"CallerRevoked","type":"event"},{"anonymous":false,"inputs":[{"indexed":true,"internalType":"address","name":"vault","type":"address"},{"indexed":true,"internalType":"address","name":"locker","type":"address"},{"indexed":false,"internalType":"uint256","name":"slotIndex","type":"uint256"},{"indexed":false,"internalType":"bytes32","name":"nftMint","type":"bytes32"}],"name":"VaultDeployed","type":"event"},{"inputs":[{"internalType":"address","name":"caller","type":"address"}],"name":"authorizeCaller","outputs":[],"stateMutability":"nonpayable","type":"function"},{"inputs":[{"internalType":"address","name":"","type":"address"}],"name":"authorizedCallers","outputs":[{"internalType":"bool","name":"","type":"bool"}],"stateMutability":"view","type":"function"},{"inputs":[{"internalType":"address","name":"locker","type":"address"},{"internalType":"uint256","name":"slotIndex","type":"uint256"},{"internalType":"bytes32","name":"nftMint","type":"bytes32"},{"internalType":"address","name":"signingWallet","type":"address"},{"internalType":"uint8","name":"securityMode","type":"uint8"},{"internalType":"address","name":"verifier","type":"address"}],"name":"deployVault","outputs":[{"internalType":"address","name":"vault","type":"address"}],"stateMutability":"nonpayable","type":"function"},{"inputs":[],"name":"entryPoint","outputs":[{"internalType":"contract IEntryPoint","name":"","type":"address"}],"stateMutability":"view","type":"function"},{"inputs":[],"name":"owner","outputs":[{"internalType":"address","name":"","type":"address"}],"stateMutability":"view","type":"function"},{"inputs":[{"internalType":"address","name":"locker","type":"address"},{"internalType":"uint256","name":"slotIndex","type":"uint256"},{"internalType":"bytes32","name":"nftMint","type":"bytes32"},{"internalType":"address","name":"signingWallet","type":"address"}],"name":"predictVaultAddress","outputs":[{"internalType":"address","name":"","type":"address"}],"stateMutability":"view","type":"function"},{"inputs":[{"internalType":"address","name":"caller","type":"address"}],"name":"revokeCaller","outputs":[],"stateMutability":"nonpayable","type":"function"},{"inputs":[{"internalType":"address","name":"newOwner","type":"address"}],"name":"transferOwnership","outputs":[],"stateMutability":"nonpayable","type":"function"},{"inputs":[],"name":"vaultImplementation","outputs":[{"internalType":"address","name":"","type":"address"}],"stateMutability":"view","type":"function"}],"evm":{"bytecode":{"linkReferences":{},"object":"60c060405234801561000f575f80fd5b5060405161288338038061288383398101604081905261002e916100e3565b6001600160a01b0382811660a0525f80546001600160a01b0319169183169190911781556040518390610060906100bf565b6001600160a01b039091168152602001604051809103905ff080158015610089573d5f803e3d5ffd5b506001600160a01b03908116608052919091165f908152600160208190526040909120805460ff191690911790555061011b9050565b611f8f806108f483390190565b6001600160a01b03811681146100e0575f80fd5b50565b5f80604083850312156100f4575f80fd5b82516100ff816100cc565b6020840151909250610110816100cc565b809150509250929050565b60805160a0516107a36101515f395f61012201525f818161015c0152818161022a01528181610339015261037f01526107a35ff3fe608060405234801561000f575f80fd5b5060043610610090575f3560e01c8063b0d691fe11610063578063b0d691fe1461011d578063b774353014610144578063bba48a9014610157578063e31776521461017e578063f2fde38b14610191575f80fd5b80632c388d5d14610094578063536fff6c146100a95780636986244d146100e05780638da5cb5b1461010b575b5f80fd5b6100a76100a2366004610685565b6101a4565b005b6100cb6100b7366004610685565b60016020525f908152604090205460ff1681565b60405190151581526020015b60405180910390f35b6100f36100ee36600461069e565b610224565b6040516001600160a01b0390911681526020016100d7565b5f546100f3906001600160a01b031681565b6100f37f000000000000000000000000000000000000000000000000000000000000000081565b6100a7610152366004610685565b610264565b6100f37f000000000000000000000000000000000000000000000000000000000000000081565b6100f361018c3660046106e1565b6102d5565b6100a761019f366004610685565b61047a565b5f546001600160a01b031633146101d65760405162461bcd60e51b81526004016101cd9061074a565b60405180910390fd5b6001600160a01b0381165f818152600160208190526040808320805460ff1916909217909155517f6acfd92212f0ec670af78f8ba2273e4a85ac17023475650c25be0440602bff2d9190a250565b5f61025b7f000000000000000000000000000000000000000000000000000000000000000061025587878787610504565b3061055d565b95945050505050565b5f546001600160a01b0316331461028d5760405162461bcd60e51b81526004016101cd9061074a565b6001600160a01b0381165f81815260016020526040808220805460ff19169055517f0491b0192bae7692618bfa4eff3f4942d2d8ec3300ef2e63d325b45e937c4ff19190a250565b335f9081526001602052604081205460ff166103245760405162461bcd60e51b815260206004820152600e60248201526d139bdd08185d5d1a1bdc9a5e995960921b60448201526064016101cd565b5f61033188888888610504565b90505f61035f7f0000000000000000000000000000000000000000000000000000000000000000833061055d565b90506001600160a01b0381163b1561037a5791506104709050565b6103a47f0000000000000000000000000000000000000000000000000000000000000000836105c2565b604051632a85537960e11b81526001600160a01b038b81166004830152602482018b9052604482018a9052888116606483015260ff8816608483015286811660a48301529194509084169063550aa6f29060c4015f604051808303815f87803b15801561040f575f80fd5b505af1158015610421573d5f803e3d5ffd5b5050604080518b8152602081018b90526001600160a01b03808e169450871692507f240fc14917e6e1554c81cfb539719a310c54751a7bfacbebcd20672d4d5fd0af910160405180910390a350505b9695505050505050565b5f546001600160a01b031633146104a35760405162461bcd60e51b81526004016101cd9061074a565b6001600160a01b0381166104e35760405162461bcd60e51b8152602060048201526007602482015266125b9d985b1a5960ca1b60448201526064016101cd565b5f80546001600160a01b0319166001600160a01b0392909216919091179055565b6040516bffffffffffffffffffffffff19606086811b82166020840152603483018690526054830185905283901b1660748201525f90608801604051602081830303815290604052805190602001209050949350505050565b60405160388101919091526f5af43d82803e903d91602b57fd5bf3ff60248201526014810192909252733d602d80600a3d3981f3363d3d373d3d3d363d73825260588201526037600c820120607882015260556043909101206001600160a01b031690565b5f6105ce83835f6105d5565b9392505050565b5f814710156106005760405163cf47918160e01b8152476004820152602481018390526044016101cd565b763d602d80600a3d3981f3363d3d373d3d3d363d730000008460601b60e81c175f526e5af43d82803e903d91602b57fd5bf38460781b17602052826037600984f590506001600160a01b0381166105ce5760405163b06ebf3d60e01b815260040160405180910390fd5b80356001600160a01b0381168114610680575f80fd5b919050565b5f60208284031215610695575f80fd5b6105ce8261066a565b5f805f80608085870312156106b1575f80fd5b6106ba8561066a565b935060208501359250604085013591506106d66060860161066a565b905092959194509250565b5f805f805f8060c087890312156106f6575f80fd5b6106ff8761066a565b9550602087013594506040870135935061071b6060880161066a565b9250608087013560ff81168114610730575f80fd5b915061073e60a0880161066a565b90509295509295509295565b6020808252600990820152682737ba1037bbb732b960b91b60408201526060019056fea26469706673582212204fed5ba962f744799814d356386778fc882fff9eb74fa40e059e194dd01957e464736f6c6343000818003360c06040523060805234801562000014575f80fd5b5060405162001f8f38038062001f8f833981016040819052620000379162000109565b6001600160a01b03811660a0526200004e62000055565b5062000138565b7ff0c57e16840df040f15088dc2f81fe391c3923bec73e23a9662efc9c229c6a00805468010000000000000000900460ff1615620000a65760405163f92ee8a960e01b815260040160405180910390fd5b80546001600160401b0390811614620001065780546001600160401b0319166001600160401b0390811782556040519081527fc7f505b2f371ae2175ee4913f4499e1f2633a7b5936321eed1cdaeb6115181d29060200160405180910390a15b50565b5f602082840312156200011a575f80fd5b81516001600160a01b038116811462000131575f80fd5b9392505050565b60805160a051611e126200017d5f395f81816104870152818161058601528181610fcc015261106901525f81816114640152818161148d01526115f40152611e125ff3fe6080604052600436106101d3575f3560e01c806392dd7b99116100fd578063c72cdfef11610092578063d9f1be5511610062578063d9f1be551461051d578063dc2a60f614610531578063dd4286951461021f578063fb2a59be14610551575f80fd5b8063c72cdfef146104ca578063cea26e4c146103b2578063d087d288146104e9578063d5d93a10146104fd575f80fd5b8063ad3cb1cc116100cd578063ad3cb1cc14610427578063ae565e1114610464578063b0d691fe14610479578063b61d27f6146104ab575f80fd5b806392dd7b99146103b2578063964cbf6a146103c6578063995143ef146103f45780639be0a71b14610408575f80fd5b80633675f29b1161017357806352d1902d1161014357806352d1902d1461034b578063550aa6f21461035f57806358bc29441461037e578063719414b41461039d575f80fd5b80633675f29b146102ca5780633b55e385146102e957806347e1da2a146103195780634f1ef28614610338575f80fd5b806312b226c9116101ae57806312b226c91461023357806313feaacd1461025657806319822f7c146102755780632b7ac3f314610294575f80fd5b806306f4bcbf146101de5780630917848d146101f45780630c7edb5d1461021f575f80fd5b366101da57005b5f80fd5b3480156101e9575f80fd5b506101f2610565565b005b3480156101ff575f80fd5b50610208600481565b60405160ff90911681526020015b60405180910390f35b34801561022a575f80fd5b50610208600281565b34801561023e575f80fd5b5061024860055481565b604051908152602001610216565b348015610261575f80fd5b506101f261027036600461184d565b610603565b348015610280575f80fd5b5061024861028f36600461188c565b610680565b34801561029f575f80fd5b505f546102b2906001600160a01b031681565b6040516001600160a01b039091168152602001610216565b3480156102d5575f80fd5b506001546102b2906001600160a01b031681565b3480156102f4575f80fd5b5060045461030990600160b01b900460ff1681565b6040519015158152602001610216565b348015610324575f80fd5b506101f261033336600461191c565b6106a5565b6101f2610346366004611a67565b610931565b348015610356575f80fd5b50610248610950565b34801561036a575f80fd5b506101f2610379366004611ac2565b61096b565b348015610389575f80fd5b506101f2610398366004611b24565b610c35565b3480156103a8575f80fd5b5061024860035481565b3480156103bd575f80fd5b50610208600181565b3480156103d1575f80fd5b506102086103e0366004611b24565b60066020525f908152604090205460ff1681565b3480156103ff575f80fd5b506101f2610cf7565b348015610413575f80fd5b506101f2610422366004611b3d565b610daa565b348015610432575f80fd5b50610457604051806040016040528060058152602001640352e302e360dc1b81525081565b6040516102169190611bb1565b34801561046f575f80fd5b5061024860025481565b348015610484575f80fd5b507f00000000000000000000000000000000000000000000000000000000000000006102b2565b3480156104b6575f80fd5b506101f26104c5366004611bc3565b610eb7565b3480156104d5575f80fd5b506004546102b2906001600160a01b031681565b3480156104f4575f80fd5b50610248610fc9565b348015610508575f80fd5b5060045461020890600160a01b900460ff1681565b348015610528575f80fd5b50610208600381565b34801561053c575f80fd5b5060045461030990600160a81b900460ff1681565b34801561055c575f80fd5b50610208600581565b6004546001600160a01b031633148015906105a95750336001600160a01b037f00000000000000000000000000000000000000000000000000000000000000001614155b156105c75760405163b5357b8f60e01b815260040160405180910390fd5b6004805460ff60b01b191690555f60058190556040517f9e4f5027adc4051ea8e8cb01bfcf333d6e85f1aa5d9e2e01fdff18e17c847acb9190a1565b6001546001600160a01b0316331461062e57604051630762163b60e31b815260040160405180910390fd5b6004805461ffff60a81b1916600160a81b1790556040517fb549bded4331f0939af765e1a24f49c4fc9c190e88e541c9e6861dd386907f3b906106749084908490611c19565b60405180910390a15050565b5f61068961105e565b61069384846110d8565b905061069e82611220565b9392505050565b6106ad61105e565b6106b5611275565b6106bd6112c1565b84831480156106cb57508481145b61070e5760405162461bcd60e51b815260206004820152600f60248201526e098cadccee8d040dad2e6dac2e8c6d608b1b60448201526064015b60405180910390fd5b5f5b85811015610928575f60065f89898581811061072e5761072e611c47565b90506020020160208101906107439190611b24565b6001600160a01b0316815260208101919091526040015f205460ff16905080156107bb576107bb88888481811061077c5761077c611c47565b90506020020160208101906107919190611b24565b828686868181106107a4576107a4611c47565b90506020028101906107b69190611c5b565b6112ec565b5f808989858181106107cf576107cf611c47565b90506020020160208101906107e49190611b24565b6001600160a01b03168888868181106107ff576107ff611c47565b9050602002013587878781811061081857610818611c47565b905060200281019061082a9190611c5b565b604051610838929190611c9e565b5f6040518083038185875af1925050503d805f8114610872576040519150601f19603f3d011682016040523d82523d5f602084013e610877565b606091505b50915091508161089c57806040516315fcd67560e01b81526004016107059190611bb1565b8989858181106108ae576108ae611c47565b90506020020160208101906108c39190611b24565b6001600160a01b03167f6f6c6d78a4851d4c222c8404fc92372ee84b7b81054305ae8ea3c83c2dabd42e8989878181106108ff576108ff611c47565b9050602002013560405161091591815260200190565b60405180910390a2505050600101610710565b50505050505050565b610939611459565b610942826114fd565b61094c8282611528565b5050565b5f6109596115e9565b505f80516020611dbd83398151915290565b5f610974611632565b805490915060ff600160401b820416159067ffffffffffffffff165f8115801561099b5750825b90505f8267ffffffffffffffff1660011480156109b75750303b155b9050811580156109c5575080155b156109e35760405163f92ee8a960e01b815260040160405180910390fd5b845467ffffffffffffffff191660011785558315610a0d57845460ff60401b1916600160401b1785555b6001600160a01b038b16610a545760405162461bcd60e51b815260206004820152600e60248201526d24b73b30b634b2103637b1b5b2b960911b6044820152606401610705565b6001600160a01b038816610a9b5760405162461bcd60e51b815260206004820152600e60248201526d24b73b30b634b21039b4b3b732b960911b6044820152606401610705565b6001600160a01b038616610ae45760405162461bcd60e51b815260206004820152601060248201526f24b73b30b634b2103b32b934b334b2b960811b6044820152606401610705565b60ff871660011480610af9575060ff87166002145b610b345760405162461bcd60e51b815260206004820152600c60248201526b496e76616c6964206d6f646560a01b6044820152606401610705565b600180546001600160a01b03808e166001600160a01b0319928316811790935560028d905560038c90556004805460ff8c16600160a01b026001600160a81b03199091168d8416171790555f8054918a16919092161790556040517f0362dfbc2163a6ffbf30f36e9776263e8397e9e0e957c5c16765fecd2d0b135090610bda908d908d908d9092835260208301919091526001600160a01b0316604082015260600190565b60405180910390a28315610c2857845460ff60401b19168555604051600181527fc7f505b2f371ae2175ee4913f4499e1f2633a7b5936321eed1cdaeb6115181d29060200160405180910390a15b5050505050505050505050565b6001546001600160a01b03163314610c6057604051630762163b60e31b815260040160405180910390fd5b6001600160a01b038116610ca75760405162461bcd60e51b815260206004820152600e60248201526d24b73b30b634b21039b4b3b732b960911b6044820152606401610705565b60048054600162ff000160a01b0319166001600160a01b0383169081179091555f60058190556040517fbbb5fb2ee7e707ae0c968f63e94211ea81e66a718c34e2f810a7619e5678a2179190a250565b6001546001600160a01b03163314610d2257604051630762163b60e31b815260040160405180910390fd5b600454600160a81b900460ff16610d735760405162461bcd60e51b81526020600482015260156024820152744e6f7420696e20726561642d6f6e6c79206d6f646560581b6044820152606401610705565b6004805460ff60a81b191690556040517fce529c8e386c3507a21070ecb409eecf1c31018e8f44c12728797935e7cd5529905f90a1565b610db261105e565b610dba611275565b6001600160a01b038216610e025760405162461bcd60e51b815260206004820152600f60248201526e496e76616c6964206164647265737360881b6044820152606401610705565b600160ff821610801590610e1a5750600560ff821611155b610e585760405162461bcd60e51b815260206004820152600f60248201526e496e76616c696420707572706f736560881b6044820152606401610705565b6001600160a01b0382165f81815260066020908152604091829020805460ff191660ff861690811790915591519182527fc2d7486efc2cbb21ab0b0e80a4d953cc19b26ccbb75b412812dc3c861f304291910160405180910390a25050565b610ebf61105e565b610ec7611275565b610ecf6112c1565b6001600160a01b0384165f9081526006602052604090205460ff168015610efc57610efc858285856112ec565b5f80866001600160a01b0316868686604051610f19929190611c9e565b5f6040518083038185875af1925050503d805f8114610f53576040519150601f19603f3d011682016040523d82523d5f602084013e610f58565b606091505b509150915081610f7d57806040516315fcd67560e01b81526004016107059190611bb1565b866001600160a01b03167f6f6c6d78a4851d4c222c8404fc92372ee84b7b81054305ae8ea3c83c2dabd42e87604051610fb891815260200190565b60405180910390a250505050505050565b5f7f0000000000000000000000000000000000000000000000000000000000000000604051631aab3f0d60e11b81523060048201525f60248201526001600160a01b0391909116906335567e1a90604401602060405180830381865afa158015611035573d5f803e3d5ffd5b505050506040513d601f19601f820116820180604052508101906110599190611cad565b905090565b336001600160a01b037f000000000000000000000000000000000000000000000000000000000000000016146110d65760405162461bcd60e51b815260206004820152601c60248201527f6163636f756e743a206e6f742066726f6d20456e747279506f696e74000000006044820152606401610705565b565b5f8080806110ea610100870187611c5b565b8101906110f79190611cc4565b92509250925060035483146111125760019350505050611217565b600454600160a81b900460ff16156111305760019350505050611217565b5f80546004805460405163478846cb60e01b81526001600160a01b039384169363478846cb93611169938a939216918991899101611d10565b6020604051808303815f875af1158015611185573d5f803e3d5ffd5b505050506040513d601f19601f820116820180604052508101906111a99190611d46565b9050806111bd576001945050505050611217565b6004805460ff60b01b1916600160b01b17905560058390556040517fb329a2518e512dc58360d4ecf87f490d2167e7171bb8a362e7706c1e632a9513906112079085815260200190565b60405180910390a15f9450505050505b92915050565b50565b801561121d576040515f9033905f1990849084818181858888f193505050503d805f8114611269576040519150601f19603f3d011682016040523d82523d5f602084013e61126e565b606091505b5050505050565b600454600160b01b900460ff1661129f576040516327406db960e01b815260040160405180910390fd5b60055442106110d657604051630fe82d2560e11b815260040160405180910390fd5b600454600160a81b900460ff16156110d657604051633fbd4e2360e11b815260040160405180910390fd5b60021960ff8416016113995760048110611399575f61130e6004828486611d65565b61131791611d8c565b90506001600160e01b0319811663a9059cbb60e01b1480159061134b57506001600160e01b031981166323b872dd60e01b14155b6113975760405162461bcd60e51b815260206004820152601d60248201527f446f6373207661756c743a207472616e736665727320626c6f636b65640000006044820152606401610705565b505b60041960ff841601611453578015806113d757506370a0823160e01b6113c260045f8486611d65565b6113cb91611d8c565b6001600160e01b031916145b8061140757506318160ddd60e01b6113f260045f8486611d65565b6113fb91611d8c565b6001600160e01b031916145b6114535760405162461bcd60e51b815260206004820152601c60248201527f4c6564676572207661756c743a2077726974657320626c6f636b6564000000006044820152606401610705565b50505050565b306001600160a01b037f00000000000000000000000000000000000000000000000000000000000000001614806114df57507f00000000000000000000000000000000000000000000000000000000000000006001600160a01b03166114d35f80516020611dbd833981519152546001600160a01b031690565b6001600160a01b031614155b156110d65760405163703e46dd60e11b815260040160405180910390fd5b6001546001600160a01b0316331461121d57604051630762163b60e31b815260040160405180910390fd5b816001600160a01b03166352d1902d6040518163ffffffff1660e01b8152600401602060405180830381865afa925050508015611582575060408051601f3d908101601f1916820190925261157f91810190611cad565b60015b6115aa57604051634c9c8ce360e01b81526001600160a01b0383166004820152602401610705565b5f80516020611dbd83398151915281146115da57604051632a87526960e21b815260048101829052602401610705565b6115e4838361165a565b505050565b306001600160a01b037f000000000000000000000000000000000000000000000000000000000000000016146110d65760405163703e46dd60e11b815260040160405180910390fd5b5f807ff0c57e16840df040f15088dc2f81fe391c3923bec73e23a9662efc9c229c6a00611217565b611663826116af565b6040516001600160a01b038316907fbc7cd75a20ee27fd9adebab32041f755214dbc6bffa90cc0225b39da2e5c2d3b905f90a28051156116a7576115e48282611712565b61094c6117b2565b806001600160a01b03163b5f036116e457604051634c9c8ce360e01b81526001600160a01b0382166004820152602401610705565b5f80516020611dbd83398151915280546001600160a01b0319166001600160a01b0392909216919091179055565b60605f61171f84846117d1565b905080801561174057505f3d118061174057505f846001600160a01b03163b115b156117555761174d6117e4565b915050611217565b801561177f57604051639996b31560e01b81526001600160a01b0385166004820152602401610705565b3d156117925761178d6117fd565b6117ab565b60405163d6bda27560e01b815260040160405180910390fd5b5092915050565b34156110d65760405163b398979f60e01b815260040160405180910390fd5b5f805f835160208501865af49392505050565b6040513d81523d5f602083013e3d602001810160405290565b6040513d5f823e3d81fd5b5f8083601f840112611818575f80fd5b50813567ffffffffffffffff81111561182f575f80fd5b602083019150836020828501011115611846575f80fd5b9250929050565b5f806020838503121561185e575f80fd5b823567ffffffffffffffff811115611874575f80fd5b61188085828601611808565b90969095509350505050565b5f805f6060848603121561189e575f80fd5b833567ffffffffffffffff8111156118b4575f80fd5b840161012081870312156118c6575f80fd5b95602085013595506040909401359392505050565b5f8083601f8401126118eb575f80fd5b50813567ffffffffffffffff811115611902575f80fd5b6020830191508360208260051b8501011115611846575f80fd5b5f805f805f8060608789031215611931575f80fd5b863567ffffffffffffffff80821115611948575f80fd5b6119548a838b016118db565b9098509650602089013591508082111561196c575f80fd5b6119788a838b016118db565b90965094506040890135915080821115611990575f80fd5b5061199d89828a016118db565b979a9699509497509295939492505050565b80356001600160a01b03811681146119c5575f80fd5b919050565b634e487b7160e01b5f52604160045260245ffd5b5f82601f8301126119ed575f80fd5b813567ffffffffffffffff80821115611a0857611a086119ca565b604051601f8301601f19908116603f01168101908282118183101715611a3057611a306119ca565b81604052838152866020858801011115611a48575f80fd5b836020870160208301375f602085830101528094505050505092915050565b5f8060408385031215611a78575f80fd5b611a81836119af565b9150602083013567ffffffffffffffff811115611a9c575f80fd5b611aa8858286016119de565b9150509250929050565b803560ff811681146119c5575f80fd5b5f805f805f8060c08789031215611ad7575f80fd5b611ae0876119af565b95506020870135945060408701359350611afc606088016119af565b9250611b0a60808801611ab2565b9150611b1860a088016119af565b90509295509295509295565b5f60208284031215611b34575f80fd5b61069e826119af565b5f8060408385031215611b4e575f80fd5b611b57836119af565b9150611b6560208401611ab2565b90509250929050565b5f81518084525f5b81811015611b9257602081850181015186830182015201611b76565b505f602082860101526020601f19601f83011685010191505092915050565b602081525f61069e6020830184611b6e565b5f805f8060608587031215611bd6575f80fd5b611bdf856119af565b935060208501359250604085013567ffffffffffffffff811115611c01575f80fd5b611c0d87828801611808565b95989497509550505050565b60208152816020820152818360408301375f818301604090810191909152601f909201601f19160101919050565b634e487b7160e01b5f52603260045260245ffd5b5f808335601e19843603018112611c70575f80fd5b83018035915067ffffffffffffffff821115611c8a575f80fd5b602001915036819003821315611846575f80fd5b818382375f9101908152919050565b5f60208284031215611cbd575f80fd5b5051919050565b5f805f60608486031215611cd6575f80fd5b8335925060208401359150604084013567ffffffffffffffff811115611cfa575f80fd5b611d06868287016119de565b9150509250925092565b84815260018060a01b0384166020820152826040820152608060608201525f611d3c6080830184611b6e565b9695505050505050565b5f60208284031215611d56575f80fd5b8151801515811461069e575f80fd5b5f8085851115611d73575f80fd5b83861115611d7f575f80fd5b5050820193919092039150565b6001600160e01b03198135818116916004851015611db45780818660040360031b1b83161692505b50509291505056fe360894a13ba1a3210667c828492db98dca3e2076cc3735a920a3ca505d382bbca2646970667358221220d4e18478bdc55279eaab7dcfd2e3f47d53de6b7a7a03da5183122ee900eab94364736f6c63430008180033","opcodes":"PUSH1 0xC0 PUSH1 0x40 MSTORE CALLVALUE DUP1 ISZERO PUSH2 0xF JUMPI PUSH0 DUP1 REVERT JUMPDEST POP PUSH1 0x40 MLOAD PUSH2 0x2883 CODESIZE SUB DUP1 PUSH2 0x2883 DUP4 CODECOPY DUP2 ADD PUSH1 0x40 DUP2 SWAP1 MSTORE PUSH2 0x2E SWAP2 PUSH2 0xE3 JUMP JUMPDEST PUSH1 0x1 PUSH1 0x1 PUSH1 0xA0 SHL SUB DUP3 DUP2 AND PUSH1 0xA0 MSTORE PUSH0 DUP1 SLOAD PUSH1 0x1 PUSH1 0x1 PUSH1 0xA0 SHL SUB NOT AND SWAP2 DUP4 AND SWAP2 SWAP1 SWAP2 OR DUP2 SSTORE PUSH1 0x40 MLOAD DUP4 SWAP1 PUSH2 0x60 SWAP1 PUSH2 0xBF JUMP JUMPDEST PUSH1 0x1 PUSH1 0x1 PUSH1 0xA0 SHL SUB SWAP1 SWAP2 AND DUP2 MSTORE PUSH1 0x20 ADD PUSH1 0x40 MLOAD DUP1 SWAP2 SUB SWAP1 PUSH0 CREATE DUP1 ISZERO DUP1 ISZERO PUSH2 0x89 JUMPI RETURNDATASIZE PUSH0 DUP1 RETURNDATACOPY RETURNDATASIZE PUSH0 REVERT JUMPDEST POP PUSH1 0x1 PUSH1 0x1 PUSH1 0xA0 SHL SUB SWAP1 DUP2 AND PUSH1 0x80 MSTORE SWAP2 SWAP1 SWAP2 AND PUSH0 SWAP1 DUP2 MSTORE PUSH1 0x1 PUSH1 0x20 DUP2 SWAP1 MSTORE PUSH1 0x40 SWAP1 SWAP2 KECCAK256 DUP1 SLOAD PUSH1 0xFF NOT AND SWAP1 SWAP2 OR SWAP1 SSTORE POP PUSH2 0x11B SWAP1 POP JUMP JUMPDEST PUSH2 0x1F8F DUP1 PUSH2 0x8F4 DUP4 CODECOPY ADD SWAP1 JUMP JUMPDEST PUSH1 0x1 PUSH1 0x1 PUSH1 0xA0 SHL SUB DUP2 AND DUP2 EQ PUSH2 0xE0 JUMPI PUSH0 DUP1 REVERT JUMPDEST POP JUMP JUMPDEST PUSH0 DUP1 PUSH1 0x40 DUP4 DUP6 SUB SLT ISZERO PUSH2 0xF4 JUMPI PUSH0 DUP1 REVERT JUMPDEST DUP3 MLOAD PUSH2 0xFF DUP2 PUSH2 0xCC JUMP JUMPDEST PUSH1 0x20 DUP5 ADD MLOAD SWAP1 SWAP3 POP PUSH2 0x110 DUP2 PUSH2 0xCC JUMP JUMPDEST DUP1 SWAP2 POP POP SWAP3 POP SWAP3 SWAP1 POP JUMP JUMPDEST PUSH1 0x80 MLOAD PUSH1 0xA0 MLOAD PUSH2 0x7A3 PUSH2 0x151 PUSH0 CODECOPY PUSH0 PUSH2 0x122 ADD MSTORE PUSH0 DUP2 DUP2 PUSH2 0x15C ADD MSTORE DUP2 DUP2 PUSH2 0x22A ADD MSTORE DUP2 DUP2 PUSH2 0x339 ADD MSTORE PUSH2 0x37F ADD MSTORE PUSH2 0x7A3 PUSH0 RETURN INVALID PUSH1 0x80 PUSH1 0x40 MSTORE CALLVALUE DUP1 ISZERO PUSH2 0xF JUMPI PUSH0 DUP1 REVERT JUMPDEST POP PUSH1 0x4 CALLDATASIZE LT PUSH2 0x90 JUMPI PUSH0 CALLDATALOAD PUSH1 0xE0 SHR DUP1 PUSH4 0xB0D691FE GT PUSH2 0x63 JUMPI DUP1 PUSH4 0xB0D691FE EQ PUSH2 0x11D JUMPI DUP1 PUSH4 0xB7743530 EQ PUSH2 0x144 JUMPI DUP1 PUSH4 0xBBA48A90 EQ PUSH2 0x157 JUMPI DUP1 PUSH4 0xE3177652 EQ PUSH2 0x17E JUMPI DUP1 PUSH4 0xF2FDE38B EQ PUSH2 0x191 JUMPI PUSH0 DUP1 REVERT JUMPDEST DUP1 PUSH4 0x2C388D5D EQ PUSH2 0x94 JUMPI DUP1 PUSH4 0x536FFF6C EQ PUSH2 0xA9 JUMPI DUP1 PUSH4 0x6986244D EQ PUSH2 0xE0 JUMPI DUP1 PUSH4 0x8DA5CB5B EQ PUSH2 0x10B JUMPI JUMPDEST PUSH0 DUP1 REVERT JUMPDEST PUSH2 0xA7 PUSH2 0xA2 CALLDATASIZE PUSH1 0x4 PUSH2 0x685 JUMP JUMPDEST PUSH2 0x1A4 JUMP JUMPDEST STOP JUMPDEST PUSH2 0xCB PUSH2 0xB7 CALLDATASIZE PUSH1 0x4 PUSH2 0x685 JUMP JUMPDEST PUSH1 0x1 PUSH1 0x20 MSTORE PUSH0 SWAP1 DUP2 MSTORE PUSH1 0x40 SWAP1 KECCAK256 SLOAD PUSH1 0xFF AND DUP2 JUMP JUMPDEST PUSH1 0x40 MLOAD SWAP1 ISZERO ISZERO DUP2 MSTORE PUSH1 0x20 ADD JUMPDEST PUSH1 0x40 MLOAD DUP1 SWAP2 SUB SWAP1 RETURN JUMPDEST PUSH2 0xF3 PUSH2 0xEE CALLDATASIZE PUSH1 0x4 PUSH2 0x69E JUMP JUMPDEST PUSH2 0x224 JUMP JUMPDEST PUSH1 0x40 MLOAD PUSH1 0x1 PUSH1 0x1 PUSH1 0xA0 SHL SUB SWAP1 SWAP2 AND DUP2 MSTORE PUSH1 0x20 ADD PUSH2 0xD7 JUMP JUMPDEST PUSH0 SLOAD PUSH2 0xF3 SWAP1 PUSH1 0x1 PUSH1 0x1 PUSH1 0xA0 SHL SUB AND DUP2 JUMP JUMPDEST PUSH2 0xF3 PUSH32 0x0 DUP2 JUMP JUMPDEST PUSH2 0xA7 PUSH2 0x152 CALLDATASIZE PUSH1 0x4 PUSH2 0x685 JUMP JUMPDEST PUSH2 0x264 JUMP JUMPDEST PUSH2 0xF3 PUSH32 0x0 DUP2 JUMP JUMPDEST PUSH2 0xF3 PUSH2 0x18C CALLDATASIZE PUSH1 0x4 PUSH2 0x6E1 JUMP JUMPDEST PUSH2 0x2D5 JUMP JUMPDEST PUSH2 0xA7 PUSH2 0x19F CALLDATASIZE PUSH1 0x4 PUSH2 0x685 JUMP JUMPDEST PUSH2 0x47A JUMP JUMPDEST PUSH0 SLOAD PUSH1 0x1 PUSH1 0x1 PUSH1 0xA0 SHL SUB AND CALLER EQ PUSH2 0x1D6 JUMPI PUSH1 0x40 MLOAD PUSH3 0x461BCD PUSH1 0xE5 SHL DUP2 MSTORE PUSH1 0x4 ADD PUSH2 0x1CD SWAP1 PUSH2 0x74A JUMP JUMPDEST PUSH1 0x40 MLOAD DUP1 SWAP2 SUB SWAP1 REVERT JUMPDEST PUSH1 0x1 PUSH1 0x1 PUSH1 0xA0 SHL SUB DUP2 AND PUSH0 DUP2 DUP2 MSTORE PUSH1 0x1 PUSH1 0x20 DUP2 SWAP1 MSTORE PUSH1 0x40 DUP1 DUP4 KECCAK256 DUP1 SLOAD PUSH1 0xFF NOT AND SWAP1 SWAP3 OR SWAP1 SWAP2 SSTORE MLOAD PUSH32 0x6ACFD92212F0EC670AF78F8BA2273E4A85AC17023475650C25BE0440602BFF2D SWAP2 SWAP1 LOG2 POP JUMP JUMPDEST PUSH0 PUSH2 0x25B PUSH32 0x0 PUSH2 0x255 DUP8 DUP8 DUP8 DUP8 PUSH2 0x504 JUMP JUMPDEST ADDRESS PUSH2 0x55D JUMP JUMPDEST SWAP6 SWAP5 POP POP POP POP POP JUMP JUMPDEST PUSH0 SLOAD PUSH1 0x1 PUSH1 0x1 PUSH1 0xA0 SHL SUB AND CALLER EQ PUSH2 0x28D JUMPI PUSH1 0x40 MLOAD PUSH3 0x461BCD PUSH1 0xE5 SHL DUP2 MSTORE PUSH1 0x4 ADD PUSH2 0x1CD SWAP1 PUSH2 0x74A JUMP JUMPDEST PUSH1 0x1 PUSH1 0x1 PUSH1 0xA0 SHL SUB DUP2 AND PUSH0 DUP2 DUP2 MSTORE PUSH1 0x1 PUSH1 0x20 MSTORE PUSH1 0x40 DUP1 DUP3 KECCAK256 DUP1 SLOAD PUSH1 0xFF NOT AND SWAP1 SSTORE MLOAD PUSH32 0x491B0192BAE7692618BFA4EFF3F4942D2D8EC3300EF2E63D325B45E937C4FF1 SWAP2 SWAP1 LOG2 POP JUMP JUMPDEST CALLER PUSH0 SWAP1 DUP2 MSTORE PUSH1 0x1 PUSH1 0x20 MSTORE PUSH1 0x40 DUP2 KECCAK256 SLOAD PUSH1 0xFF AND PUSH2 0x324 JUMPI PUSH1 0x40 MLOAD PUSH3 0x461BCD PUSH1 0xE5 SHL DUP2 MSTORE PUSH1 0x20 PUSH1 0x4 DUP3 ADD MSTORE PUSH1 0xE PUSH1 0x24 DUP3 ADD MSTORE PUSH14 0x139BDD08185D5D1A1BDC9A5E9959 PUSH1 0x92 SHL PUSH1 0x44 DUP3 ADD MSTORE PUSH1 0x64 ADD PUSH2 0x1CD JUMP JUMPDEST PUSH0 PUSH2 0x331 DUP9 DUP9 DUP9 DUP9 PUSH2 0x504 JUMP JUMPDEST SWAP1 POP PUSH0 PUSH2 0x35F PUSH32 0x0 DUP4 ADDRESS PUSH2 0x55D JUMP JUMPDEST SWAP1 POP PUSH1 0x1 PUSH1 0x1 PUSH1 0xA0 SHL SUB DUP2 AND EXTCODESIZE ISZERO PUSH2 0x37A JUMPI SWAP2 POP PUSH2 0x470 SWAP1 POP JUMP JUMPDEST PUSH2 0x3A4 PUSH32 0x0 DUP4 PUSH2 0x5C2 JUMP JUMPDEST PUSH1 0x40 MLOAD PUSH4 0x2A855379 PUSH1 0xE1 SHL DUP2 MSTORE PUSH1 0x1 PUSH1 0x1 PUSH1 0xA0 SHL SUB DUP12 DUP2 AND PUSH1 0x4 DUP4 ADD MSTORE PUSH1 0x24 DUP3 ADD DUP12 SWAP1 MSTORE PUSH1 0x44 DUP3 ADD DUP11 SWAP1 MSTORE DUP9 DUP2 AND PUSH1 0x64 DUP4 ADD MSTORE PUSH1 0xFF DUP9 AND PUSH1 0x84 DUP4 ADD MSTORE DUP7 DUP2 AND PUSH1 0xA4 DUP4 ADD MSTORE SWAP2 SWAP5 POP SWAP1 DUP5 AND SWAP1 PUSH4 0x550AA6F2 SWAP1 PUSH1 0xC4 ADD PUSH0 PUSH1 0x40 MLOAD DUP1 DUP4 SUB DUP2 PUSH0 DUP8 DUP1 EXTCODESIZE ISZERO DUP1 ISZERO PUSH2 0x40F JUMPI PUSH0 DUP1 REVERT JUMPDEST POP GAS CALL ISZERO DUP1 ISZERO PUSH2 0x421 JUMPI RETURNDATASIZE PUSH0 DUP1 RETURNDATACOPY RETURNDATASIZE PUSH0 REVERT JUMPDEST POP POP PUSH1 0x40 DUP1 MLOAD DUP12 DUP2 MSTORE PUSH1 0x20 DUP2 ADD DUP12 SWAP1 MSTORE PUSH1 0x1 PUSH1 0x1 PUSH1 0xA0 SHL SUB DUP1 DUP15 AND SWAP5 POP DUP8 AND SWAP3 POP PUSH32 0x240FC14917E6E1554C81CFB539719A310C54751A7BFACBEBCD20672D4D5FD0AF SWAP2 ADD PUSH1 0x40 MLOAD DUP1 SWAP2 SUB SWAP1 LOG3 POP POP JUMPDEST SWAP7 SWAP6 POP POP POP POP POP POP JUMP JUMPDEST PUSH0 SLOAD PUSH1 0x1 PUSH1 0x1 PUSH1 0xA0 SHL SUB AND CALLER EQ PUSH2 0x4A3 JUMPI PUSH1 0x40 MLOAD PUSH3 0x461BCD PUSH1 0xE5 SHL DUP2 MSTORE PUSH1 0x4 ADD PUSH2 0x1CD SWAP1 PUSH2 0x74A JUMP JUMPDEST PUSH1 0x1 PUSH1 0x1 PUSH1 0xA0 SHL SUB DUP2 AND PUSH2 0x4E3 JUMPI PUSH1 0x40 MLOAD PUSH3 0x461BCD PUSH1 0xE5 SHL DUP2 MSTORE PUSH1 0x20 PUSH1 0x4 DUP3 ADD MSTORE PUSH1 0x7 PUSH1 0x24 DUP3 ADD MSTORE PUSH7 0x125B9D985B1A59 PUSH1 0xCA SHL PUSH1 0x44 DUP3 ADD MSTORE PUSH1 0x64 ADD PUSH2 0x1CD JUMP JUMPDEST PUSH0 DUP1 SLOAD PUSH1 0x1 PUSH1 0x1 PUSH1 0xA0 SHL SUB NOT AND PUSH1 0x1 PUSH1 0x1 PUSH1 0xA0 SHL SUB SWAP3 SWAP1 SWAP3 AND SWAP2 SWAP1 SWAP2 OR SWAP1 SSTORE JUMP JUMPDEST PUSH1 0x40 MLOAD PUSH12 0xFFFFFFFFFFFFFFFFFFFFFFFF NOT PUSH1 0x60 DUP7 DUP2 SHL DUP3 AND PUSH1 0x20 DUP5 ADD MSTORE PUSH1 0x34 DUP4 ADD DUP7 SWAP1 MSTORE PUSH1 0x54 DUP4 ADD DUP6 SWAP1 MSTORE DUP4 SWAP1 SHL AND PUSH1 0x74 DUP3 ADD MSTORE PUSH0 SWAP1 PUSH1 0x88 ADD PUSH1 0x40 MLOAD PUSH1 0x20 DUP2 DUP4 SUB SUB DUP2 MSTORE SWAP1 PUSH1 0x40 MSTORE DUP1 MLOAD SWAP1 PUSH1 0x20 ADD KECCAK256 SWAP1 POP SWAP5 SWAP4 POP POP POP POP JUMP JUMPDEST PUSH1 0x40 MLOAD PUSH1 0x38 DUP2 ADD SWAP2 SWAP1 SWAP2 MSTORE PUSH16 0x5AF43D82803E903D91602B57FD5BF3FF PUSH1 0x24 DUP3 ADD MSTORE PUSH1 0x14 DUP2 ADD SWAP3 SWAP1 SWAP3 MSTORE PUSH20 0x3D602D80600A3D3981F3363D3D373D3D3D363D73 DUP3 MSTORE PUSH1 0x58 DUP3 ADD MSTORE PUSH1 0x37 PUSH1 0xC DUP3 ADD KECCAK256 PUSH1 0x78 DUP3 ADD MSTORE PUSH1 0x55 PUSH1 0x43 SWAP1 SWAP2 ADD KECCAK256 PUSH1 0x1 PUSH1 0x1 PUSH1 0xA0 SHL SUB AND SWAP1 JUMP JUMPDEST PUSH0 PUSH2 0x5CE DUP4 DUP4 PUSH0 PUSH2 0x5D5 JUMP JUMPDEST SWAP4 SWAP3 POP POP POP JUMP JUMPDEST PUSH0 DUP2 SELFBALANCE LT ISZERO PUSH2 0x600 JUMPI PUSH1 0x40 MLOAD PUSH4 0xCF479181 PUSH1 0xE0 SHL DUP2 MSTORE SELFBALANCE PUSH1 0x4 DUP3 ADD MSTORE PUSH1 0x24 DUP2 ADD DUP4 SWAP1 MSTORE PUSH1 0x44 ADD PUSH2 0x1CD JUMP JUMPDEST PUSH23 0x3D602D80600A3D3981F3363D3D373D3D3D363D73000000 DUP5 PUSH1 0x60 SHL PUSH1 0xE8 SHR OR PUSH0 MSTORE PUSH15 0x5AF43D82803E903D91602B57FD5BF3 DUP5 PUSH1 0x78 SHL OR PUSH1 0x20 MSTORE DUP3 PUSH1 0x37 PUSH1 0x9 DUP5 CREATE2 SWAP1 POP PUSH1 0x1 PUSH1 0x1 PUSH1 0xA0 SHL SUB DUP2 AND PUSH2 0x5CE JUMPI PUSH1 0x40 MLOAD PUSH4 0xB06EBF3D PUSH1 0xE0 SHL DUP2 MSTORE PUSH1 0x4 ADD PUSH1 0x40 MLOAD DUP1 SWAP2 SUB SWAP1 REVERT JUMPDEST DUP1 CALLDATALOAD PUSH1 0x1 PUSH1 0x1 PUSH1 0xA0 SHL SUB DUP2 AND DUP2 EQ PUSH2 0x680 JUMPI PUSH0 DUP1 REVERT JUMPDEST SWAP2 SWAP1 POP JUMP JUMPDEST PUSH0 PUSH1 0x20 DUP3 DUP5 SUB SLT ISZERO PUSH2 0x695 JUMPI PUSH0 DUP1 REVERT JUMPDEST PUSH2 0x5CE DUP3 PUSH2 0x66A JUMP JUMPDEST PUSH0 DUP1 PUSH0 DUP1 PUSH1 0x80 DUP6 DUP8 SUB SLT ISZERO PUSH2 0x6B1 JUMPI PUSH0 DUP1 REVERT JUMPDEST PUSH2 0x6BA DUP6 PUSH2 0x66A JUMP JUMPDEST SWAP4 POP PUSH1 0x20 DUP6 ADD CALLDATALOAD SWAP3 POP PUSH1 0x40 DUP6 ADD CALLDATALOAD SWAP2 POP PUSH2 0x6D6 PUSH1 0x60 DUP7 ADD PUSH2 0x66A JUMP JUMPDEST SWAP1 POP SWAP3 SWAP6 SWAP2 SWAP5 POP SWAP3 POP JUMP JUMPDEST PUSH0 DUP1 PUSH0 DUP1 PUSH0 DUP1 PUSH1 0xC0 DUP8 DUP10 SUB SLT ISZERO PUSH2 0x6F6 JUMPI PUSH0 DUP1 REVERT JUMPDEST PUSH2 0x6FF DUP8 PUSH2 0x66A JUMP JUMPDEST SWAP6 POP PUSH1 0x20 DUP8 ADD CALLDATALOAD SWAP5 POP PUSH1 0x40 DUP8 ADD CALLDATALOAD SWAP4 POP PUSH2 0x71B PUSH1 0x60 DUP9 ADD PUSH2 0x66A JUMP JUMPDEST SWAP3 POP PUSH1 0x80 DUP8 ADD CALLDATALOAD PUSH1 0xFF DUP2 AND DUP2 EQ PUSH2 0x730 JUMPI PUSH0 DUP1 REVERT JUMPDEST SWAP2 POP PUSH2 0x73E PUSH1 0xA0 DUP9 ADD PUSH2 0x66A JUMP JUMPDEST SWAP1 POP SWAP3 SWAP6 POP SWAP3 SWAP6 POP SWAP3 SWAP6 JUMP JUMPDEST PUSH1 0x20 DUP1 DUP3 MSTORE PUSH1 0x9 SWAP1 DUP3 ADD MSTORE PUSH9 0x2737BA1037BBB732B9 PUSH1 0xB9 SHL PUSH1 0x40 DUP3 ADD MSTORE PUSH1 0x60 ADD SWAP1 JUMP INVALID LOG2 PUSH5 0x6970667358 0x22 SLT KECCAK256 0x4F 0xED JUMPDEST 0xA9 PUSH3 0xF74479 SWAP9 EQ 0xD3 JUMP CODESIZE PUSH8 0x78FC882FFF9EB74F LOG4 0xE SDIV SWAP15 NOT 0x4D 0xD0 NOT JUMPI 0xE4 PUSH5 0x736F6C6343 STOP ADDMOD XOR STOP CALLER PUSH1 0xC0 PUSH1 0x40 MSTORE ADDRESS PUSH1 0x80 MSTORE CALLVALUE DUP1 ISZERO PUSH3 0x14 JUMPI PUSH0 DUP1 REVERT JUMPDEST POP PUSH1 0x40 MLOAD PUSH3 0x1F8F CODESIZE SUB DUP1 PUSH3 0x1F8F DUP4 CODECOPY DUP2 ADD PUSH1 0x40 DUP2 SWAP1 MSTORE PUSH3 0x37 SWAP2 PUSH3 0x109 JUMP JUMPDEST PUSH1 0x1 PUSH1 0x1 PUSH1 0xA0 SHL SUB DUP2 AND PUSH1 0xA0 MSTORE PUSH3 0x4E PUSH3 0x55 JUMP JUMPDEST POP PUSH3 0x138 JUMP JUMPDEST PUSH32 0xF0C57E16840DF040F15088DC2F81FE391C3923BEC73E23A9662EFC9C229C6A00 DUP1 SLOAD PUSH9 0x10000000000000000 SWAP1 DIV PUSH1 0xFF AND ISZERO PUSH3 0xA6 JUMPI PUSH1 0x40 MLOAD PUSH4 0xF92EE8A9 PUSH1 0xE0 SHL DUP2 MSTORE PUSH1 0x4 ADD PUSH1 0x40 MLOAD DUP1 SWAP2 SUB SWAP1 REVERT JUMPDEST DUP1 SLOAD PUSH1 0x1 PUSH1 0x1 PUSH1 0x40 SHL SUB SWAP1 DUP2 AND EQ PUSH3 0x106 JUMPI DUP1 SLOAD PUSH1 0x1 PUSH1 0x1 PUSH1 0x40 SHL SUB NOT AND PUSH1 0x1 PUSH1 0x1 PUSH1 0x40 SHL SUB SWAP1 DUP2 OR DUP3 SSTORE PUSH1 0x40 MLOAD SWAP1 DUP2 MSTORE PUSH32 0xC7F505B2F371AE2175EE4913F4499E1F2633A7B5936321EED1CDAEB6115181D2 SWAP1 PUSH1 0x20 ADD PUSH1 0x40 MLOAD DUP1 SWAP2 SUB SWAP1 LOG1 JUMPDEST POP JUMP JUMPDEST PUSH0 PUSH1 0x20 DUP3 DUP5 SUB SLT ISZERO PUSH3 0x11A JUMPI PUSH0 DUP1 REVERT JUMPDEST DUP2 MLOAD PUSH1 0x1 PUSH1 0x1 PUSH1 0xA0 SHL SUB DUP2 AND DUP2 EQ PUSH3 0x131 JUMPI PUSH0 DUP1 REVERT JUMPDEST SWAP4 SWAP3 POP POP POP JUMP JUMPDEST PUSH1 0x80 MLOAD PUSH1 0xA0 MLOAD PUSH2 0x1E12 PUSH3 0x17D PUSH0 CODECOPY PUSH0 DUP2 DUP2 PUSH2 0x487 ADD MSTORE DUP2 DUP2 PUSH2 0x586 ADD MSTORE DUP2 DUP2 PUSH2 0xFCC ADD MSTORE PUSH2 0x1069 ADD MSTORE PUSH0 DUP2 DUP2 PUSH2 0x1464 ADD MSTORE DUP2 DUP2 PUSH2 0x148D ADD MSTORE PUSH2 0x15F4 ADD MSTORE PUSH2 0x1E12 PUSH0 RETURN INVALID PUSH1 0x80 PUSH1 0x40 MSTORE PUSH1 0x4 CALLDATASIZE LT PUSH2 0x1D3 JUMPI PUSH0 CALLDATALOAD PUSH1 0xE0 SHR DUP1 PUSH4 0x92DD7B99 GT PUSH2 0xFD JUMPI DUP1 PUSH4 0xC72CDFEF GT PUSH2 0x92 JUMPI DUP1 PUSH4 0xD9F1BE55 GT PUSH2 0x62 JUMPI DUP1 PUSH4 0xD9F1BE55 EQ PUSH2 0x51D JUMPI DUP1 PUSH4 0xDC2A60F6 EQ PUSH2 0x531 JUMPI DUP1 PUSH4 0xDD428695 EQ PUSH2 0x21F JUMPI DUP1 PUSH4 0xFB2A59BE EQ PUSH2 0x551 JUMPI PUSH0 DUP1 REVERT JUMPDEST DUP1 PUSH4 0xC72CDFEF EQ PUSH2 0x4CA JUMPI DUP1 PUSH4 0xCEA26E4C EQ PUSH2 0x3B2 JUMPI DUP1 PUSH4 0xD087D288 EQ PUSH2 0x4E9 JUMPI DUP1 PUSH4 0xD5D93A10 EQ PUSH2 0x4FD JUMPI PUSH0 DUP1 REVERT JUMPDEST DUP1 PUSH4 0xAD3CB1CC GT PUSH2 0xCD JUMPI DUP1 PUSH4 0xAD3CB1CC EQ PUSH2 0x427 JUMPI DUP1 PUSH4 0xAE565E11 EQ PUSH2 0x464 JUMPI DUP1 PUSH4 0xB0D691FE EQ PUSH2 0x479 JUMPI DUP1 PUSH4 0xB61D27F6 EQ PUSH2 0x4AB JUMPI PUSH0 DUP1 REVERT JUMPDEST DUP1 PUSH4 0x92DD7B99 EQ PUSH2 0x3B2 JUMPI DUP1 PUSH4 0x964CBF6A EQ PUSH2 0x3C6 JUMPI DUP1 PUSH4 0x995143EF EQ PUSH2 0x3F4 JUMPI DUP1 PUSH4 0x9BE0A71B EQ PUSH2 0x408 JUMPI PUSH0 DUP1 REVERT JUMPDEST DUP1 PUSH4 0x3675F29B GT PUSH2 0x173 JUMPI DUP1 PUSH4 0x52D1902D GT PUSH2 0x143 JUMPI DUP1 PUSH4 0x52D1902D EQ PUSH2 0x34B JUMPI DUP1 PUSH4 0x550AA6F2 EQ PUSH2 0x35F JUMPI DUP1 PUSH4 0x58BC2944 EQ PUSH2 0x37E JUMPI DUP1 PUSH4 0x719414B4 EQ PUSH2 0x39D JUMPI PUSH0 DUP1 REVERT JUMPDEST DUP1 PUSH4 0x3675F29B EQ PUSH2 0x2CA JUMPI DUP1 PUSH4 0x3B55E385 EQ PUSH2 0x2E9 JUMPI DUP1 PUSH4 0x47E1DA2A EQ PUSH2 0x319 JUMPI DUP1 PUSH4 0x4F1EF286 EQ PUSH2 0x338 JUMPI PUSH0 DUP1 REVERT JUMPDEST DUP1 PUSH4 0x12B226C9 GT PUSH2 0x1AE JUMPI DUP1 PUSH4 0x12B226C9 EQ PUSH2 0x233 JUMPI DUP1 PUSH4 0x13FEAACD EQ PUSH2 0x256 JUMPI DUP1 PUSH4 0x19822F7C EQ PUSH2 0x275 JUMPI DUP1 PUSH4 0x2B7AC3F3 EQ PUSH2 0x294 JUMPI PUSH0 DUP1 REVERT JUMPDEST DUP1 PUSH4 0x6F4BCBF EQ PUSH2 0x1DE JUMPI DUP1 PUSH4 0x917848D EQ PUSH2 0x1F4 JUMPI DUP1 PUSH4 0xC7EDB5D EQ PUSH2 0x21F JUMPI PUSH0 DUP1 REVERT JUMPDEST CALLDATASIZE PUSH2 0x1DA JUMPI STOP JUMPDEST PUSH0 DUP1 REVERT JUMPDEST CALLVALUE DUP1 ISZERO PUSH2 0x1E9 JUMPI PUSH0 DUP1 REVERT JUMPDEST POP PUSH2 0x1F2 PUSH2 0x565 JUMP JUMPDEST STOP JUMPDEST CALLVALUE DUP1 ISZERO PUSH2 0x1FF JUMPI PUSH0 DUP1 REVERT JUMPDEST POP PUSH2 0x208 PUSH1 0x4 DUP2 JUMP JUMPDEST PUSH1 0x40 MLOAD PUSH1 0xFF SWAP1 SWAP2 AND DUP2 MSTORE PUSH1 0x20 ADD JUMPDEST PUSH1 0x40 MLOAD DUP1 SWAP2 SUB SWAP1 RETURN JUMPDEST CALLVALUE DUP1 ISZERO PUSH2 0x22A JUMPI PUSH0 DUP1 REVERT JUMPDEST POP PUSH2 0x208 PUSH1 0x2 DUP2 JUMP JUMPDEST CALLVALUE DUP1 ISZERO PUSH2 0x23E JUMPI PUSH0 DUP1 REVERT JUMPDEST POP PUSH2 0x248 PUSH1 0x5 SLOAD DUP2 JUMP JUMPDEST PUSH1 0x40 MLOAD SWAP1 DUP2 MSTORE PUSH1 0x20 ADD PUSH2 0x216 JUMP JUMPDEST CALLVALUE DUP1 ISZERO PUSH2 0x261 JUMPI PUSH0 DUP1 REVERT JUMPDEST POP PUSH2 0x1F2 PUSH2 0x270 CALLDATASIZE PUSH1 0x4 PUSH2 0x184D JUMP JUMPDEST PUSH2 0x603 JUMP JUMPDEST CALLVALUE DUP1 ISZERO PUSH2 0x280 JUMPI PUSH0 DUP1 REVERT JUMPDEST POP PUSH2 0x248 PUSH2 0x28F CALLDATASIZE PUSH1 0x4 PUSH2 0x188C JUMP JUMPDEST PUSH2 0x680 JUMP JUMPDEST CALLVALUE DUP1 ISZERO PUSH2 0x29F JUMPI PUSH0 DUP1 REVERT JUMPDEST POP PUSH0 SLOAD PUSH2 0x2B2 SWAP1 PUSH1 0x1 PUSH1 0x1 PUSH1 0xA0 SHL SUB AND DUP2 JUMP JUMPDEST PUSH1 0x40 MLOAD PUSH1 0x1 PUSH1 0x1 PUSH1 0xA0 SHL SUB SWAP1 SWAP2 AND DUP2 MSTORE PUSH1 0x20 ADD PUSH2 0x216 JUMP JUMPDEST CALLVALUE DUP1 ISZERO PUSH2 0x2D5 JUMPI PUSH0 DUP1 REVERT JUMPDEST POP PUSH1 0x1 SLOAD PUSH2 0x2B2 SWAP1 PUSH1 0x1 PUSH1 0x1 PUSH1 0xA0 SHL SUB AND DUP2 JUMP JUMPDEST CALLVALUE DUP1 ISZERO PUSH2 0x2F4 JUMPI PUSH0 DUP1 REVERT JUMPDEST POP PUSH1 0x4 SLOAD PUSH2 0x309 SWAP1 PUSH1 0x1 PUSH1 0xB0 SHL SWAP1 DIV PUSH1 0xFF AND DUP2 JUMP JUMPDEST PUSH1 0x40 MLOAD SWAP1 ISZERO ISZERO DUP2 MSTORE PUSH1 0x20 ADD PUSH2 0x216 JUMP JUMPDEST CALLVALUE DUP1 ISZERO PUSH2 0x324 JUMPI PUSH0 DUP1 REVERT JUMPDEST POP PUSH2 0x1F2 PUSH2 0x333 CALLDATASIZE PUSH1 0x4 PUSH2 0x191C JUMP JUMPDEST PUSH2 0x6A5 JUMP JUMPDEST PUSH2 0x1F2 PUSH2 0x346 CALLDATASIZE PUSH1 0x4 PUSH2 0x1A67 JUMP JUMPDEST PUSH2 0x931 JUMP JUMPDEST CALLVALUE DUP1 ISZERO PUSH2 0x356 JUMPI PUSH0 DUP1 REVERT JUMPDEST POP PUSH2 0x248 PUSH2 0x950 JUMP JUMPDEST CALLVALUE DUP1 ISZERO PUSH2 0x36A JUMPI PUSH0 DUP1 REVERT JUMPDEST POP PUSH2 0x1F2 PUSH2 0x379 CALLDATASIZE PUSH1 0x4 PUSH2 0x1AC2 JUMP JUMPDEST PUSH2 0x96B JUMP JUMPDEST CALLVALUE DUP1 ISZERO PUSH2 0x389 JUMPI PUSH0 DUP1 REVERT JUMPDEST POP PUSH2 0x1F2 PUSH2 0x398 CALLDATASIZE PUSH1 0x4 PUSH2 0x1B24 JUMP JUMPDEST PUSH2 0xC35 JUMP JUMPDEST CALLVALUE DUP1 ISZERO PUSH2 0x3A8 JUMPI PUSH0 DUP1 REVERT JUMPDEST POP PUSH2 0x248 PUSH1 0x3 SLOAD DUP2 JUMP JUMPDEST CALLVALUE DUP1 ISZERO PUSH2 0x3BD JUMPI PUSH0 DUP1 REVERT JUMPDEST POP PUSH2 0x208 PUSH1 0x1 DUP2 JUMP JUMPDEST CALLVALUE DUP1 ISZERO PUSH2 0x3D1 JUMPI PUSH0 DUP1 REVERT JUMPDEST POP PUSH2 0x208 PUSH2 0x3E0 CALLDATASIZE PUSH1 0x4 PUSH2 0x1B24 JUMP JUMPDEST PUSH1 0x6 PUSH1 0x20 MSTORE PUSH0 SWAP1 DUP2 MSTORE PUSH1 0x40 SWAP1 KECCAK256 SLOAD PUSH1 0xFF AND DUP2 JUMP JUMPDEST CALLVALUE DUP1 ISZERO PUSH2 0x3FF JUMPI PUSH0 DUP1 REVERT JUMPDEST POP PUSH2 0x1F2 PUSH2 0xCF7 JUMP JUMPDEST CALLVALUE DUP1 ISZERO PUSH2 0x413 JUMPI PUSH0 DUP1 REVERT JUMPDEST POP PUSH2 0x1F2 PUSH2 0x422 CALLDATASIZE PUSH1 0x4 PUSH2 0x1B3D JUMP JUMPDEST PUSH2 0xDAA JUMP JUMPDEST CALLVALUE DUP1 ISZERO PUSH2 0x432 JUMPI PUSH0 DUP1 REVERT JUMPDEST POP PUSH2 0x457 PUSH1 0x40 MLOAD DUP1 PUSH1 0x40 ADD PUSH1 0x40 MSTORE DUP1 PUSH1 0x5 DUP2 MSTORE PUSH1 0x20 ADD PUSH5 0x352E302E3 PUSH1 0xDC SHL DUP2 MSTORE POP DUP2 JUMP JUMPDEST PUSH1 0x40 MLOAD PUSH2 0x216 SWAP2 SWAP1 PUSH2 0x1BB1 JUMP JUMPDEST CALLVALUE DUP1 ISZERO PUSH2 0x46F JUMPI PUSH0 DUP1 REVERT JUMPDEST POP PUSH2 0x248 PUSH1 0x2 SLOAD DUP2 JUMP JUMPDEST CALLVALUE DUP1 ISZERO PUSH2 0x484 JUMPI PUSH0 DUP1 REVERT JUMPDEST POP PUSH32 0x0 PUSH2 0x2B2 JUMP JUMPDEST CALLVALUE DUP1 ISZERO PUSH2 0x4B6 JUMPI PUSH0 DUP1 REVERT JUMPDEST POP PUSH2 0x1F2 PUSH2 0x4C5 CALLDATASIZE PUSH1 0x4 PUSH2 0x1BC3 JUMP JUMPDEST PUSH2 0xEB7 JUMP JUMPDEST CALLVALUE DUP1 ISZERO PUSH2 0x4D5 JUMPI PUSH0 DUP1 REVERT JUMPDEST POP PUSH1 0x4 SLOAD PUSH2 0x2B2 SWAP1 PUSH1 0x1 PUSH1 0x1 PUSH1 0xA0 SHL SUB AND DUP2 JUMP JUMPDEST CALLVALUE DUP1 ISZERO PUSH2 0x4F4 JUMPI PUSH0 DUP1 REVERT JUMPDEST POP PUSH2 0x248 PUSH2 0xFC9 JUMP JUMPDEST CALLVALUE DUP1 ISZERO PUSH2 0x508 JUMPI PUSH0 DUP1 REVERT JUMPDEST POP PUSH1 0x4 SLOAD PUSH2 0x208 SWAP1 PUSH1 0x1 PUSH1 0xA0 SHL SWAP1 DIV PUSH1 0xFF AND DUP2 JUMP JUMPDEST CALLVALUE DUP1 ISZERO PUSH2 0x528 JUMPI PUSH0 DUP1 REVERT JUMPDEST POP PUSH2 0x208 PUSH1 0x3 DUP2 JUMP JUMPDEST CALLVALUE DUP1 ISZERO PUSH2 0x53C JUMPI PUSH0 DUP1 REVERT JUMPDEST POP PUSH1 0x4 SLOAD PUSH2 0x309 SWAP1 PUSH1 0x1 PUSH1 0xA8 SHL SWAP1 DIV PUSH1 0xFF AND DUP2 JUMP JUMPDEST CALLVALUE DUP1 ISZERO PUSH2 0x55C JUMPI PUSH0 DUP1 REVERT JUMPDEST POP PUSH2 0x208 PUSH1 0x5 DUP2 JUMP JUMPDEST PUSH1 0x4 SLOAD PUSH1 0x1 PUSH1 0x1 PUSH1 0xA0 SHL SUB AND CALLER EQ DUP1 ISZERO SWAP1 PUSH2 0x5A9 JUMPI POP CALLER PUSH1 0x1 PUSH1 0x1 PUSH1 0xA0 SHL SUB PUSH32 0x0 AND EQ ISZERO JUMPDEST ISZERO PUSH2 0x5C7 JUMPI PUSH1 0x40 MLOAD PUSH4 0xB5357B8F PUSH1 0xE0 SHL DUP2 MSTORE PUSH1 0x4 ADD PUSH1 0x40 MLOAD DUP1 SWAP2 SUB SWAP1 REVERT JUMPDEST PUSH1 0x4 DUP1 SLOAD PUSH1 0xFF PUSH1 0xB0 SHL NOT AND SWAP1 SSTORE PUSH0 PUSH1 0x5 DUP2 SWAP1 SSTORE PUSH1 0x40 MLOAD PUSH32 0x9E4F5027ADC4051EA8E8CB01BFCF333D6E85F1AA5D9E2E01FDFF18E17C847ACB SWAP2 SWAP1 LOG1 JUMP JUMPDEST PUSH1 0x1 SLOAD PUSH1 0x1 PUSH1 0x1 PUSH1 0xA0 SHL SUB AND CALLER EQ PUSH2 0x62E JUMPI PUSH1 0x40 MLOAD PUSH4 0x762163B PUSH1 0xE3 SHL DUP2 MSTORE PUSH1 0x4 ADD PUSH1 0x40 MLOAD DUP1 SWAP2 SUB SWAP1 REVERT JUMPDEST PUSH1 0x4 DUP1 SLOAD PUSH2 0xFFFF PUSH1 0xA8 SHL NOT AND PUSH1 0x1 PUSH1 0xA8 SHL OR SWAP1 SSTORE PUSH1 0x40 MLOAD PUSH32 0xB549BDED4331F0939AF765E1A24F49C4FC9C190E88E541C9E6861DD386907F3B SWAP1 PUSH2 0x674 SWAP1 DUP5 SWAP1 DUP5 SWAP1 PUSH2 0x1C19 JUMP JUMPDEST PUSH1 0x40 MLOAD DUP1 SWAP2 SUB SWAP1 LOG1 POP POP JUMP JUMPDEST PUSH0 PUSH2 0x689 PUSH2 0x105E JUMP JUMPDEST PUSH2 0x693 DUP5 DUP5 PUSH2 0x10D8 JUMP JUMPDEST SWAP1 POP PUSH2 0x69E DUP3 PUSH2 0x1220 JUMP JUMPDEST SWAP4 SWAP3 POP POP POP JUMP JUMPDEST PUSH2 0x6AD PUSH2 0x105E JUMP JUMPDEST PUSH2 0x6B5 PUSH2 0x1275 JUMP JUMPDEST PUSH2 0x6BD PUSH2 0x12C1 JUMP JUMPDEST DUP5 DUP4 EQ DUP1 ISZERO PUSH2 0x6CB JUMPI POP DUP5 DUP2 EQ JUMPDEST PUSH2 0x70E JUMPI PUSH1 0x40 MLOAD PUSH3 0x461BCD PUSH1 0xE5 SHL DUP2 MSTORE PUSH1 0x20 PUSH1 0x4 DUP3 ADD MSTORE PUSH1 0xF PUSH1 0x24 DUP3 ADD MSTORE PUSH15 0x98CADCCEE8D040DAD2E6DAC2E8C6D PUSH1 0x8B SHL PUSH1 0x44 DUP3 ADD MSTORE PUSH1 0x64 ADD JUMPDEST PUSH1 0x40 MLOAD DUP1 SWAP2 SUB SWAP1 REVERT JUMPDEST PUSH0 JUMPDEST DUP6 DUP2 LT ISZERO PUSH2 0x928 JUMPI PUSH0 PUSH1 0x6 PUSH0 DUP10 DUP10 DUP6 DUP2 DUP2 LT PUSH2 0x72E JUMPI PUSH2 0x72E PUSH2 0x1C47 JUMP JUMPDEST SWAP1 POP PUSH1 0x20 MUL ADD PUSH1 0x20 DUP2 ADD SWAP1 PUSH2 0x743 SWAP2 SWAP1 PUSH2 0x1B24 JUMP JUMPDEST PUSH1 0x1 PUSH1 0x1 PUSH1 0xA0 SHL SUB AND DUP2 MSTORE PUSH1 0x20 DUP2 ADD SWAP2 SWAP1 SWAP2 MSTORE PUSH1 0x40 ADD PUSH0 KECCAK256 SLOAD PUSH1 0xFF AND SWAP1 POP DUP1 ISZERO PUSH2 0x7BB JUMPI PUSH2 0x7BB DUP9 DUP9 DUP5 DUP2 DUP2 LT PUSH2 0x77C JUMPI PUSH2 0x77C PUSH2 0x1C47 JUMP JUMPDEST SWAP1 POP PUSH1 0x20 MUL ADD PUSH1 0x20 DUP2 ADD SWAP1 PUSH2 0x791 SWAP2 SWAP1 PUSH2 0x1B24 JUMP JUMPDEST DUP3 DUP7 DUP7 DUP7 DUP2 DUP2 LT PUSH2 0x7A4 JUMPI PUSH2 0x7A4 PUSH2 0x1C47 JUMP JUMPDEST SWAP1 POP PUSH1 0x20 MUL DUP2 ADD SWAP1 PUSH2 0x7B6 SWAP2 SWAP1 PUSH2 0x1C5B JUMP JUMPDEST PUSH2 0x12EC JUMP JUMPDEST PUSH0 DUP1 DUP10 DUP10 DUP6 DUP2 DUP2 LT PUSH2 0x7CF JUMPI PUSH2 0x7CF PUSH2 0x1C47 JUMP JUMPDEST SWAP1 POP PUSH1 0x20 MUL ADD PUSH1 0x20 DUP2 ADD SWAP1 PUSH2 0x7E4 SWAP2 SWAP1 PUSH2 0x1B24 JUMP JUMPDEST PUSH1 0x1 PUSH1 0x1 PUSH1 0xA0 SHL SUB AND DUP9 DUP9 DUP7 DUP2 DUP2 LT PUSH2 0x7FF JUMPI PUSH2 0x7FF PUSH2 0x1C47 JUMP JUMPDEST SWAP1 POP PUSH1 0x20 MUL ADD CALLDATALOAD DUP8 DUP8 DUP8 DUP2 DUP2 LT PUSH2 0x818 JUMPI PUSH2 0x818 PUSH2 0x1C47 JUMP JUMPDEST SWAP1 POP PUSH1 0x20 MUL DUP2 ADD SWAP1 PUSH2 0x82A SWAP2 SWAP1 PUSH2 0x1C5B JUMP JUMPDEST PUSH1 0x40 MLOAD PUSH2 0x838 SWAP3 SWAP2 SWAP1 PUSH2 0x1C9E JUMP JUMPDEST PUSH0 PUSH1 0x40 MLOAD DUP1 DUP4 SUB DUP2 DUP6 DUP8 GAS CALL SWAP3 POP POP POP RETURNDATASIZE DUP1 PUSH0 DUP2 EQ PUSH2 0x872 JUMPI PUSH1 0x40 MLOAD SWAP2 POP PUSH1 0x1F NOT PUSH1 0x3F RETURNDATASIZE ADD AND DUP3 ADD PUSH1 0x40 MSTORE RETURNDATASIZE DUP3 MSTORE RETURNDATASIZE PUSH0 PUSH1 0x20 DUP5 ADD RETURNDATACOPY PUSH2 0x877 JUMP JUMPDEST PUSH1 0x60 SWAP2 POP JUMPDEST POP SWAP2 POP SWAP2 POP DUP2 PUSH2 0x89C JUMPI DUP1 PUSH1 0x40 MLOAD PUSH4 0x15FCD675 PUSH1 0xE0 SHL DUP2 MSTORE PUSH1 0x4 ADD PUSH2 0x705 SWAP2 SWAP1 PUSH2 0x1BB1 JUMP JUMPDEST DUP10 DUP10 DUP6 DUP2 DUP2 LT PUSH2 0x8AE JUMPI PUSH2 0x8AE PUSH2 0x1C47 JUMP JUMPDEST SWAP1 POP PUSH1 0x20 MUL ADD PUSH1 0x20 DUP2 ADD SWAP1 PUSH2 0x8C3 SWAP2 SWAP1 PUSH2 0x1B24 JUMP JUMPDEST PUSH1 0x1 PUSH1 0x1 PUSH1 0xA0 SHL SUB AND PUSH32 0x6F6C6D78A4851D4C222C8404FC92372EE84B7B81054305AE8EA3C83C2DABD42E DUP10 DUP10 DUP8 DUP2 DUP2 LT PUSH2 0x8FF JUMPI PUSH2 0x8FF PUSH2 0x1C47 JUMP JUMPDEST SWAP1 POP PUSH1 0x20 MUL ADD CALLDATALOAD PUSH1 0x40 MLOAD PUSH2 0x915 SWAP2 DUP2 MSTORE PUSH1 0x20 ADD SWAP1 JUMP JUMPDEST PUSH1 0x40 MLOAD DUP1 SWAP2 SUB SWAP1 LOG2 POP POP POP PUSH1 0x1 ADD PUSH2 0x710 JUMP JUMPDEST POP POP POP POP POP POP POP JUMP JUMPDEST PUSH2 0x939 PUSH2 0x1459 JUMP JUMPDEST PUSH2 0x942 DUP3 PUSH2 0x14FD JUMP JUMPDEST PUSH2 0x94C DUP3 DUP3 PUSH2 0x1528 JUMP JUMPDEST POP POP JUMP JUMPDEST PUSH0 PUSH2 0x959 PUSH2 0x15E9 JUMP JUMPDEST POP PUSH0 DUP1 MLOAD PUSH1 0x20 PUSH2 0x1DBD DUP4 CODECOPY DUP2 MLOAD SWAP2 MSTORE SWAP1 JUMP JUMPDEST PUSH0 PUSH2 0x974 PUSH2 0x1632 JUMP JUMPDEST DUP1 SLOAD SWAP1 SWAP2 POP PUSH1 0xFF PUSH1 0x1 PUSH1 0x40 SHL DUP3 DIV AND ISZERO SWAP1 PUSH8 0xFFFFFFFFFFFFFFFF AND PUSH0 DUP2 ISZERO DUP1 ISZERO PUSH2 0x99B JUMPI POP DUP3 JUMPDEST SWAP1 POP PUSH0 DUP3 PUSH8 0xFFFFFFFFFFFFFFFF AND PUSH1 0x1 EQ DUP1 ISZERO PUSH2 0x9B7 JUMPI POP ADDRESS EXTCODESIZE ISZERO JUMPDEST SWAP1 POP DUP2 ISZERO DUP1 ISZERO PUSH2 0x9C5 JUMPI POP DUP1 ISZERO JUMPDEST ISZERO PUSH2 0x9E3 JUMPI PUSH1 0x40 MLOAD PUSH4 0xF92EE8A9 PUSH1 0xE0 SHL DUP2 MSTORE PUSH1 0x4 ADD PUSH1 0x40 MLOAD DUP1 SWAP2 SUB SWAP1 REVERT JUMPDEST DUP5 SLOAD PUSH8 0xFFFFFFFFFFFFFFFF NOT AND PUSH1 0x1 OR DUP6 SSTORE DUP4 ISZERO PUSH2 0xA0D JUMPI DUP5 SLOAD PUSH1 0xFF PUSH1 0x40 SHL NOT AND PUSH1 0x1 PUSH1 0x40 SHL OR DUP6 SSTORE JUMPDEST PUSH1 0x1 PUSH1 0x1 PUSH1 0xA0 SHL SUB DUP12 AND PUSH2 0xA54 JUMPI PUSH1 0x40 MLOAD PUSH3 0x461BCD PUSH1 0xE5 SHL DUP2 MSTORE PUSH1 0x20 PUSH1 0x4 DUP3 ADD MSTORE PUSH1 0xE PUSH1 0x24 DUP3 ADD MSTORE PUSH14 0x24B73B30B634B2103637B1B5B2B9 PUSH1 0x91 SHL PUSH1 0x44 DUP3 ADD MSTORE PUSH1 0x64 ADD PUSH2 0x705 JUMP JUMPDEST PUSH1 0x1 PUSH1 0x1 PUSH1 0xA0 SHL SUB DUP9 AND PUSH2 0xA9B JUMPI PUSH1 0x40 MLOAD PUSH3 0x461BCD PUSH1 0xE5 SHL DUP2 MSTORE PUSH1 0x20 PUSH1 0x4 DUP3 ADD MSTORE PUSH1 0xE PUSH1 0x24 DUP3 ADD MSTORE PUSH14 0x24B73B30B634B21039B4B3B732B9 PUSH1 0x91 SHL PUSH1 0x44 DUP3 ADD MSTORE PUSH1 0x64 ADD PUSH2 0x705 JUMP JUMPDEST PUSH1 0x1 PUSH1 0x1 PUSH1 0xA0 SHL SUB DUP7 AND PUSH2 0xAE4 JUMPI PUSH1 0x40 MLOAD PUSH3 0x461BCD PUSH1 0xE5 SHL DUP2 MSTORE PUSH1 0x20 PUSH1 0x4 DUP3 ADD MSTORE PUSH1 0x10 PUSH1 0x24 DUP3 ADD MSTORE PUSH16 0x24B73B30B634B2103B32B934B334B2B9 PUSH1 0x81 SHL PUSH1 0x44 DUP3 ADD MSTORE PUSH1 0x64 ADD PUSH2 0x705 JUMP JUMPDEST PUSH1 0xFF DUP8 AND PUSH1 0x1 EQ DUP1 PUSH2 0xAF9 JUMPI POP PUSH1 0xFF DUP8 AND PUSH1 0x2 EQ JUMPDEST PUSH2 0xB34 JUMPI PUSH1 0x40 MLOAD PUSH3 0x461BCD PUSH1 0xE5 SHL DUP2 MSTORE PUSH1 0x20 PUSH1 0x4 DUP3 ADD MSTORE PUSH1 0xC PUSH1 0x24 DUP3 ADD MSTORE PUSH12 0x496E76616C6964206D6F6465 PUSH1 0xA0 SHL PUSH1 0x44 DUP3 ADD MSTORE PUSH1 0x64 ADD PUSH2 0x705 JUMP JUMPDEST PUSH1 0x1 DUP1 SLOAD PUSH1 0x1 PUSH1 0x1 PUSH1 0xA0 SHL SUB DUP1 DUP15 AND PUSH1 0x1 PUSH1 0x1 PUSH1 0xA0 SHL SUB NOT SWAP3 DUP4 AND DUP2 OR SWAP1 SWAP4 SSTORE PUSH1 0x2 DUP14 SWAP1 SSTORE PUSH1 0x3 DUP13 SWAP1 SSTORE PUSH1 0x4 DUP1 SLOAD PUSH1 0xFF DUP13 AND PUSH1 0x1 PUSH1 0xA0 SHL MUL PUSH1 0x1 PUSH1 0x1 PUSH1 0xA8 SHL SUB NOT SWAP1 SWAP2 AND DUP14 DUP5 AND OR OR SWAP1 SSTORE PUSH0 DUP1 SLOAD SWAP2 DUP11 AND SWAP2 SWAP1 SWAP3 AND OR SWAP1 SSTORE PUSH1 0x40 MLOAD PUSH32 0x362DFBC2163A6FFBF30F36E9776263E8397E9E0E957C5C16765FECD2D0B1350 SWAP1 PUSH2 0xBDA SWAP1 DUP14 SWAP1 DUP14 SWAP1 DUP14 SWAP1 SWAP3 DUP4 MSTORE PUSH1 0x20 DUP4 ADD SWAP2 SWAP1 SWAP2 MSTORE PUSH1 0x1 PUSH1 0x1 PUSH1 0xA0 SHL SUB AND PUSH1 0x40 DUP3 ADD MSTORE PUSH1 0x60 ADD SWAP1 JUMP JUMPDEST PUSH1 0x40 MLOAD DUP1 SWAP2 SUB SWAP1 LOG2 DUP4 ISZERO PUSH2 0xC28 JUMPI DUP5 SLOAD PUSH1 0xFF PUSH1 0x40 SHL NOT AND DUP6 SSTORE PUSH1 0x40 MLOAD PUSH1 0x1 DUP2 MSTORE PUSH32 0xC7F505B2F371AE2175EE4913F4499E1F2633A7B5936321EED1CDAEB6115181D2 SWAP1 PUSH1 0x20 ADD PUSH1 0x40 MLOAD DUP1 SWAP2 SUB SWAP1 LOG1 JUMPDEST POP POP POP POP POP POP POP POP POP POP POP JUMP JUMPDEST PUSH1 0x1 SLOAD PUSH1 0x1 PUSH1 0x1 PUSH1 0xA0 SHL SUB AND CALLER EQ PUSH2 0xC60 JUMPI PUSH1 0x40 MLOAD PUSH4 0x762163B PUSH1 0xE3 SHL DUP2 MSTORE PUSH1 0x4 ADD PUSH1 0x40 MLOAD DUP1 SWAP2 SUB SWAP1 REVERT JUMPDEST PUSH1 0x1 PUSH1 0x1 PUSH1 0xA0 SHL SUB DUP2 AND PUSH2 0xCA7 JUMPI PUSH1 0x40 MLOAD PUSH3 0x461BCD PUSH1 0xE5 SHL DUP2 MSTORE PUSH1 0x20 PUSH1 0x4 DUP3 ADD MSTORE PUSH1 0xE PUSH1 0x24 DUP3 ADD MSTORE PUSH14 0x24B73B30B634B21039B4B3B732B9 PUSH1 0x91 SHL PUSH1 0x44 DUP3 ADD MSTORE PUSH1 0x64 ADD PUSH2 0x705 JUMP JUMPDEST PUSH1 0x4 DUP1 SLOAD PUSH1 0x1 PUSH3 0xFF0001 PUSH1 0xA0 SHL SUB NOT AND PUSH1 0x1 PUSH1 0x1 PUSH1 0xA0 SHL SUB DUP4 AND SWAP1 DUP2 OR SWAP1 SWAP2 SSTORE PUSH0 PUSH1 0x5 DUP2 SWAP1 SSTORE PUSH1 0x40 MLOAD PUSH32 0xBBB5FB2EE7E707AE0C968F63E94211EA81E66A718C34E2F810A7619E5678A217 SWAP2 SWAP1 LOG2 POP JUMP JUMPDEST PUSH1 0x1 SLOAD PUSH1 0x1 PUSH1 0x1 PUSH1 0xA0 SHL SUB AND CALLER EQ PUSH2 0xD22 JUMPI PUSH1 0x40 MLOAD PUSH4 0x762163B PUSH1 0xE3 SHL DUP2 MSTORE PUSH1 0x4 ADD PUSH1 0x40 MLOAD DUP1 SWAP2 SUB SWAP1 REVERT JUMPDEST PUSH1 0x4 SLOAD PUSH1 0x1 PUSH1 0xA8 SHL SWAP1 DIV PUSH1 0xFF AND PUSH2 0xD73 JUMPI PUSH1 0x40 MLOAD PUSH3 0x461BCD PUSH1 0xE5 SHL DUP2 MSTORE PUSH1 0x20 PUSH1 0x4 DUP3 ADD MSTORE PUSH1 0x15 PUSH1 0x24 DUP3 ADD MSTORE PUSH21 0x4E6F7420696E20726561642D6F6E6C79206D6F6465 PUSH1 0x58 SHL PUSH1 0x44 DUP3 ADD MSTORE PUSH1 0x64 ADD PUSH2 0x705 JUMP JUMPDEST PUSH1 0x4 DUP1 SLOAD PUSH1 0xFF PUSH1 0xA8 SHL NOT AND SWAP1 SSTORE PUSH1 0x40 MLOAD PUSH32 0xCE529C8E386C3507A21070ECB409EECF1C31018E8F44C12728797935E7CD5529 SWAP1 PUSH0 SWAP1 LOG1 JUMP JUMPDEST PUSH2 0xDB2 PUSH2 0x105E JUMP JUMPDEST PUSH2 0xDBA PUSH2 0x1275 JUMP JUMPDEST PUSH1 0x1 PUSH1 0x1 PUSH1 0xA0 SHL SUB DUP3 AND PUSH2 0xE02 JUMPI PUSH1 0x40 MLOAD PUSH3 0x461BCD PUSH1 0xE5 SHL DUP2 MSTORE PUSH1 0x20 PUSH1 0x4 DUP3 ADD MSTORE PUSH1 0xF PUSH1 0x24 DUP3 ADD MSTORE PUSH15 0x496E76616C69642061646472657373 PUSH1 0x88 SHL PUSH1 0x44 DUP3 ADD MSTORE PUSH1 0x64 ADD PUSH2 0x705 JUMP JUMPDEST PUSH1 0x1 PUSH1 0xFF DUP3 AND LT DUP1 ISZERO SWAP1 PUSH2 0xE1A JUMPI POP PUSH1 0x5 PUSH1 0xFF DUP3 AND GT ISZERO JUMPDEST PUSH2 0xE58 JUMPI PUSH1 0x40 MLOAD PUSH3 0x461BCD PUSH1 0xE5 SHL DUP2 MSTORE PUSH1 0x20 PUSH1 0x4 DUP3 ADD MSTORE PUSH1 0xF PUSH1 0x24 DUP3 ADD MSTORE PUSH15 0x496E76616C696420707572706F7365 PUSH1 0x88 SHL PUSH1 0x44 DUP3 ADD MSTORE PUSH1 0x64 ADD PUSH2 0x705 JUMP JUMPDEST PUSH1 0x1 PUSH1 0x1 PUSH1 0xA0 SHL SUB DUP3 AND PUSH0 DUP2 DUP2 MSTORE PUSH1 0x6 PUSH1 0x20 SWAP1 DUP2 MSTORE PUSH1 0x40 SWAP2 DUP3 SWAP1 KECCAK256 DUP1 SLOAD PUSH1 0xFF NOT AND PUSH1 0xFF DUP7 AND SWAP1 DUP2 OR SWAP1 SWAP2 SSTORE SWAP2 MLOAD SWAP2 DUP3 MSTORE PUSH32 0xC2D7486EFC2CBB21AB0B0E80A4D953CC19B26CCBB75B412812DC3C861F304291 SWAP2 ADD PUSH1 0x40 MLOAD DUP1 SWAP2 SUB SWAP1 LOG2 POP POP JUMP JUMPDEST PUSH2 0xEBF PUSH2 0x105E JUMP JUMPDEST PUSH2 0xEC7 PUSH2 0x1275 JUMP JUMPDEST PUSH2 0xECF PUSH2 0x12C1 JUMP JUMPDEST PUSH1 0x1 PUSH1 0x1 PUSH1 0xA0 SHL SUB DUP5 AND PUSH0 SWAP1 DUP2 MSTORE PUSH1 0x6 PUSH1 0x20 MSTORE PUSH1 0x40 SWAP1 KECCAK256 SLOAD PUSH1 0xFF AND DUP1 ISZERO PUSH2 0xEFC JUMPI PUSH2 0xEFC DUP6 DUP3 DUP6 DUP6 PUSH2 0x12EC JUMP JUMPDEST PUSH0 DUP1 DUP7 PUSH1 0x1 PUSH1 0x1 PUSH1 0xA0 SHL SUB AND DUP7 DUP7 DUP7 PUSH1 0x40 MLOAD PUSH2 0xF19 SWAP3 SWAP2 SWAP1 PUSH2 0x1C9E JUMP JUMPDEST PUSH0 PUSH1 0x40 MLOAD DUP1 DUP4 SUB DUP2 DUP6 DUP8 GAS CALL SWAP3 POP POP POP RETURNDATASIZE DUP1 PUSH0 DUP2 EQ PUSH2 0xF53 JUMPI PUSH1 0x40 MLOAD SWAP2 POP PUSH1 0x1F NOT PUSH1 0x3F RETURNDATASIZE ADD AND DUP3 ADD PUSH1 0x40 MSTORE RETURNDATASIZE DUP3 MSTORE RETURNDATASIZE PUSH0 PUSH1 0x20 DUP5 ADD RETURNDATACOPY PUSH2 0xF58 JUMP JUMPDEST PUSH1 0x60 SWAP2 POP JUMPDEST POP SWAP2 POP SWAP2 POP DUP2 PUSH2 0xF7D JUMPI DUP1 PUSH1 0x40 MLOAD PUSH4 0x15FCD675 PUSH1 0xE0 SHL DUP2 MSTORE PUSH1 0x4 ADD PUSH2 0x705 SWAP2 SWAP1 PUSH2 0x1BB1 JUMP JUMPDEST DUP7 PUSH1 0x1 PUSH1 0x1 PUSH1 0xA0 SHL SUB AND PUSH32 0x6F6C6D78A4851D4C222C8404FC92372EE84B7B81054305AE8EA3C83C2DABD42E DUP8 PUSH1 0x40 MLOAD PUSH2 0xFB8 SWAP2 DUP2 MSTORE PUSH1 0x20 ADD SWAP1 JUMP JUMPDEST PUSH1 0x40 MLOAD DUP1 SWAP2 SUB SWAP1 LOG2 POP POP POP POP POP POP POP JUMP JUMPDEST PUSH0 PUSH32 0x0 PUSH1 0x40 MLOAD PUSH4 0x1AAB3F0D PUSH1 0xE1 SHL DUP2 MSTORE ADDRESS PUSH1 0x4 DUP3 ADD MSTORE PUSH0 PUSH1 0x24 DUP3 ADD MSTORE PUSH1 0x1 PUSH1 0x1 PUSH1 0xA0 SHL SUB SWAP2 SWAP1 SWAP2 AND SWAP1 PUSH4 0x35567E1A SWAP1 PUSH1 0x44 ADD PUSH1 0x20 PUSH1 0x40 MLOAD DUP1 DUP4 SUB DUP2 DUP7 GAS STATICCALL ISZERO DUP1 ISZERO PUSH2 0x1035 JUMPI RETURNDATASIZE PUSH0 DUP1 RETURNDATACOPY RETURNDATASIZE PUSH0 REVERT JUMPDEST POP POP POP POP PUSH1 0x40 MLOAD RETURNDATASIZE PUSH1 0x1F NOT PUSH1 0x1F DUP3 ADD AND DUP3 ADD DUP1 PUSH1 0x40 MSTORE POP DUP2 ADD SWAP1 PUSH2 0x1059 SWAP2 SWAP1 PUSH2 0x1CAD JUMP JUMPDEST SWAP1 POP SWAP1 JUMP JUMPDEST CALLER PUSH1 0x1 PUSH1 0x1 PUSH1 0xA0 SHL SUB PUSH32 0x0 AND EQ PUSH2 0x10D6 JUMPI PUSH1 0x40 MLOAD PUSH3 0x461BCD PUSH1 0xE5 SHL DUP2 MSTORE PUSH1 0x20 PUSH1 0x4 DUP3 ADD MSTORE PUSH1 0x1C PUSH1 0x24 DUP3 ADD MSTORE PUSH32 0x6163636F756E743A206E6F742066726F6D20456E747279506F696E7400000000 PUSH1 0x44 DUP3 ADD MSTORE PUSH1 0x64 ADD PUSH2 0x705 JUMP JUMPDEST JUMP JUMPDEST PUSH0 DUP1 DUP1 DUP1 PUSH2 0x10EA PUSH2 0x100 DUP8 ADD DUP8 PUSH2 0x1C5B JUMP JUMPDEST DUP2 ADD SWAP1 PUSH2 0x10F7 SWAP2 SWAP1 PUSH2 0x1CC4 JUMP JUMPDEST SWAP3 POP SWAP3 POP SWAP3 POP PUSH1 0x3 SLOAD DUP4 EQ PUSH2 0x1112 JUMPI PUSH1 0x1 SWAP4 POP POP POP POP PUSH2 0x1217 JUMP JUMPDEST PUSH1 0x4 SLOAD PUSH1 0x1 PUSH1 0xA8 SHL SWAP1 DIV PUSH1 0xFF AND ISZERO PUSH2 0x1130 JUMPI PUSH1 0x1 SWAP4 POP POP POP POP PUSH2 0x1217 JUMP JUMPDEST PUSH0 DUP1 SLOAD PUSH1 0x4 DUP1 SLOAD PUSH1 0x40 MLOAD PUSH4 0x478846CB PUSH1 0xE0 SHL DUP2 MSTORE PUSH1 0x1 PUSH1 0x1 PUSH1 0xA0 SHL SUB SWAP4 DUP5 AND SWAP4 PUSH4 0x478846CB SWAP4 PUSH2 0x1169 SWAP4 DUP11 SWAP4 SWAP3 AND SWAP2 DUP10 SWAP2 DUP10 SWAP2 ADD PUSH2 0x1D10 JUMP JUMPDEST PUSH1 0x20 PUSH1 0x40 MLOAD DUP1 DUP4 SUB DUP2 PUSH0 DUP8 GAS CALL ISZERO DUP1 ISZERO PUSH2 0x1185 JUMPI RETURNDATASIZE PUSH0 DUP1 RETURNDATACOPY RETURNDATASIZE PUSH0 REVERT JUMPDEST POP POP POP POP PUSH1 0x40 MLOAD RETURNDATASIZE PUSH1 0x1F NOT PUSH1 0x1F DUP3 ADD AND DUP3 ADD DUP1 PUSH1 0x40 MSTORE POP DUP2 ADD SWAP1 PUSH2 0x11A9 SWAP2 SWAP1 PUSH2 0x1D46 JUMP JUMPDEST SWAP1 POP DUP1 PUSH2 0x11BD JUMPI PUSH1 0x1 SWAP5 POP POP POP POP POP PUSH2 0x1217 JUMP JUMPDEST PUSH1 0x4 DUP1 SLOAD PUSH1 0xFF PUSH1 0xB0 SHL NOT AND PUSH1 0x1 PUSH1 0xB0 SHL OR SWAP1 SSTORE PUSH1 0x5 DUP4 SWAP1 SSTORE PUSH1 0x40 MLOAD PUSH32 0xB329A2518E512DC58360D4ECF87F490D2167E7171BB8A362E7706C1E632A9513 SWAP1 PUSH2 0x1207 SWAP1 DUP6 DUP2 MSTORE PUSH1 0x20 ADD SWAP1 JUMP JUMPDEST PUSH1 0x40 MLOAD DUP1 SWAP2 SUB SWAP1 LOG1 PUSH0 SWAP5 POP POP POP POP POP JUMPDEST SWAP3 SWAP2 POP POP JUMP JUMPDEST POP JUMP JUMPDEST DUP1 ISZERO PUSH2 0x121D JUMPI PUSH1 0x40 MLOAD PUSH0 SWAP1 CALLER SWAP1 PUSH0 NOT SWAP1 DUP5 SWAP1 DUP5 DUP2 DUP2 DUP2 DUP6 DUP9 DUP9 CALL SWAP4 POP POP POP POP RETURNDATASIZE DUP1 PUSH0 DUP2 EQ PUSH2 0x1269 JUMPI PUSH1 0x40 MLOAD SWAP2 POP PUSH1 0x1F NOT PUSH1 0x3F RETURNDATASIZE ADD AND DUP3 ADD PUSH1 0x40 MSTORE RETURNDATASIZE DUP3 MSTORE RETURNDATASIZE PUSH0 PUSH1 0x20 DUP5 ADD RETURNDATACOPY PUSH2 0x126E JUMP JUMPDEST PUSH1 0x60 SWAP2 POP JUMPDEST POP POP POP POP POP JUMP JUMPDEST PUSH1 0x4 SLOAD PUSH1 0x1 PUSH1 0xB0 SHL SWAP1 DIV PUSH1 0xFF AND PUSH2 0x129F JUMPI PUSH1 0x40 MLOAD PUSH4 0x27406DB9 PUSH1 0xE0 SHL DUP2 MSTORE PUSH1 0x4 ADD PUSH1 0x40 MLOAD DUP1 SWAP2 SUB SWAP1 REVERT JUMPDEST PUSH1 0x5 SLOAD TIMESTAMP LT PUSH2 0x10D6 JUMPI PUSH1 0x40 MLOAD PUSH4 0xFE82D25 PUSH1 0xE1 SHL DUP2 MSTORE PUSH1 0x4 ADD PUSH1 0x40 MLOAD DUP1 SWAP2 SUB SWAP1 REVERT JUMPDEST PUSH1 0x4 SLOAD PUSH1 0x1 PUSH1 0xA8 SHL SWAP1 DIV PUSH1 0xFF AND ISZERO PUSH2 0x10D6 JUMPI PUSH1 0x40 MLOAD PUSH4 0x3FBD4E23 PUSH1 0xE1 SHL DUP2 MSTORE PUSH1 0x4 ADD PUSH1 0x40 MLOAD DUP1 SWAP2 SUB SWAP1 REVERT JUMPDEST PUSH1 0x2 NOT PUSH1 0xFF DUP5 AND ADD PUSH2 0x1399 JUMPI PUSH1 0x4 DUP2 LT PUSH2 0x1399 JUMPI PUSH0 PUSH2 0x130E PUSH1 0x4 DUP3 DUP5 DUP7 PUSH2 0x1D65 JUMP JUMPDEST PUSH2 0x1317 SWAP2 PUSH2 0x1D8C JUMP JUMPDEST SWAP1 POP PUSH1 0x1 PUSH1 0x1 PUSH1 0xE0 SHL SUB NOT DUP2 AND PUSH4 0xA9059CBB PUSH1 0xE0 SHL EQ DUP1 ISZERO SWAP1 PUSH2 0x134B JUMPI POP PUSH1 0x1 PUSH1 0x1 PUSH1 0xE0 SHL SUB NOT DUP2 AND PUSH4 0x23B872DD PUSH1 0xE0 SHL EQ ISZERO JUMPDEST PUSH2 0x1397 JUMPI PUSH1 0x40 MLOAD PUSH3 0x461BCD PUSH1 0xE5 SHL DUP2 MSTORE PUSH1 0x20 PUSH1 0x4 DUP3 ADD MSTORE PUSH1 0x1D PUSH1 0x24 DUP3 ADD MSTORE PUSH32 0x446F6373207661756C743A207472616E736665727320626C6F636B6564000000 PUSH1 0x44 DUP3 ADD MSTORE PUSH1 0x64 ADD PUSH2 0x705 JUMP JUMPDEST POP JUMPDEST PUSH1 0x4 NOT PUSH1 0xFF DUP5 AND ADD PUSH2 0x1453 JUMPI DUP1 ISZERO DUP1 PUSH2 0x13D7 JUMPI POP PUSH4 0x70A08231 PUSH1 0xE0 SHL PUSH2 0x13C2 PUSH1 0x4 PUSH0 DUP5 DUP7 PUSH2 0x1D65 JUMP JUMPDEST PUSH2 0x13CB SWAP2 PUSH2 0x1D8C JUMP JUMPDEST PUSH1 0x1 PUSH1 0x1 PUSH1 0xE0 SHL SUB NOT AND EQ JUMPDEST DUP1 PUSH2 0x1407 JUMPI POP PUSH4 0x18160DDD PUSH1 0xE0 SHL PUSH2 0x13F2 PUSH1 0x4 PUSH0 DUP5 DUP7 PUSH2 0x1D65 JUMP JUMPDEST PUSH2 0x13FB SWAP2 PUSH2 0x1D8C JUMP JUMPDEST PUSH1 0x1 PUSH1 0x1 PUSH1 0xE0 SHL SUB NOT AND EQ JUMPDEST PUSH2 0x1453 JUMPI PUSH1 0x40 MLOAD PUSH3 0x461BCD PUSH1 0xE5 SHL DUP2 MSTORE PUSH1 0x20 PUSH1 0x4 DUP3 ADD MSTORE PUSH1 0x1C PUSH1 0x24 DUP3 ADD MSTORE PUSH32 0x4C6564676572207661756C743A2077726974657320626C6F636B656400000000 PUSH1 0x44 DUP3 ADD MSTORE PUSH1 0x64 ADD PUSH2 0x705 JUMP JUMPDEST POP POP POP POP JUMP JUMPDEST ADDRESS PUSH1 0x1 PUSH1 0x1 PUSH1 0xA0 SHL SUB PUSH32 0x0 AND EQ DUP1 PUSH2 0x14DF JUMPI POP PUSH32 0x0 PUSH1 0x1 PUSH1 0x1 PUSH1 0xA0 SHL SUB AND PUSH2 0x14D3 PUSH0 DUP1 MLOAD PUSH1 0x20 PUSH2 0x1DBD DUP4 CODECOPY DUP2 MLOAD SWAP2 MSTORE SLOAD PUSH1 0x1 PUSH1 0x1 PUSH1 0xA0 SHL SUB AND SWAP1 JUMP JUMPDEST PUSH1 0x1 PUSH1 0x1 PUSH1 0xA0 SHL SUB AND EQ ISZERO JUMPDEST ISZERO PUSH2 0x10D6 JUMPI PUSH1 0x40 MLOAD PUSH4 0x703E46DD PUSH1 0xE1 SHL DUP2 MSTORE PUSH1 0x4 ADD PUSH1 0x40 MLOAD DUP1 SWAP2 SUB SWAP1 REVERT JUMPDEST PUSH1 0x1 SLOAD PUSH1 0x1 PUSH1 0x1 PUSH1 0xA0 SHL SUB AND CALLER EQ PUSH2 0x121D JUMPI PUSH1 0x40 MLOAD PUSH4 0x762163B PUSH1 0xE3 SHL DUP2 MSTORE PUSH1 0x4 ADD PUSH1 0x40 MLOAD DUP1 SWAP2 SUB SWAP1 REVERT JUMPDEST DUP2 PUSH1 0x1 PUSH1 0x1 PUSH1 0xA0 SHL SUB AND PUSH4 0x52D1902D PUSH1 0x40 MLOAD DUP2 PUSH4 0xFFFFFFFF AND PUSH1 0xE0 SHL DUP2 MSTORE PUSH1 0x4 ADD PUSH1 0x20 PUSH1 0x40 MLOAD DUP1 DUP4 SUB DUP2 DUP7 GAS STATICCALL SWAP3 POP POP POP DUP1 ISZERO PUSH2 0x1582 JUMPI POP PUSH1 0x40 DUP1 MLOAD PUSH1 0x1F RETURNDATASIZE SWAP1 DUP2 ADD PUSH1 0x1F NOT AND DUP3 ADD SWAP1 SWAP3 MSTORE PUSH2 0x157F SWAP2 DUP2 ADD SWAP1 PUSH2 0x1CAD JUMP JUMPDEST PUSH1 0x1 JUMPDEST PUSH2 0x15AA JUMPI PUSH1 0x40 MLOAD PUSH4 0x4C9C8CE3 PUSH1 0xE0 SHL DUP2 MSTORE PUSH1 0x1 PUSH1 0x1 PUSH1 0xA0 SHL SUB DUP4 AND PUSH1 0x4 DUP3 ADD MSTORE PUSH1 0x24 ADD PUSH2 0x705 JUMP JUMPDEST PUSH0 DUP1 MLOAD PUSH1 0x20 PUSH2 0x1DBD DUP4 CODECOPY DUP2 MLOAD SWAP2 MSTORE DUP2 EQ PUSH2 0x15DA JUMPI PUSH1 0x40 MLOAD PUSH4 0x2A875269 PUSH1 0xE2 SHL DUP2 MSTORE PUSH1 0x4 DUP2 ADD DUP3 SWAP1 MSTORE PUSH1 0x24 ADD PUSH2 0x705 JUMP JUMPDEST PUSH2 0x15E4 DUP4 DUP4 PUSH2 0x165A JUMP JUMPDEST POP POP POP JUMP JUMPDEST ADDRESS PUSH1 0x1 PUSH1 0x1 PUSH1 0xA0 SHL SUB PUSH32 0x0 AND EQ PUSH2 0x10D6 JUMPI PUSH1 0x40 MLOAD PUSH4 0x703E46DD PUSH1 0xE1 SHL DUP2 MSTORE PUSH1 0x4 ADD PUSH1 0x40 MLOAD DUP1 SWAP2 SUB SWAP1 REVERT JUMPDEST PUSH0 DUP1 PUSH32 0xF0C57E16840DF040F15088DC2F81FE391C3923BEC73E23A9662EFC9C229C6A00 PUSH2 0x1217 JUMP JUMPDEST PUSH2 0x1663 DUP3 PUSH2 0x16AF JUMP JUMPDEST PUSH1 0x40 MLOAD PUSH1 0x1 PUSH1 0x1 PUSH1 0xA0 SHL SUB DUP4 AND SWAP1 PUSH32 0xBC7CD75A20EE27FD9ADEBAB32041F755214DBC6BFFA90CC0225B39DA2E5C2D3B SWAP1 PUSH0 SWAP1 LOG2 DUP1 MLOAD ISZERO PUSH2 0x16A7 JUMPI PUSH2 0x15E4 DUP3 DUP3 PUSH2 0x1712 JUMP JUMPDEST PUSH2 0x94C PUSH2 0x17B2 JUMP JUMPDEST DUP1 PUSH1 0x1 PUSH1 0x1 PUSH1 0xA0 SHL SUB AND EXTCODESIZE PUSH0 SUB PUSH2 0x16E4 JUMPI PUSH1 0x40 MLOAD PUSH4 0x4C9C8CE3 PUSH1 0xE0 SHL DUP2 MSTORE PUSH1 0x1 PUSH1 0x1 PUSH1 0xA0 SHL SUB DUP3 AND PUSH1 0x4 DUP3 ADD MSTORE PUSH1 0x24 ADD PUSH2 0x705 JUMP JUMPDEST PUSH0 DUP1 MLOAD PUSH1 0x20 PUSH2 0x1DBD DUP4 CODECOPY DUP2 MLOAD SWAP2 MSTORE DUP1 SLOAD PUSH1 0x1 PUSH1 0x1 PUSH1 0xA0 SHL SUB NOT AND PUSH1 0x1 PUSH1 0x1 PUSH1 0xA0 SHL SUB SWAP3 SWAP1 SWAP3 AND SWAP2 SWAP1 SWAP2 OR SWAP1 SSTORE JUMP JUMPDEST PUSH1 0x60 PUSH0 PUSH2 0x171F DUP5 DUP5 PUSH2 0x17D1 JUMP JUMPDEST SWAP1 POP DUP1 DUP1 ISZERO PUSH2 0x1740 JUMPI POP PUSH0 RETURNDATASIZE GT DUP1 PUSH2 0x1740 JUMPI POP PUSH0 DUP5 PUSH1 0x1 PUSH1 0x1 PUSH1 0xA0 SHL SUB AND EXTCODESIZE GT JUMPDEST ISZERO PUSH2 0x1755 JUMPI PUSH2 0x174D PUSH2 0x17E4 JUMP JUMPDEST SWAP2 POP POP PUSH2 0x1217 JUMP JUMPDEST DUP1 ISZERO PUSH2 0x177F JUMPI PUSH1 0x40 MLOAD PUSH4 0x9996B315 PUSH1 0xE0 SHL DUP2 MSTORE PUSH1 0x1 PUSH1 0x1 PUSH1 0xA0 SHL SUB DUP6 AND PUSH1 0x4 DUP3 ADD MSTORE PUSH1 0x24 ADD PUSH2 0x705 JUMP JUMPDEST RETURNDATASIZE ISZERO PUSH2 0x1792 JUMPI PUSH2 0x178D PUSH2 0x17FD JUMP JUMPDEST PUSH2 0x17AB JUMP JUMPDEST PUSH1 0x40 MLOAD PUSH4 0xD6BDA275 PUSH1 0xE0 SHL DUP2 MSTORE PUSH1 0x4 ADD PUSH1 0x40 MLOAD DUP1 SWAP2 SUB SWAP1 REVERT JUMPDEST POP SWAP3 SWAP2 POP POP JUMP JUMPDEST CALLVALUE ISZERO PUSH2 0x10D6 JUMPI PUSH1 0x40 MLOAD PUSH4 0xB398979F PUSH1 0xE0 SHL DUP2 MSTORE PUSH1 0x4 ADD PUSH1 0x40 MLOAD DUP1 SWAP2 SUB SWAP1 REVERT JUMPDEST PUSH0 DUP1 PUSH0 DUP4 MLOAD PUSH1 0x20 DUP6 ADD DUP7 GAS DELEGATECALL SWAP4 SWAP3 POP POP POP JUMP JUMPDEST PUSH1 0x40 MLOAD RETURNDATASIZE DUP2 MSTORE RETURNDATASIZE PUSH0 PUSH1 0x20 DUP4 ADD RETURNDATACOPY RETURNDATASIZE PUSH1 0x20 ADD DUP2 ADD PUSH1 0x40 MSTORE SWAP1 JUMP JUMPDEST PUSH1 0x40 MLOAD RETURNDATASIZE PUSH0 DUP3 RETURNDATACOPY RETURNDATASIZE DUP2 REVERT JUMPDEST PUSH0 DUP1 DUP4 PUSH1 0x1F DUP5 ADD SLT PUSH2 0x1818 JUMPI PUSH0 DUP1 REVERT JUMPDEST POP DUP2 CALLDATALOAD PUSH8 0xFFFFFFFFFFFFFFFF DUP2 GT ISZERO PUSH2 0x182F JUMPI PUSH0 DUP1 REVERT JUMPDEST PUSH1 0x20 DUP4 ADD SWAP2 POP DUP4 PUSH1 0x20 DUP3 DUP6 ADD ADD GT ISZERO PUSH2 0x1846 JUMPI PUSH0 DUP1 REVERT JUMPDEST SWAP3 POP SWAP3 SWAP1 POP JUMP JUMPDEST PUSH0 DUP1 PUSH1 0x20 DUP4 DUP6 SUB SLT ISZERO PUSH2 0x185E JUMPI PUSH0 DUP1 REVERT JUMPDEST DUP3 CALLDATALOAD PUSH8 0xFFFFFFFFFFFFFFFF DUP2 GT ISZERO PUSH2 0x1874 JUMPI PUSH0 DUP1 REVERT JUMPDEST PUSH2 0x1880 DUP6 DUP3 DUP7 ADD PUSH2 0x1808 JUMP JUMPDEST SWAP1 SWAP7 SWAP1 SWAP6 POP SWAP4 POP POP POP POP JUMP JUMPDEST PUSH0 DUP1 PUSH0 PUSH1 0x60 DUP5 DUP7 SUB SLT ISZERO PUSH2 0x189E JUMPI PUSH0 DUP1 REVERT JUMPDEST DUP4 CALLDATALOAD PUSH8 0xFFFFFFFFFFFFFFFF DUP2 GT ISZERO PUSH2 0x18B4 JUMPI PUSH0 DUP1 REVERT JUMPDEST DUP5 ADD PUSH2 0x120 DUP2 DUP8 SUB SLT ISZERO PUSH2 0x18C6 JUMPI PUSH0 DUP1 REVERT JUMPDEST SWAP6 PUSH1 0x20 DUP6 ADD CALLDATALOAD SWAP6 POP PUSH1 0x40 SWAP1 SWAP5 ADD CALLDATALOAD SWAP4 SWAP3 POP POP POP JUMP JUMPDEST PUSH0 DUP1 DUP4 PUSH1 0x1F DUP5 ADD SLT PUSH2 0x18EB JUMPI PUSH0 DUP1 REVERT JUMPDEST POP DUP2 CALLDATALOAD PUSH8 0xFFFFFFFFFFFFFFFF DUP2 GT ISZERO PUSH2 0x1902 JUMPI PUSH0 DUP1 REVERT JUMPDEST PUSH1 0x20 DUP4 ADD SWAP2 POP DUP4 PUSH1 0x20 DUP3 PUSH1 0x5 SHL DUP6 ADD ADD GT ISZERO PUSH2 0x1846 JUMPI PUSH0 DUP1 REVERT JUMPDEST PUSH0 DUP1 PUSH0 DUP1 PUSH0 DUP1 PUSH1 0x60 DUP8 DUP10 SUB SLT ISZERO PUSH2 0x1931 JUMPI PUSH0 DUP1 REVERT JUMPDEST DUP7 CALLDATALOAD PUSH8 0xFFFFFFFFFFFFFFFF DUP1 DUP3 GT ISZERO PUSH2 0x1948 JUMPI PUSH0 DUP1 REVERT JUMPDEST PUSH2 0x1954 DUP11 DUP4 DUP12 ADD PUSH2 0x18DB JUMP JUMPDEST SWAP1 SWAP9 POP SWAP7 POP PUSH1 0x20 DUP10 ADD CALLDATALOAD SWAP2 POP DUP1 DUP3 GT ISZERO PUSH2 0x196C JUMPI PUSH0 DUP1 REVERT JUMPDEST PUSH2 0x1978 DUP11 DUP4 DUP12 ADD PUSH2 0x18DB JUMP JUMPDEST SWAP1 SWAP7 POP SWAP5 POP PUSH1 0x40 DUP10 ADD CALLDATALOAD SWAP2 POP DUP1 DUP3 GT ISZERO PUSH2 0x1990 JUMPI PUSH0 DUP1 REVERT JUMPDEST POP PUSH2 0x199D DUP10 DUP3 DUP11 ADD PUSH2 0x18DB JUMP JUMPDEST SWAP8 SWAP11 SWAP7 SWAP10 POP SWAP5 SWAP8 POP SWAP3 SWAP6 SWAP4 SWAP5 SWAP3 POP POP POP JUMP JUMPDEST DUP1 CALLDATALOAD PUSH1 0x1 PUSH1 0x1 PUSH1 0xA0 SHL SUB DUP2 AND DUP2 EQ PUSH2 0x19C5 JUMPI PUSH0 DUP1 REVERT JUMPDEST SWAP2 SWAP1 POP JUMP JUMPDEST PUSH4 0x4E487B71 PUSH1 0xE0 SHL PUSH0 MSTORE PUSH1 0x41 PUSH1 0x4 MSTORE PUSH1 0x24 PUSH0 REVERT JUMPDEST PUSH0 DUP3 PUSH1 0x1F DUP4 ADD SLT PUSH2 0x19ED JUMPI PUSH0 DUP1 REVERT JUMPDEST DUP2 CALLDATALOAD PUSH8 0xFFFFFFFFFFFFFFFF DUP1 DUP3 GT ISZERO PUSH2 0x1A08 JUMPI PUSH2 0x1A08 PUSH2 0x19CA JUMP JUMPDEST PUSH1 0x40 MLOAD PUSH1 0x1F DUP4 ADD PUSH1 0x1F NOT SWAP1 DUP2 AND PUSH1 0x3F ADD AND DUP2 ADD SWAP1 DUP3 DUP3 GT DUP2 DUP4 LT OR ISZERO PUSH2 0x1A30 JUMPI PUSH2 0x1A30 PUSH2 0x19CA JUMP JUMPDEST DUP2 PUSH1 0x40 MSTORE DUP4 DUP2 MSTORE DUP7 PUSH1 0x20 DUP6 DUP9 ADD ADD GT ISZERO PUSH2 0x1A48 JUMPI PUSH0 DUP1 REVERT JUMPDEST DUP4 PUSH1 0x20 DUP8 ADD PUSH1 0x20 DUP4 ADD CALLDATACOPY PUSH0 PUSH1 0x20 DUP6 DUP4 ADD ADD MSTORE DUP1 SWAP5 POP POP POP POP POP SWAP3 SWAP2 POP POP JUMP JUMPDEST PUSH0 DUP1 PUSH1 0x40 DUP4 DUP6 SUB SLT ISZERO PUSH2 0x1A78 JUMPI PUSH0 DUP1 REVERT JUMPDEST PUSH2 0x1A81 DUP4 PUSH2 0x19AF JUMP JUMPDEST SWAP2 POP PUSH1 0x20 DUP4 ADD CALLDATALOAD PUSH8 0xFFFFFFFFFFFFFFFF DUP2 GT ISZERO PUSH2 0x1A9C JUMPI PUSH0 DUP1 REVERT JUMPDEST PUSH2 0x1AA8 DUP6 DUP3 DUP7 ADD PUSH2 0x19DE JUMP JUMPDEST SWAP2 POP POP SWAP3 POP SWAP3 SWAP1 POP JUMP JUMPDEST DUP1 CALLDATALOAD PUSH1 0xFF DUP2 AND DUP2 EQ PUSH2 0x19C5 JUMPI PUSH0 DUP1 REVERT JUMPDEST PUSH0 DUP1 PUSH0 DUP1 PUSH0 DUP1 PUSH1 0xC0 DUP8 DUP10 SUB SLT ISZERO PUSH2 0x1AD7 JUMPI PUSH0 DUP1 REVERT JUMPDEST PUSH2 0x1AE0 DUP8 PUSH2 0x19AF JUMP JUMPDEST SWAP6 POP PUSH1 0x20 DUP8 ADD CALLDATALOAD SWAP5 POP PUSH1 0x40 DUP8 ADD CALLDATALOAD SWAP4 POP PUSH2 0x1AFC PUSH1 0x60 DUP9 ADD PUSH2 0x19AF JUMP JUMPDEST SWAP3 POP PUSH2 0x1B0A PUSH1 0x80 DUP9 ADD PUSH2 0x1AB2 JUMP JUMPDEST SWAP2 POP PUSH2 0x1B18 PUSH1 0xA0 DUP9 ADD PUSH2 0x19AF JUMP JUMPDEST SWAP1 POP SWAP3 SWAP6 POP SWAP3 SWAP6 POP SWAP3 SWAP6 JUMP JUMPDEST PUSH0 PUSH1 0x20 DUP3 DUP5 SUB SLT ISZERO PUSH2 0x1B34 JUMPI PUSH0 DUP1 REVERT JUMPDEST PUSH2 0x69E DUP3 PUSH2 0x19AF JUMP JUMPDEST PUSH0 DUP1 PUSH1 0x40 DUP4 DUP6 SUB SLT ISZERO PUSH2 0x1B4E JUMPI PUSH0 DUP1 REVERT JUMPDEST PUSH2 0x1B57 DUP4 PUSH2 0x19AF JUMP JUMPDEST SWAP2 POP PUSH2 0x1B65 PUSH1 0x20 DUP5 ADD PUSH2 0x1AB2 JUMP JUMPDEST SWAP1 POP SWAP3 POP SWAP3 SWAP1 POP JUMP JUMPDEST PUSH0 DUP2 MLOAD DUP1 DUP5 MSTORE PUSH0 JUMPDEST DUP2 DUP2 LT ISZERO PUSH2 0x1B92 JUMPI PUSH1 0x20 DUP2 DUP6 ADD DUP2 ADD MLOAD DUP7 DUP4 ADD DUP3 ADD MSTORE ADD PUSH2 0x1B76 JUMP JUMPDEST POP PUSH0 PUSH1 0x20 DUP3 DUP7 ADD ADD MSTORE PUSH1 0x20 PUSH1 0x1F NOT PUSH1 0x1F DUP4 ADD AND DUP6 ADD ADD SWAP2 POP POP SWAP3 SWAP2 POP POP JUMP JUMPDEST PUSH1 0x20 DUP2 MSTORE PUSH0 PUSH2 0x69E PUSH1 0x20 DUP4 ADD DUP5 PUSH2 0x1B6E JUMP JUMPDEST PUSH0 DUP1 PUSH0 DUP1 PUSH1 0x60 DUP6 DUP8 SUB SLT ISZERO PUSH2 0x1BD6 JUMPI PUSH0 DUP1 REVERT JUMPDEST PUSH2 0x1BDF DUP6 PUSH2 0x19AF JUMP JUMPDEST SWAP4 POP PUSH1 0x20 DUP6 ADD CALLDATALOAD SWAP3 POP PUSH1 0x40 DUP6 ADD CALLDATALOAD PUSH8 0xFFFFFFFFFFFFFFFF DUP2 GT ISZERO PUSH2 0x1C01 JUMPI PUSH0 DUP1 REVERT JUMPDEST PUSH2 0x1C0D DUP8 DUP3 DUP9 ADD PUSH2 0x1808 JUMP JUMPDEST SWAP6 SWAP9 SWAP5 SWAP8 POP SWAP6 POP POP POP POP JUMP JUMPDEST PUSH1 0x20 DUP2 MSTORE DUP2 PUSH1 0x20 DUP3 ADD MSTORE DUP2 DUP4 PUSH1 0x40 DUP4 ADD CALLDATACOPY PUSH0 DUP2 DUP4 ADD PUSH1 0x40 SWAP1 DUP2 ADD SWAP2 SWAP1 SWAP2 MSTORE PUSH1 0x1F SWAP1 SWAP3 ADD PUSH1 0x1F NOT AND ADD ADD SWAP2 SWAP1 POP JUMP JUMPDEST PUSH4 0x4E487B71 PUSH1 0xE0 SHL PUSH0 MSTORE PUSH1 0x32 PUSH1 0x4 MSTORE PUSH1 0x24 PUSH0 REVERT JUMPDEST PUSH0 DUP1 DUP4 CALLDATALOAD PUSH1 0x1E NOT DUP5 CALLDATASIZE SUB ADD DUP2 SLT PUSH2 0x1C70 JUMPI PUSH0 DUP1 REVERT JUMPDEST DUP4 ADD DUP1 CALLDATALOAD SWAP2 POP PUSH8 0xFFFFFFFFFFFFFFFF DUP3 GT ISZERO PUSH2 0x1C8A JUMPI PUSH0 DUP1 REVERT JUMPDEST PUSH1 0x20 ADD SWAP2 POP CALLDATASIZE DUP2 SWAP1 SUB DUP3 SGT ISZERO PUSH2 0x1846 JUMPI PUSH0 DUP1 REVERT JUMPDEST DUP2 DUP4 DUP3 CALLDATACOPY PUSH0 SWAP2 ADD SWAP1 DUP2 MSTORE SWAP2 SWAP1 POP JUMP JUMPDEST PUSH0 PUSH1 0x20 DUP3 DUP5 SUB SLT ISZERO PUSH2 0x1CBD JUMPI PUSH0 DUP1 REVERT JUMPDEST POP MLOAD SWAP2 SWAP1 POP JUMP JUMPDEST PUSH0 DUP1 PUSH0 PUSH1 0x60 DUP5 DUP7 SUB SLT ISZERO PUSH2 0x1CD6 JUMPI PUSH0 DUP1 REVERT JUMPDEST DUP4 CALLDATALOAD SWAP3 POP PUSH1 0x20 DUP5 ADD CALLDATALOAD SWAP2 POP PUSH1 0x40 DUP5 ADD CALLDATALOAD PUSH8 0xFFFFFFFFFFFFFFFF DUP2 GT ISZERO PUSH2 0x1CFA JUMPI PUSH0 DUP1 REVERT JUMPDEST PUSH2 0x1D06 DUP7 DUP3 DUP8 ADD PUSH2 0x19DE JUMP JUMPDEST SWAP2 POP POP SWAP3 POP SWAP3 POP SWAP3 JUMP JUMPDEST DUP5 DUP2 MSTORE PUSH1 0x1 DUP1 PUSH1 0xA0 SHL SUB DUP5 AND PUSH1 0x20 DUP3 ADD MSTORE DUP3 PUSH1 0x40 DUP3 ADD MSTORE PUSH1 0x80 PUSH1 0x60 DUP3 ADD MSTORE PUSH0 PUSH2 0x1D3C PUSH1 0x80 DUP4 ADD DUP5 PUSH2 0x1B6E JUMP JUMPDEST SWAP7 SWAP6 POP POP POP POP POP POP JUMP JUMPDEST PUSH0 PUSH1 0x20 DUP3 DUP5 SUB SLT ISZERO PUSH2 0x1D56 JUMPI PUSH0 DUP1 REVERT JUMPDEST DUP2 MLOAD DUP1 ISZERO ISZERO DUP2 EQ PUSH2 0x69E JUMPI PUSH0 DUP1 REVERT JUMPDEST PUSH0 DUP1 DUP6 DUP6 GT ISZERO PUSH2 0x1D73 JUMPI PUSH0 DUP1 REVERT JUMPDEST DUP4 DUP7 GT ISZERO PUSH2 0x1D7F JUMPI PUSH0 DUP1 REVERT JUMPDEST POP POP DUP3 ADD SWAP4 SWAP2 SWAP1 SWAP3 SUB SWAP2 POP JUMP JUMPDEST PUSH1 0x1 PUSH1 0x1 PUSH1 0xE0 SHL SUB NOT DUP2 CALLDATALOAD DUP2 DUP2 AND SWAP2 PUSH1 0x4 DUP6 LT ISZERO PUSH2 0x1DB4 JUMPI DUP1 DUP2 DUP7 PUSH1 0x4 SUB PUSH1 0x3 SHL SHL DUP4 AND AND SWAP3 POP JUMPDEST POP POP SWAP3 SWAP2 POP POP JUMP INVALID CALLDATASIZE ADDMOD SWAP5 LOG1 EXTCODESIZE LOG1 LOG3 0x21 MOD PUSH8 0xC828492DB98DCA3E KECCAK256 PUSH23 0xCC3735A920A3CA505D382BBCA2646970667358221220D4 0xE1 DUP5 PUSH25 0xBDC55279EAAB7DCFD2E3F47D53DE6B7A7A03DA5183122EE900 0xEA 0xB9 NUMBER PUSH5 0x736F6C6343 STOP ADDMOD XOR STOP CALLER "},"methodIdentifiers":{"authorizeCaller(address)":"2c388d5d","authorizedCallers(address)":"536fff6c","deployVault(address,uint256,bytes32,address,uint8,address)":"e3177652","entryPoint()":"b0d691fe","owner()":"8da5cb5b","predictVaultAddress(address,uint256,bytes32,address)":"6986244d","revokeCaller(address)":"b7743530","transferOwnership(address)":"f2fde38b","vaultImplementation()":"bba48a90"}}}}}