{"contracts/verifiers/ZKVerifier.sol":{"ZKVerifier":{"abi":[{"inputs":[{"internalType":"address","name":"initialOwner","type":"address"}],"stateMutability":"nonpayable","type":"constructor"},{"inputs":[{"internalType":"address","name":"owner","type":"address"}],"name":"OwnableInvalidOwner","type":"error"},{"inputs":[{"internalType":"address","name":"account","type":"address"}],"name":"OwnableUnauthorizedAccount","type":"error"},{"anonymous":false,"inputs":[{"indexed":true,"internalType":"address","name":"previousOwner","type":"address"},{"indexed":true,"internalType":"address","name":"newOwner","type":"address"}],"name":"OwnershipTransferred","type":"event"},{"anonymous":false,"inputs":[{"indexed":true,"internalType":"bytes32","name":"nftMint","type":"bytes32"},{"indexed":true,"internalType":"bytes32","name":"owner","type":"bytes32"},{"indexed":false,"internalType":"uint256","name":"expiry","type":"uint256"}],"name":"OwnershipVerified","type":"event"},{"anonymous":false,"inputs":[{"indexed":true,"internalType":"address","name":"signer","type":"address"},{"indexed":false,"internalType":"bool","name":"approved","type":"bool"}],"name":"SignerUpdated","type":"event"},{"inputs":[],"name":"isActive","outputs":[{"internalType":"bool","name":"","type":"bool"}],"stateMutability":"view","type":"function"},{"inputs":[{"internalType":"bytes32","name":"nftMint","type":"bytes32"}],"name":"lastVerifiedAt","outputs":[{"internalType":"uint256","name":"","type":"uint256"}],"stateMutability":"view","type":"function"},{"inputs":[{"internalType":"bytes32","name":"nftMint","type":"bytes32"}],"name":"lastVerifiedOwner","outputs":[{"internalType":"bytes32","name":"","type":"bytes32"}],"stateMutability":"view","type":"function"},{"inputs":[],"name":"latestSlot","outputs":[{"internalType":"uint64","name":"","type":"uint64"}],"stateMutability":"view","type":"function"},{"inputs":[],"name":"latestStateRoot","outputs":[{"internalType":"bytes32","name":"","type":"bytes32"}],"stateMutability":"view","type":"function"},{"inputs":[],"name":"owner","outputs":[{"internalType":"address","name":"","type":"address"}],"stateMutability":"view","type":"function"},{"inputs":[],"name":"renounceOwnership","outputs":[],"stateMutability":"nonpayable","type":"function"},{"inputs":[{"internalType":"bool","name":"active","type":"bool"}],"name":"setActive","outputs":[],"stateMutability":"nonpayable","type":"function"},{"inputs":[{"internalType":"uint64","name":"","type":"uint64"}],"name":"slotRoots","outputs":[{"internalType":"bytes32","name":"","type":"bytes32"}],"stateMutability":"view","type":"function"},{"inputs":[{"internalType":"uint64","name":"slot","type":"uint64"},{"internalType":"bytes32","name":"stateRoot","type":"bytes32"}],"name":"submitHeader","outputs":[],"stateMutability":"nonpayable","type":"function"},{"inputs":[{"internalType":"address","name":"newOwner","type":"address"}],"name":"transferOwnership","outputs":[],"stateMutability":"nonpayable","type":"function"},{"inputs":[{"internalType":"bytes32","name":"","type":"bytes32"},{"internalType":"bytes32","name":"","type":"bytes32"},{"internalType":"bytes","name":"","type":"bytes"},{"internalType":"uint256","name":"","type":"uint256"}],"name":"verifyOwnership","outputs":[{"internalType":"bool","name":"","type":"bool"}],"stateMutability":"nonpayable","type":"function"}],"evm":{"bytecode":{"linkReferences":{},"object":"608060405234801561000f575f80fd5b5060405161065a38038061065a83398101604081905261002e916100c5565b806001600160a01b03811661005c57604051631e4fbdf760e01b81525f600482015260240160405180910390fd5b61006581610076565b50506005805460ff191690556100f2565b5f80546001600160a01b038381166001600160a01b0319831681178455604051919092169283917f8be0079c531659141344cd1fd0a4f28419497f9722a3daafe3b4186f6b6457e09190a35050565b5f602082840312156100d5575f80fd5b81516001600160a01b03811681146100eb575f80fd5b9392505050565b61055b806100ff5f395ff3fe608060405234801561000f575f80fd5b50600436106100b1575f3560e01c8063acec338a1161006e578063acec338a1461013e578063af716f0914610151578063bb034d3614610164578063d71aa9db14610183578063dfa2d9f0146101a2578063f2fde38b146101d5575f80fd5b806322f3e2d4146100b55780633d4b7596146100d1578063410fbdda146100e6578063715018a6146101135780638da5cb5b1461011b578063991beafd14610135575b5f80fd5b60055460ff165b60405190151581526020015b60405180910390f35b6100e46100df366004610401565b6101e8565b005b6101056100f4366004610429565b5f9081526003602052604090205490565b6040519081526020016100c8565b6100e4610298565b5f546040516001600160a01b0390911681526020016100c8565b61010560015481565b6100e461014c366004610440565b6102ab565b6100bc61015f366004610466565b6102c6565b6101056101723660046104e6565b60026020525f908152604090205481565b610105610191366004610429565b5f9081526004602052604090205490565b5f546101bc90600160a01b900467ffffffffffffffff1681565b60405167ffffffffffffffff90911681526020016100c8565b6100e46101e33660046104ff565b61032d565b6101f061036a565b5f5467ffffffffffffffff600160a01b90910481169083161161025a5760405162461bcd60e51b815260206004820152601a60248201527f5a4b56657269666965723a20736c6f74206e6f74206e6577657200000000000060448201526064015b60405180910390fd5b5f805467ffffffffffffffff60a01b1916600160a01b67ffffffffffffffff9490941693840217815560018290559182526002602052604090912055565b6102a061036a565b6102a95f610396565b565b6102b361036a565b6005805460ff1916911515919091179055565b60405162461bcd60e51b815260206004820152603460248201527f5a4b56657269666965723a206e6f742079657420696d706c656d656e7465642060448201527316903ab9b29027b930b1b632ab32b934b334b2b960611b60648201525f90608401610251565b61033561036a565b6001600160a01b03811661035e57604051631e4fbdf760e01b81525f6004820152602401610251565b61036781610396565b50565b5f546001600160a01b031633146102a95760405163118cdaa760e01b8152336004820152602401610251565b5f80546001600160a01b038381166001600160a01b0319831681178455604051919092169283917f8be0079c531659141344cd1fd0a4f28419497f9722a3daafe3b4186f6b6457e09190a35050565b803567ffffffffffffffff811681146103fc575f80fd5b919050565b5f8060408385031215610412575f80fd5b61041b836103e5565b946020939093013593505050565b5f60208284031215610439575f80fd5b5035919050565b5f60208284031215610450575f80fd5b8135801515811461045f575f80fd5b9392505050565b5f805f805f6080868803121561047a575f80fd5b8535945060208601359350604086013567ffffffffffffffff8082111561049f575f80fd5b818801915088601f8301126104b2575f80fd5b8135818111156104c0575f80fd5b8960208285010111156104d1575f80fd5b96999598505060200195606001359392505050565b5f602082840312156104f6575f80fd5b61045f826103e5565b5f6020828403121561050f575f80fd5b81356001600160a01b038116811461045f575f80fdfea26469706673582212205bad7059717337ae5e5cef172a26bb62fecba6890f09ddff87fdfb39bac2871264736f6c63430008180033","opcodes":"PUSH1 0x80 PUSH1 0x40 MSTORE CALLVALUE DUP1 ISZERO PUSH2 0xF JUMPI PUSH0 DUP1 REVERT JUMPDEST POP PUSH1 0x40 MLOAD PUSH2 0x65A CODESIZE SUB DUP1 PUSH2 0x65A DUP4 CODECOPY DUP2 ADD PUSH1 0x40 DUP2 SWAP1 MSTORE PUSH2 0x2E SWAP2 PUSH2 0xC5 JUMP JUMPDEST DUP1 PUSH1 0x1 PUSH1 0x1 PUSH1 0xA0 SHL SUB DUP2 AND PUSH2 0x5C JUMPI PUSH1 0x40 MLOAD PUSH4 0x1E4FBDF7 PUSH1 0xE0 SHL DUP2 MSTORE PUSH0 PUSH1 0x4 DUP3 ADD MSTORE PUSH1 0x24 ADD PUSH1 0x40 MLOAD DUP1 SWAP2 SUB SWAP1 REVERT JUMPDEST PUSH2 0x65 DUP2 PUSH2 0x76 JUMP JUMPDEST POP POP PUSH1 0x5 DUP1 SLOAD PUSH1 0xFF NOT AND SWAP1 SSTORE PUSH2 0xF2 JUMP JUMPDEST PUSH0 DUP1 SLOAD PUSH1 0x1 PUSH1 0x1 PUSH1 0xA0 SHL SUB DUP4 DUP2 AND PUSH1 0x1 PUSH1 0x1 PUSH1 0xA0 SHL SUB NOT DUP4 AND DUP2 OR DUP5 SSTORE PUSH1 0x40 MLOAD SWAP2 SWAP1 SWAP3 AND SWAP3 DUP4 SWAP2 PUSH32 0x8BE0079C531659141344CD1FD0A4F28419497F9722A3DAAFE3B4186F6B6457E0 SWAP2 SWAP1 LOG3 POP POP JUMP JUMPDEST PUSH0 PUSH1 0x20 DUP3 DUP5 SUB SLT ISZERO PUSH2 0xD5 JUMPI PUSH0 DUP1 REVERT JUMPDEST DUP2 MLOAD PUSH1 0x1 PUSH1 0x1 PUSH1 0xA0 SHL SUB DUP2 AND DUP2 EQ PUSH2 0xEB JUMPI PUSH0 DUP1 REVERT JUMPDEST SWAP4 SWAP3 POP POP POP JUMP JUMPDEST PUSH2 0x55B DUP1 PUSH2 0xFF PUSH0 CODECOPY PUSH0 RETURN INVALID PUSH1 0x80 PUSH1 0x40 MSTORE CALLVALUE DUP1 ISZERO PUSH2 0xF JUMPI PUSH0 DUP1 REVERT JUMPDEST POP PUSH1 0x4 CALLDATASIZE LT PUSH2 0xB1 JUMPI PUSH0 CALLDATALOAD PUSH1 0xE0 SHR DUP1 PUSH4 0xACEC338A GT PUSH2 0x6E JUMPI DUP1 PUSH4 0xACEC338A EQ PUSH2 0x13E JUMPI DUP1 PUSH4 0xAF716F09 EQ PUSH2 0x151 JUMPI DUP1 PUSH4 0xBB034D36 EQ PUSH2 0x164 JUMPI DUP1 PUSH4 0xD71AA9DB EQ PUSH2 0x183 JUMPI DUP1 PUSH4 0xDFA2D9F0 EQ PUSH2 0x1A2 JUMPI DUP1 PUSH4 0xF2FDE38B EQ PUSH2 0x1D5 JUMPI PUSH0 DUP1 REVERT JUMPDEST DUP1 PUSH4 0x22F3E2D4 EQ PUSH2 0xB5 JUMPI DUP1 PUSH4 0x3D4B7596 EQ PUSH2 0xD1 JUMPI DUP1 PUSH4 0x410FBDDA EQ PUSH2 0xE6 JUMPI DUP1 PUSH4 0x715018A6 EQ PUSH2 0x113 JUMPI DUP1 PUSH4 0x8DA5CB5B EQ PUSH2 0x11B JUMPI DUP1 PUSH4 0x991BEAFD EQ PUSH2 0x135 JUMPI JUMPDEST PUSH0 DUP1 REVERT JUMPDEST PUSH1 0x5 SLOAD PUSH1 0xFF AND JUMPDEST PUSH1 0x40 MLOAD SWAP1 ISZERO ISZERO DUP2 MSTORE PUSH1 0x20 ADD JUMPDEST PUSH1 0x40 MLOAD DUP1 SWAP2 SUB SWAP1 RETURN JUMPDEST PUSH2 0xE4 PUSH2 0xDF CALLDATASIZE PUSH1 0x4 PUSH2 0x401 JUMP JUMPDEST PUSH2 0x1E8 JUMP JUMPDEST STOP JUMPDEST PUSH2 0x105 PUSH2 0xF4 CALLDATASIZE PUSH1 0x4 PUSH2 0x429 JUMP JUMPDEST PUSH0 SWAP1 DUP2 MSTORE PUSH1 0x3 PUSH1 0x20 MSTORE PUSH1 0x40 SWAP1 KECCAK256 SLOAD SWAP1 JUMP JUMPDEST PUSH1 0x40 MLOAD SWAP1 DUP2 MSTORE PUSH1 0x20 ADD PUSH2 0xC8 JUMP JUMPDEST PUSH2 0xE4 PUSH2 0x298 JUMP JUMPDEST PUSH0 SLOAD PUSH1 0x40 MLOAD PUSH1 0x1 PUSH1 0x1 PUSH1 0xA0 SHL SUB SWAP1 SWAP2 AND DUP2 MSTORE PUSH1 0x20 ADD PUSH2 0xC8 JUMP JUMPDEST PUSH2 0x105 PUSH1 0x1 SLOAD DUP2 JUMP JUMPDEST PUSH2 0xE4 PUSH2 0x14C CALLDATASIZE PUSH1 0x4 PUSH2 0x440 JUMP JUMPDEST PUSH2 0x2AB JUMP JUMPDEST PUSH2 0xBC PUSH2 0x15F CALLDATASIZE PUSH1 0x4 PUSH2 0x466 JUMP JUMPDEST PUSH2 0x2C6 JUMP JUMPDEST PUSH2 0x105 PUSH2 0x172 CALLDATASIZE PUSH1 0x4 PUSH2 0x4E6 JUMP JUMPDEST PUSH1 0x2 PUSH1 0x20 MSTORE PUSH0 SWAP1 DUP2 MSTORE PUSH1 0x40 SWAP1 KECCAK256 SLOAD DUP2 JUMP JUMPDEST PUSH2 0x105 PUSH2 0x191 CALLDATASIZE PUSH1 0x4 PUSH2 0x429 JUMP JUMPDEST PUSH0 SWAP1 DUP2 MSTORE PUSH1 0x4 PUSH1 0x20 MSTORE PUSH1 0x40 SWAP1 KECCAK256 SLOAD SWAP1 JUMP JUMPDEST PUSH0 SLOAD PUSH2 0x1BC SWAP1 PUSH1 0x1 PUSH1 0xA0 SHL SWAP1 DIV PUSH8 0xFFFFFFFFFFFFFFFF AND DUP2 JUMP JUMPDEST PUSH1 0x40 MLOAD PUSH8 0xFFFFFFFFFFFFFFFF SWAP1 SWAP2 AND DUP2 MSTORE PUSH1 0x20 ADD PUSH2 0xC8 JUMP JUMPDEST PUSH2 0xE4 PUSH2 0x1E3 CALLDATASIZE PUSH1 0x4 PUSH2 0x4FF JUMP JUMPDEST PUSH2 0x32D JUMP JUMPDEST PUSH2 0x1F0 PUSH2 0x36A JUMP JUMPDEST PUSH0 SLOAD PUSH8 0xFFFFFFFFFFFFFFFF PUSH1 0x1 PUSH1 0xA0 SHL SWAP1 SWAP2 DIV DUP2 AND SWAP1 DUP4 AND GT PUSH2 0x25A JUMPI PUSH1 0x40 MLOAD PUSH3 0x461BCD PUSH1 0xE5 SHL DUP2 MSTORE PUSH1 0x20 PUSH1 0x4 DUP3 ADD MSTORE PUSH1 0x1A PUSH1 0x24 DUP3 ADD MSTORE PUSH32 0x5A4B56657269666965723A20736C6F74206E6F74206E65776572000000000000 PUSH1 0x44 DUP3 ADD MSTORE PUSH1 0x64 ADD JUMPDEST PUSH1 0x40 MLOAD DUP1 SWAP2 SUB SWAP1 REVERT JUMPDEST PUSH0 DUP1 SLOAD PUSH8 0xFFFFFFFFFFFFFFFF PUSH1 0xA0 SHL NOT AND PUSH1 0x1 PUSH1 0xA0 SHL PUSH8 0xFFFFFFFFFFFFFFFF SWAP5 SWAP1 SWAP5 AND SWAP4 DUP5 MUL OR DUP2 SSTORE PUSH1 0x1 DUP3 SWAP1 SSTORE SWAP2 DUP3 MSTORE PUSH1 0x2 PUSH1 0x20 MSTORE PUSH1 0x40 SWAP1 SWAP2 KECCAK256 SSTORE JUMP JUMPDEST PUSH2 0x2A0 PUSH2 0x36A JUMP JUMPDEST PUSH2 0x2A9 PUSH0 PUSH2 0x396 JUMP JUMPDEST JUMP JUMPDEST PUSH2 0x2B3 PUSH2 0x36A JUMP JUMPDEST PUSH1 0x5 DUP1 SLOAD PUSH1 0xFF NOT AND SWAP2 ISZERO ISZERO SWAP2 SWAP1 SWAP2 OR SWAP1 SSTORE JUMP JUMPDEST PUSH1 0x40 MLOAD PUSH3 0x461BCD PUSH1 0xE5 SHL DUP2 MSTORE PUSH1 0x20 PUSH1 0x4 DUP3 ADD MSTORE PUSH1 0x34 PUSH1 0x24 DUP3 ADD MSTORE PUSH32 0x5A4B56657269666965723A206E6F742079657420696D706C656D656E74656420 PUSH1 0x44 DUP3 ADD MSTORE PUSH20 0x16903AB9B29027B930B1B632AB32B934B334B2B9 PUSH1 0x61 SHL PUSH1 0x64 DUP3 ADD MSTORE PUSH0 SWAP1 PUSH1 0x84 ADD PUSH2 0x251 JUMP JUMPDEST PUSH2 0x335 PUSH2 0x36A JUMP JUMPDEST PUSH1 0x1 PUSH1 0x1 PUSH1 0xA0 SHL SUB DUP2 AND PUSH2 0x35E JUMPI PUSH1 0x40 MLOAD PUSH4 0x1E4FBDF7 PUSH1 0xE0 SHL DUP2 MSTORE PUSH0 PUSH1 0x4 DUP3 ADD MSTORE PUSH1 0x24 ADD PUSH2 0x251 JUMP JUMPDEST PUSH2 0x367 DUP2 PUSH2 0x396 JUMP JUMPDEST POP JUMP JUMPDEST PUSH0 SLOAD PUSH1 0x1 PUSH1 0x1 PUSH1 0xA0 SHL SUB AND CALLER EQ PUSH2 0x2A9 JUMPI PUSH1 0x40 MLOAD PUSH4 0x118CDAA7 PUSH1 0xE0 SHL DUP2 MSTORE CALLER PUSH1 0x4 DUP3 ADD MSTORE PUSH1 0x24 ADD PUSH2 0x251 JUMP JUMPDEST PUSH0 DUP1 SLOAD PUSH1 0x1 PUSH1 0x1 PUSH1 0xA0 SHL SUB DUP4 DUP2 AND PUSH1 0x1 PUSH1 0x1 PUSH1 0xA0 SHL SUB NOT DUP4 AND DUP2 OR DUP5 SSTORE PUSH1 0x40 MLOAD SWAP2 SWAP1 SWAP3 AND SWAP3 DUP4 SWAP2 PUSH32 0x8BE0079C531659141344CD1FD0A4F28419497F9722A3DAAFE3B4186F6B6457E0 SWAP2 SWAP1 LOG3 POP POP JUMP JUMPDEST DUP1 CALLDATALOAD PUSH8 0xFFFFFFFFFFFFFFFF DUP2 AND DUP2 EQ PUSH2 0x3FC JUMPI PUSH0 DUP1 REVERT JUMPDEST SWAP2 SWAP1 POP JUMP JUMPDEST PUSH0 DUP1 PUSH1 0x40 DUP4 DUP6 SUB SLT ISZERO PUSH2 0x412 JUMPI PUSH0 DUP1 REVERT JUMPDEST PUSH2 0x41B DUP4 PUSH2 0x3E5 JUMP JUMPDEST SWAP5 PUSH1 0x20 SWAP4 SWAP1 SWAP4 ADD CALLDATALOAD SWAP4 POP POP POP JUMP JUMPDEST PUSH0 PUSH1 0x20 DUP3 DUP5 SUB SLT ISZERO PUSH2 0x439 JUMPI PUSH0 DUP1 REVERT JUMPDEST POP CALLDATALOAD SWAP2 SWAP1 POP JUMP JUMPDEST PUSH0 PUSH1 0x20 DUP3 DUP5 SUB SLT ISZERO PUSH2 0x450 JUMPI PUSH0 DUP1 REVERT JUMPDEST DUP2 CALLDATALOAD DUP1 ISZERO ISZERO DUP2 EQ PUSH2 0x45F JUMPI PUSH0 DUP1 REVERT JUMPDEST SWAP4 SWAP3 POP POP POP JUMP JUMPDEST PUSH0 DUP1 PUSH0 DUP1 PUSH0 PUSH1 0x80 DUP7 DUP9 SUB SLT ISZERO PUSH2 0x47A JUMPI PUSH0 DUP1 REVERT JUMPDEST DUP6 CALLDATALOAD SWAP5 POP PUSH1 0x20 DUP7 ADD CALLDATALOAD SWAP4 POP PUSH1 0x40 DUP7 ADD CALLDATALOAD PUSH8 0xFFFFFFFFFFFFFFFF DUP1 DUP3 GT ISZERO PUSH2 0x49F JUMPI PUSH0 DUP1 REVERT JUMPDEST DUP2 DUP9 ADD SWAP2 POP DUP9 PUSH1 0x1F DUP4 ADD SLT PUSH2 0x4B2 JUMPI PUSH0 DUP1 REVERT JUMPDEST DUP2 CALLDATALOAD DUP2 DUP2 GT ISZERO PUSH2 0x4C0 JUMPI PUSH0 DUP1 REVERT JUMPDEST DUP10 PUSH1 0x20 DUP3 DUP6 ADD ADD GT ISZERO PUSH2 0x4D1 JUMPI PUSH0 DUP1 REVERT JUMPDEST SWAP7 SWAP10 SWAP6 SWAP9 POP POP PUSH1 0x20 ADD SWAP6 PUSH1 0x60 ADD CALLDATALOAD SWAP4 SWAP3 POP POP POP JUMP JUMPDEST PUSH0 PUSH1 0x20 DUP3 DUP5 SUB SLT ISZERO PUSH2 0x4F6 JUMPI PUSH0 DUP1 REVERT JUMPDEST PUSH2 0x45F DUP3 PUSH2 0x3E5 JUMP JUMPDEST PUSH0 PUSH1 0x20 DUP3 DUP5 SUB SLT ISZERO PUSH2 0x50F JUMPI PUSH0 DUP1 REVERT JUMPDEST DUP2 CALLDATALOAD PUSH1 0x1 PUSH1 0x1 PUSH1 0xA0 SHL SUB DUP2 AND DUP2 EQ PUSH2 0x45F JUMPI PUSH0 DUP1 REVERT INVALID LOG2 PUSH5 0x6970667358 0x22 SLT KECCAK256 JUMPDEST 0xAD PUSH17 0x59717337AE5E5CEF172A26BB62FECBA689 0xF MULMOD 0xDD SELFDESTRUCT DUP8 REVERT 0xFB CODECOPY 0xBA 0xC2 DUP8 SLT PUSH5 0x736F6C6343 STOP ADDMOD XOR STOP CALLER "},"methodIdentifiers":{"isActive()":"22f3e2d4","lastVerifiedAt(bytes32)":"d71aa9db","lastVerifiedOwner(bytes32)":"410fbdda","latestSlot()":"dfa2d9f0","latestStateRoot()":"991beafd","owner()":"8da5cb5b","renounceOwnership()":"715018a6","setActive(bool)":"acec338a","slotRoots(uint64)":"bb034d36","submitHeader(uint64,bytes32)":"3d4b7596","transferOwnership(address)":"f2fde38b","verifyOwnership(bytes32,bytes32,bytes,uint256)":"af716f09"}}}}}