{"contracts/verifiers/OracleVerifier.sol":{"OracleVerifier":{"abi":[{"inputs":[{"internalType":"address","name":"initialOwner","type":"address"},{"internalType":"address","name":"initialSigner","type":"address"}],"stateMutability":"nonpayable","type":"constructor"},{"inputs":[],"name":"ECDSAInvalidSignature","type":"error"},{"inputs":[{"internalType":"uint256","name":"length","type":"uint256"}],"name":"ECDSAInvalidSignatureLength","type":"error"},{"inputs":[{"internalType":"bytes32","name":"s","type":"bytes32"}],"name":"ECDSAInvalidSignatureS","type":"error"},{"inputs":[],"name":"EnforcedPause","type":"error"},{"inputs":[],"name":"ExpectedPause","type":"error"},{"inputs":[{"internalType":"address","name":"owner","type":"address"}],"name":"OwnableInvalidOwner","type":"error"},{"inputs":[{"internalType":"address","name":"account","type":"address"}],"name":"OwnableUnauthorizedAccount","type":"error"},{"anonymous":false,"inputs":[{"indexed":true,"internalType":"address","name":"previousOwner","type":"address"},{"indexed":true,"internalType":"address","name":"newOwner","type":"address"}],"name":"OwnershipTransferred","type":"event"},{"anonymous":false,"inputs":[{"indexed":true,"internalType":"bytes32","name":"nftMint","type":"bytes32"},{"indexed":true,"internalType":"bytes32","name":"owner","type":"bytes32"},{"indexed":false,"internalType":"uint256","name":"expiry","type":"uint256"}],"name":"OwnershipVerified","type":"event"},{"anonymous":false,"inputs":[{"indexed":false,"internalType":"address","name":"account","type":"address"}],"name":"Paused","type":"event"},{"anonymous":false,"inputs":[{"indexed":true,"internalType":"address","name":"signer","type":"address"},{"indexed":false,"internalType":"bool","name":"approved","type":"bool"}],"name":"SignerUpdated","type":"event"},{"anonymous":false,"inputs":[{"indexed":false,"internalType":"address","name":"account","type":"address"}],"name":"Unpaused","type":"event"},{"inputs":[{"internalType":"address","name":"","type":"address"}],"name":"approvedSigners","outputs":[{"internalType":"bool","name":"","type":"bool"}],"stateMutability":"view","type":"function"},{"inputs":[],"name":"isActive","outputs":[{"internalType":"bool","name":"","type":"bool"}],"stateMutability":"view","type":"function"},{"inputs":[{"internalType":"bytes32","name":"nftMint","type":"bytes32"}],"name":"lastVerifiedAt","outputs":[{"internalType":"uint256","name":"","type":"uint256"}],"stateMutability":"view","type":"function"},{"inputs":[{"internalType":"bytes32","name":"nftMint","type":"bytes32"}],"name":"lastVerifiedOwner","outputs":[{"internalType":"bytes32","name":"","type":"bytes32"}],"stateMutability":"view","type":"function"},{"inputs":[],"name":"maxProofAge","outputs":[{"internalType":"uint256","name":"","type":"uint256"}],"stateMutability":"view","type":"function"},{"inputs":[],"name":"owner","outputs":[{"internalType":"address","name":"","type":"address"}],"stateMutability":"view","type":"function"},{"inputs":[],"name":"pause","outputs":[],"stateMutability":"nonpayable","type":"function"},{"inputs":[],"name":"paused","outputs":[{"internalType":"bool","name":"","type":"bool"}],"stateMutability":"view","type":"function"},{"inputs":[],"name":"renounceOwnership","outputs":[],"stateMutability":"nonpayable","type":"function"},{"inputs":[{"internalType":"uint256","name":"newAge","type":"uint256"}],"name":"setMaxProofAge","outputs":[],"stateMutability":"nonpayable","type":"function"},{"inputs":[{"internalType":"address","name":"signer","type":"address"},{"internalType":"bool","name":"approved","type":"bool"}],"name":"setSigner","outputs":[],"stateMutability":"nonpayable","type":"function"},{"inputs":[{"internalType":"address","name":"newOwner","type":"address"}],"name":"transferOwnership","outputs":[],"stateMutability":"nonpayable","type":"function"},{"inputs":[],"name":"unpause","outputs":[],"stateMutability":"nonpayable","type":"function"},{"inputs":[{"internalType":"bytes32","name":"nftMint","type":"bytes32"},{"internalType":"bytes32","name":"owner","type":"bytes32"},{"internalType":"bytes","name":"proof","type":"bytes"},{"internalType":"uint256","name":"expiry","type":"uint256"}],"name":"verifyOwnership","outputs":[{"internalType":"bool","name":"valid","type":"bool"}],"stateMutability":"nonpayable","type":"function"}],"evm":{"bytecode":{"linkReferences":{},"object":"608060405261012c600555348015610015575f80fd5b50604051610d95380380610d958339810160408190526100349161019d565b816001600160a01b03811661006357604051631e4fbdf760e01b81525f60048201526024015b60405180910390fd5b61006c8161007f565b506100788160016100ce565b50506101ce565b5f80546001600160a01b038381166001600160a01b0319831681178455604051919092169283917f8be0079c531659141344cd1fd0a4f28419497f9722a3daafe3b4186f6b6457e09190a35050565b6001600160a01b0382166101245760405162461bcd60e51b815260206004820152601c60248201527f4f7261636c6556657269666965723a207a65726f206164647265737300000000604482015260640161005a565b6001600160a01b0382165f81815260016020908152604091829020805460ff191685151590811790915591519182527ffcaa24b1276bfa7dbf77797c0a984b9df924acbeaabd48cd2f1b0eca379b78fa910160405180910390a25050565b80516001600160a01b0381168114610198575f80fd5b919050565b5f80604083850312156101ae575f80fd5b6101b783610182565b91506101c560208401610182565b90509250929050565b610bba806101db5f395ff3fe608060405234801561000f575f80fd5b50600436106100e5575f3560e01c8063715018a6116100885780638da5cb5b116100635780638da5cb5b146101b5578063af716f09146101cf578063d71aa9db146101e2578063f2fde38b14610201575f80fd5b8063715018a6146101835780638456cb591461018b5780638a87551214610193575f80fd5b80633f4ba83a116100c35780633f4ba83a14610134578063410fbdda1461013c5780635c975abb146101695780636f5b6b201461017a575f80fd5b80631bddcb19146100e957806322f3e2d4146100fe57806331cb610514610121575b5f80fd5b6100fc6100f7366004610a46565b610214565b005b5f54600160a01b900460ff16155b60405190151581526020015b60405180910390f35b6100fc61012f366004610a78565b610285565b6100fc61029b565b61015b61014a366004610a46565b5f9081526002602052604090205490565b604051908152602001610118565b5f54600160a01b900460ff1661010c565b61015b60055481565b6100fc6102ad565b6100fc6102be565b61010c6101a1366004610ab1565b60016020525f908152604090205460ff1681565b5f546040516001600160a01b039091168152602001610118565b61010c6101dd366004610ad1565b6102ce565b61015b6101f0366004610a46565b5f9081526003602052604090205490565b6100fc61020f366004610ab1565b6105fe565b61021c61063b565b603c811015801561022f5750610e108111155b6102805760405162461bcd60e51b815260206004820181905260248201527f4f7261636c6556657269666965723a20616765206f7574206f662072616e676560448201526064015b60405180910390fd5b600555565b61028d61063b565b6102978282610667565b5050565b6102a361063b565b6102ab61071b565b565b6102b561063b565b6102ab5f61076f565b6102c661063b565b6102ab6107be565b5f6102d7610800565b814211156103275760405162461bcd60e51b815260206004820152601d60248201527f4f7261636c6556657269666965723a2070726f6f6620657870697265640000006044820152606401610277565b6005546103349042610b51565b82111561039a5760405162461bcd60e51b815260206004820152602e60248201527f4f7261636c6556657269666965723a2070726f6f662065787069727920746f6f60448201526d2066617220696e2066757475726560901b6064820152608401610277565b604183146103f65760405162461bcd60e51b8152602060048201526024808201527f4f7261636c6556657269666965723a20696e76616c69642070726f6f66206c656044820152630dccee8d60e31b6064820152608401610277565b6040805160208101889052908101869052606081018390524660808201525f906104659060a001604051602081830303815290604052805190602001207f19457468657265756d205369676e6564204d6573736167653a0a3332000000005f908152601c91909152603c902090565b5f8181526004602052604090205490915060ff16156104d15760405162461bcd60e51b815260206004820152602260248201527f4f7261636c6556657269666965723a2070726f6f6620616c7265616479207573604482015261195960f21b6064820152608401610277565b5f61051386868080601f0160208091040260200160405190810160405280939291908181526020018383808284375f92019190915250869392505061082a9050565b6001600160a01b0381165f9081526001602052604090205490915060ff166105895760405162461bcd60e51b815260206004820152602360248201527f4f7261636c6556657269666965723a207369676e6572206e6f7420617070726f6044820152621d995960ea1b6064820152608401610277565b5f828152600460209081526040808320805460ff191660011790558a8352600282528083208a90556003825291829020429055905185815288918a917ffc3b85faf690576aaa0780feea072b9f19c4397edbd53cf666c8fc72c106704b910160405180910390a3506001979650505050505050565b61060661063b565b6001600160a01b03811661062f57604051631e4fbdf760e01b81525f6004820152602401610277565b6106388161076f565b50565b5f546001600160a01b031633146102ab5760405163118cdaa760e01b8152336004820152602401610277565b6001600160a01b0382166106bd5760405162461bcd60e51b815260206004820152601c60248201527f4f7261636c6556657269666965723a207a65726f2061646472657373000000006044820152606401610277565b6001600160a01b0382165f81815260016020908152604091829020805460ff191685151590811790915591519182527ffcaa24b1276bfa7dbf77797c0a984b9df924acbeaabd48cd2f1b0eca379b78fa910160405180910390a25050565b610723610854565b5f805460ff60a01b191690557f5db9ee0a495bf2e6ff9c91a7834c1ba4fdd244a5e8aa4e537bd38aeae4b073aa335b6040516001600160a01b03909116815260200160405180910390a1565b5f80546001600160a01b038381166001600160a01b0319831681178455604051919092169283917f8be0079c531659141344cd1fd0a4f28419497f9722a3daafe3b4186f6b6457e09190a35050565b6107c6610800565b5f805460ff60a01b1916600160a01b1790557f62e78cea01bee320cd4e420270b5ea74000d11b0c9f74754ebdbfc544b05a2586107523390565b5f54600160a01b900460ff16156102ab5760405163d93c066560e01b815260040160405180910390fd5b5f805f80610838868661087d565b92509250925061084882826108c6565b50909150505b92915050565b5f54600160a01b900460ff166102ab57604051638dfc202b60e01b815260040160405180910390fd5b5f805f83516041036108b4576020840151604085015160608601515f1a6108a68882858561097e565b9550955095505050506108bf565b505081515f91506002905b9250925092565b5f8260038111156108d9576108d9610b70565b036108e2575050565b60018260038111156108f6576108f6610b70565b036109145760405163f645eedf60e01b815260040160405180910390fd5b600282600381111561092857610928610b70565b036109495760405163fce698f760e01b815260048101829052602401610277565b600382600381111561095d5761095d610b70565b03610297576040516335e2f38360e21b815260048101829052602401610277565b5f80807f7fffffffffffffffffffffffffffffff5d576e7357a4501ddfe92f46681b20a08411156109b757505f91506003905082610a3c565b604080515f808252602082018084528a905260ff891692820192909252606081018790526080810186905260019060a0016020604051602081039080840390855afa158015610a08573d5f803e3d5ffd5b5050604051601f1901519150506001600160a01b038116610a3357505f925060019150829050610a3c565b92505f91508190505b9450945094915050565b5f60208284031215610a56575f80fd5b5035919050565b80356001600160a01b0381168114610a73575f80fd5b919050565b5f8060408385031215610a89575f80fd5b610a9283610a5d565b915060208301358015158114610aa6575f80fd5b809150509250929050565b5f60208284031215610ac1575f80fd5b610aca82610a5d565b9392505050565b5f805f805f60808688031215610ae5575f80fd5b8535945060208601359350604086013567ffffffffffffffff80821115610b0a575f80fd5b818801915088601f830112610b1d575f80fd5b813581811115610b2b575f80fd5b896020828501011115610b3c575f80fd5b96999598505060200195606001359392505050565b8082018082111561084e57634e487b7160e01b5f52601160045260245ffd5b634e487b7160e01b5f52602160045260245ffdfea264697066735822122014ec0f1d81be1232ac224aa38a7d826d30d47eb9732bed3546bef9442e24ebf464736f6c63430008180033","opcodes":"PUSH1 0x80 PUSH1 0x40 MSTORE PUSH2 0x12C PUSH1 0x5 SSTORE CALLVALUE DUP1 ISZERO PUSH2 0x15 JUMPI PUSH0 DUP1 REVERT JUMPDEST POP PUSH1 0x40 MLOAD PUSH2 0xD95 CODESIZE SUB DUP1 PUSH2 0xD95 DUP4 CODECOPY DUP2 ADD PUSH1 0x40 DUP2 SWAP1 MSTORE PUSH2 0x34 SWAP2 PUSH2 0x19D JUMP JUMPDEST DUP2 PUSH1 0x1 PUSH1 0x1 PUSH1 0xA0 SHL SUB DUP2 AND PUSH2 0x63 JUMPI PUSH1 0x40 MLOAD PUSH4 0x1E4FBDF7 PUSH1 0xE0 SHL DUP2 MSTORE PUSH0 PUSH1 0x4 DUP3 ADD MSTORE PUSH1 0x24 ADD JUMPDEST PUSH1 0x40 MLOAD DUP1 SWAP2 SUB SWAP1 REVERT JUMPDEST PUSH2 0x6C DUP2 PUSH2 0x7F JUMP JUMPDEST POP PUSH2 0x78 DUP2 PUSH1 0x1 PUSH2 0xCE JUMP JUMPDEST POP POP PUSH2 0x1CE JUMP JUMPDEST PUSH0 DUP1 SLOAD PUSH1 0x1 PUSH1 0x1 PUSH1 0xA0 SHL SUB DUP4 DUP2 AND PUSH1 0x1 PUSH1 0x1 PUSH1 0xA0 SHL SUB NOT DUP4 AND DUP2 OR DUP5 SSTORE PUSH1 0x40 MLOAD SWAP2 SWAP1 SWAP3 AND SWAP3 DUP4 SWAP2 PUSH32 0x8BE0079C531659141344CD1FD0A4F28419497F9722A3DAAFE3B4186F6B6457E0 SWAP2 SWAP1 LOG3 POP POP JUMP JUMPDEST PUSH1 0x1 PUSH1 0x1 PUSH1 0xA0 SHL SUB DUP3 AND PUSH2 0x124 JUMPI PUSH1 0x40 MLOAD PUSH3 0x461BCD PUSH1 0xE5 SHL DUP2 MSTORE PUSH1 0x20 PUSH1 0x4 DUP3 ADD MSTORE PUSH1 0x1C PUSH1 0x24 DUP3 ADD MSTORE PUSH32 0x4F7261636C6556657269666965723A207A65726F206164647265737300000000 PUSH1 0x44 DUP3 ADD MSTORE PUSH1 0x64 ADD PUSH2 0x5A JUMP JUMPDEST PUSH1 0x1 PUSH1 0x1 PUSH1 0xA0 SHL SUB DUP3 AND PUSH0 DUP2 DUP2 MSTORE PUSH1 0x1 PUSH1 0x20 SWAP1 DUP2 MSTORE PUSH1 0x40 SWAP2 DUP3 SWAP1 KECCAK256 DUP1 SLOAD PUSH1 0xFF NOT AND DUP6 ISZERO ISZERO SWAP1 DUP2 OR SWAP1 SWAP2 SSTORE SWAP2 MLOAD SWAP2 DUP3 MSTORE PUSH32 0xFCAA24B1276BFA7DBF77797C0A984B9DF924ACBEAABD48CD2F1B0ECA379B78FA SWAP2 ADD PUSH1 0x40 MLOAD DUP1 SWAP2 SUB SWAP1 LOG2 POP POP JUMP JUMPDEST DUP1 MLOAD PUSH1 0x1 PUSH1 0x1 PUSH1 0xA0 SHL SUB DUP2 AND DUP2 EQ PUSH2 0x198 JUMPI PUSH0 DUP1 REVERT JUMPDEST SWAP2 SWAP1 POP JUMP JUMPDEST PUSH0 DUP1 PUSH1 0x40 DUP4 DUP6 SUB SLT ISZERO PUSH2 0x1AE JUMPI PUSH0 DUP1 REVERT JUMPDEST PUSH2 0x1B7 DUP4 PUSH2 0x182 JUMP JUMPDEST SWAP2 POP PUSH2 0x1C5 PUSH1 0x20 DUP5 ADD PUSH2 0x182 JUMP JUMPDEST SWAP1 POP SWAP3 POP SWAP3 SWAP1 POP JUMP JUMPDEST PUSH2 0xBBA DUP1 PUSH2 0x1DB PUSH0 CODECOPY PUSH0 RETURN INVALID PUSH1 0x80 PUSH1 0x40 MSTORE CALLVALUE DUP1 ISZERO PUSH2 0xF JUMPI PUSH0 DUP1 REVERT JUMPDEST POP PUSH1 0x4 CALLDATASIZE LT PUSH2 0xE5 JUMPI PUSH0 CALLDATALOAD PUSH1 0xE0 SHR DUP1 PUSH4 0x715018A6 GT PUSH2 0x88 JUMPI DUP1 PUSH4 0x8DA5CB5B GT PUSH2 0x63 JUMPI DUP1 PUSH4 0x8DA5CB5B EQ PUSH2 0x1B5 JUMPI DUP1 PUSH4 0xAF716F09 EQ PUSH2 0x1CF JUMPI DUP1 PUSH4 0xD71AA9DB EQ PUSH2 0x1E2 JUMPI DUP1 PUSH4 0xF2FDE38B EQ PUSH2 0x201 JUMPI PUSH0 DUP1 REVERT JUMPDEST DUP1 PUSH4 0x715018A6 EQ PUSH2 0x183 JUMPI DUP1 PUSH4 0x8456CB59 EQ PUSH2 0x18B JUMPI DUP1 PUSH4 0x8A875512 EQ PUSH2 0x193 JUMPI PUSH0 DUP1 REVERT JUMPDEST DUP1 PUSH4 0x3F4BA83A GT PUSH2 0xC3 JUMPI DUP1 PUSH4 0x3F4BA83A EQ PUSH2 0x134 JUMPI DUP1 PUSH4 0x410FBDDA EQ PUSH2 0x13C JUMPI DUP1 PUSH4 0x5C975ABB EQ PUSH2 0x169 JUMPI DUP1 PUSH4 0x6F5B6B20 EQ PUSH2 0x17A JUMPI PUSH0 DUP1 REVERT JUMPDEST DUP1 PUSH4 0x1BDDCB19 EQ PUSH2 0xE9 JUMPI DUP1 PUSH4 0x22F3E2D4 EQ PUSH2 0xFE JUMPI DUP1 PUSH4 0x31CB6105 EQ PUSH2 0x121 JUMPI JUMPDEST PUSH0 DUP1 REVERT JUMPDEST PUSH2 0xFC PUSH2 0xF7 CALLDATASIZE PUSH1 0x4 PUSH2 0xA46 JUMP JUMPDEST PUSH2 0x214 JUMP JUMPDEST STOP JUMPDEST PUSH0 SLOAD PUSH1 0x1 PUSH1 0xA0 SHL SWAP1 DIV PUSH1 0xFF AND ISZERO JUMPDEST PUSH1 0x40 MLOAD SWAP1 ISZERO ISZERO DUP2 MSTORE PUSH1 0x20 ADD JUMPDEST PUSH1 0x40 MLOAD DUP1 SWAP2 SUB SWAP1 RETURN JUMPDEST PUSH2 0xFC PUSH2 0x12F CALLDATASIZE PUSH1 0x4 PUSH2 0xA78 JUMP JUMPDEST PUSH2 0x285 JUMP JUMPDEST PUSH2 0xFC PUSH2 0x29B JUMP JUMPDEST PUSH2 0x15B PUSH2 0x14A CALLDATASIZE PUSH1 0x4 PUSH2 0xA46 JUMP JUMPDEST PUSH0 SWAP1 DUP2 MSTORE PUSH1 0x2 PUSH1 0x20 MSTORE PUSH1 0x40 SWAP1 KECCAK256 SLOAD SWAP1 JUMP JUMPDEST PUSH1 0x40 MLOAD SWAP1 DUP2 MSTORE PUSH1 0x20 ADD PUSH2 0x118 JUMP JUMPDEST PUSH0 SLOAD PUSH1 0x1 PUSH1 0xA0 SHL SWAP1 DIV PUSH1 0xFF AND PUSH2 0x10C JUMP JUMPDEST PUSH2 0x15B PUSH1 0x5 SLOAD DUP2 JUMP JUMPDEST PUSH2 0xFC PUSH2 0x2AD JUMP JUMPDEST PUSH2 0xFC PUSH2 0x2BE JUMP JUMPDEST PUSH2 0x10C PUSH2 0x1A1 CALLDATASIZE PUSH1 0x4 PUSH2 0xAB1 JUMP JUMPDEST PUSH1 0x1 PUSH1 0x20 MSTORE PUSH0 SWAP1 DUP2 MSTORE PUSH1 0x40 SWAP1 KECCAK256 SLOAD PUSH1 0xFF AND DUP2 JUMP JUMPDEST PUSH0 SLOAD PUSH1 0x40 MLOAD PUSH1 0x1 PUSH1 0x1 PUSH1 0xA0 SHL SUB SWAP1 SWAP2 AND DUP2 MSTORE PUSH1 0x20 ADD PUSH2 0x118 JUMP JUMPDEST PUSH2 0x10C PUSH2 0x1DD CALLDATASIZE PUSH1 0x4 PUSH2 0xAD1 JUMP JUMPDEST PUSH2 0x2CE JUMP JUMPDEST PUSH2 0x15B PUSH2 0x1F0 CALLDATASIZE PUSH1 0x4 PUSH2 0xA46 JUMP JUMPDEST PUSH0 SWAP1 DUP2 MSTORE PUSH1 0x3 PUSH1 0x20 MSTORE PUSH1 0x40 SWAP1 KECCAK256 SLOAD SWAP1 JUMP JUMPDEST PUSH2 0xFC PUSH2 0x20F CALLDATASIZE PUSH1 0x4 PUSH2 0xAB1 JUMP JUMPDEST PUSH2 0x5FE JUMP JUMPDEST PUSH2 0x21C PUSH2 0x63B JUMP JUMPDEST PUSH1 0x3C DUP2 LT ISZERO DUP1 ISZERO PUSH2 0x22F JUMPI POP PUSH2 0xE10 DUP2 GT ISZERO JUMPDEST PUSH2 0x280 JUMPI PUSH1 0x40 MLOAD PUSH3 0x461BCD PUSH1 0xE5 SHL DUP2 MSTORE PUSH1 0x20 PUSH1 0x4 DUP3 ADD DUP2 SWAP1 MSTORE PUSH1 0x24 DUP3 ADD MSTORE PUSH32 0x4F7261636C6556657269666965723A20616765206F7574206F662072616E6765 PUSH1 0x44 DUP3 ADD MSTORE PUSH1 0x64 ADD JUMPDEST PUSH1 0x40 MLOAD DUP1 SWAP2 SUB SWAP1 REVERT JUMPDEST PUSH1 0x5 SSTORE JUMP JUMPDEST PUSH2 0x28D PUSH2 0x63B JUMP JUMPDEST PUSH2 0x297 DUP3 DUP3 PUSH2 0x667 JUMP JUMPDEST POP POP JUMP JUMPDEST PUSH2 0x2A3 PUSH2 0x63B JUMP JUMPDEST PUSH2 0x2AB PUSH2 0x71B JUMP JUMPDEST JUMP JUMPDEST PUSH2 0x2B5 PUSH2 0x63B JUMP JUMPDEST PUSH2 0x2AB PUSH0 PUSH2 0x76F JUMP JUMPDEST PUSH2 0x2C6 PUSH2 0x63B JUMP JUMPDEST PUSH2 0x2AB PUSH2 0x7BE JUMP JUMPDEST PUSH0 PUSH2 0x2D7 PUSH2 0x800 JUMP JUMPDEST DUP2 TIMESTAMP GT ISZERO PUSH2 0x327 JUMPI PUSH1 0x40 MLOAD PUSH3 0x461BCD PUSH1 0xE5 SHL DUP2 MSTORE PUSH1 0x20 PUSH1 0x4 DUP3 ADD MSTORE PUSH1 0x1D PUSH1 0x24 DUP3 ADD MSTORE PUSH32 0x4F7261636C6556657269666965723A2070726F6F662065787069726564000000 PUSH1 0x44 DUP3 ADD MSTORE PUSH1 0x64 ADD PUSH2 0x277 JUMP JUMPDEST PUSH1 0x5 SLOAD PUSH2 0x334 SWAP1 TIMESTAMP PUSH2 0xB51 JUMP JUMPDEST DUP3 GT ISZERO PUSH2 0x39A JUMPI PUSH1 0x40 MLOAD PUSH3 0x461BCD PUSH1 0xE5 SHL DUP2 MSTORE PUSH1 0x20 PUSH1 0x4 DUP3 ADD MSTORE PUSH1 0x2E PUSH1 0x24 DUP3 ADD MSTORE PUSH32 0x4F7261636C6556657269666965723A2070726F6F662065787069727920746F6F PUSH1 0x44 DUP3 ADD MSTORE PUSH14 0x2066617220696E20667574757265 PUSH1 0x90 SHL PUSH1 0x64 DUP3 ADD MSTORE PUSH1 0x84 ADD PUSH2 0x277 JUMP JUMPDEST PUSH1 0x41 DUP4 EQ PUSH2 0x3F6 JUMPI PUSH1 0x40 MLOAD PUSH3 0x461BCD PUSH1 0xE5 SHL DUP2 MSTORE PUSH1 0x20 PUSH1 0x4 DUP3 ADD MSTORE PUSH1 0x24 DUP1 DUP3 ADD MSTORE PUSH32 0x4F7261636C6556657269666965723A20696E76616C69642070726F6F66206C65 PUSH1 0x44 DUP3 ADD MSTORE PUSH4 0xDCCEE8D PUSH1 0xE3 SHL PUSH1 0x64 DUP3 ADD MSTORE PUSH1 0x84 ADD PUSH2 0x277 JUMP JUMPDEST PUSH1 0x40 DUP1 MLOAD PUSH1 0x20 DUP2 ADD DUP9 SWAP1 MSTORE SWAP1 DUP2 ADD DUP7 SWAP1 MSTORE PUSH1 0x60 DUP2 ADD DUP4 SWAP1 MSTORE CHAINID PUSH1 0x80 DUP3 ADD MSTORE PUSH0 SWAP1 PUSH2 0x465 SWAP1 PUSH1 0xA0 ADD PUSH1 0x40 MLOAD PUSH1 0x20 DUP2 DUP4 SUB SUB DUP2 MSTORE SWAP1 PUSH1 0x40 MSTORE DUP1 MLOAD SWAP1 PUSH1 0x20 ADD KECCAK256 PUSH32 0x19457468657265756D205369676E6564204D6573736167653A0A333200000000 PUSH0 SWAP1 DUP2 MSTORE PUSH1 0x1C SWAP2 SWAP1 SWAP2 MSTORE PUSH1 0x3C SWAP1 KECCAK256 SWAP1 JUMP JUMPDEST PUSH0 DUP2 DUP2 MSTORE PUSH1 0x4 PUSH1 0x20 MSTORE PUSH1 0x40 SWAP1 KECCAK256 SLOAD SWAP1 SWAP2 POP PUSH1 0xFF AND ISZERO PUSH2 0x4D1 JUMPI PUSH1 0x40 MLOAD PUSH3 0x461BCD PUSH1 0xE5 SHL DUP2 MSTORE PUSH1 0x20 PUSH1 0x4 DUP3 ADD MSTORE PUSH1 0x22 PUSH1 0x24 DUP3 ADD MSTORE PUSH32 0x4F7261636C6556657269666965723A2070726F6F6620616C7265616479207573 PUSH1 0x44 DUP3 ADD MSTORE PUSH2 0x1959 PUSH1 0xF2 SHL PUSH1 0x64 DUP3 ADD MSTORE PUSH1 0x84 ADD PUSH2 0x277 JUMP JUMPDEST PUSH0 PUSH2 0x513 DUP7 DUP7 DUP1 DUP1 PUSH1 0x1F ADD PUSH1 0x20 DUP1 SWAP2 DIV MUL PUSH1 0x20 ADD PUSH1 0x40 MLOAD SWAP1 DUP2 ADD PUSH1 0x40 MSTORE DUP1 SWAP4 SWAP3 SWAP2 SWAP1 DUP2 DUP2 MSTORE PUSH1 0x20 ADD DUP4 DUP4 DUP1 DUP3 DUP5 CALLDATACOPY PUSH0 SWAP3 ADD SWAP2 SWAP1 SWAP2 MSTORE POP DUP7 SWAP4 SWAP3 POP POP PUSH2 0x82A SWAP1 POP JUMP JUMPDEST PUSH1 0x1 PUSH1 0x1 PUSH1 0xA0 SHL SUB DUP2 AND PUSH0 SWAP1 DUP2 MSTORE PUSH1 0x1 PUSH1 0x20 MSTORE PUSH1 0x40 SWAP1 KECCAK256 SLOAD SWAP1 SWAP2 POP PUSH1 0xFF AND PUSH2 0x589 JUMPI PUSH1 0x40 MLOAD PUSH3 0x461BCD PUSH1 0xE5 SHL DUP2 MSTORE PUSH1 0x20 PUSH1 0x4 DUP3 ADD MSTORE PUSH1 0x23 PUSH1 0x24 DUP3 ADD MSTORE PUSH32 0x4F7261636C6556657269666965723A207369676E6572206E6F7420617070726F PUSH1 0x44 DUP3 ADD MSTORE PUSH3 0x1D9959 PUSH1 0xEA SHL PUSH1 0x64 DUP3 ADD MSTORE PUSH1 0x84 ADD PUSH2 0x277 JUMP JUMPDEST PUSH0 DUP3 DUP2 MSTORE PUSH1 0x4 PUSH1 0x20 SWAP1 DUP2 MSTORE PUSH1 0x40 DUP1 DUP4 KECCAK256 DUP1 SLOAD PUSH1 0xFF NOT AND PUSH1 0x1 OR SWAP1 SSTORE DUP11 DUP4 MSTORE PUSH1 0x2 DUP3 MSTORE DUP1 DUP4 KECCAK256 DUP11 SWAP1 SSTORE PUSH1 0x3 DUP3 MSTORE SWAP2 DUP3 SWAP1 KECCAK256 TIMESTAMP SWAP1 SSTORE SWAP1 MLOAD DUP6 DUP2 MSTORE DUP9 SWAP2 DUP11 SWAP2 PUSH32 0xFC3B85FAF690576AAA0780FEEA072B9F19C4397EDBD53CF666C8FC72C106704B SWAP2 ADD PUSH1 0x40 MLOAD DUP1 SWAP2 SUB SWAP1 LOG3 POP PUSH1 0x1 SWAP8 SWAP7 POP POP POP POP POP POP POP JUMP JUMPDEST PUSH2 0x606 PUSH2 0x63B JUMP JUMPDEST PUSH1 0x1 PUSH1 0x1 PUSH1 0xA0 SHL SUB DUP2 AND PUSH2 0x62F JUMPI PUSH1 0x40 MLOAD PUSH4 0x1E4FBDF7 PUSH1 0xE0 SHL DUP2 MSTORE PUSH0 PUSH1 0x4 DUP3 ADD MSTORE PUSH1 0x24 ADD PUSH2 0x277 JUMP JUMPDEST PUSH2 0x638 DUP2 PUSH2 0x76F JUMP JUMPDEST POP JUMP JUMPDEST PUSH0 SLOAD PUSH1 0x1 PUSH1 0x1 PUSH1 0xA0 SHL SUB AND CALLER EQ PUSH2 0x2AB JUMPI PUSH1 0x40 MLOAD PUSH4 0x118CDAA7 PUSH1 0xE0 SHL DUP2 MSTORE CALLER PUSH1 0x4 DUP3 ADD MSTORE PUSH1 0x24 ADD PUSH2 0x277 JUMP JUMPDEST PUSH1 0x1 PUSH1 0x1 PUSH1 0xA0 SHL SUB DUP3 AND PUSH2 0x6BD JUMPI PUSH1 0x40 MLOAD PUSH3 0x461BCD PUSH1 0xE5 SHL DUP2 MSTORE PUSH1 0x20 PUSH1 0x4 DUP3 ADD MSTORE PUSH1 0x1C PUSH1 0x24 DUP3 ADD MSTORE PUSH32 0x4F7261636C6556657269666965723A207A65726F206164647265737300000000 PUSH1 0x44 DUP3 ADD MSTORE PUSH1 0x64 ADD PUSH2 0x277 JUMP JUMPDEST PUSH1 0x1 PUSH1 0x1 PUSH1 0xA0 SHL SUB DUP3 AND PUSH0 DUP2 DUP2 MSTORE PUSH1 0x1 PUSH1 0x20 SWAP1 DUP2 MSTORE PUSH1 0x40 SWAP2 DUP3 SWAP1 KECCAK256 DUP1 SLOAD PUSH1 0xFF NOT AND DUP6 ISZERO ISZERO SWAP1 DUP2 OR SWAP1 SWAP2 SSTORE SWAP2 MLOAD SWAP2 DUP3 MSTORE PUSH32 0xFCAA24B1276BFA7DBF77797C0A984B9DF924ACBEAABD48CD2F1B0ECA379B78FA SWAP2 ADD PUSH1 0x40 MLOAD DUP1 SWAP2 SUB SWAP1 LOG2 POP POP JUMP JUMPDEST PUSH2 0x723 PUSH2 0x854 JUMP JUMPDEST PUSH0 DUP1 SLOAD PUSH1 0xFF PUSH1 0xA0 SHL NOT AND SWAP1 SSTORE PUSH32 0x5DB9EE0A495BF2E6FF9C91A7834C1BA4FDD244A5E8AA4E537BD38AEAE4B073AA CALLER JUMPDEST PUSH1 0x40 MLOAD PUSH1 0x1 PUSH1 0x1 PUSH1 0xA0 SHL SUB SWAP1 SWAP2 AND DUP2 MSTORE PUSH1 0x20 ADD PUSH1 0x40 MLOAD DUP1 SWAP2 SUB SWAP1 LOG1 JUMP JUMPDEST PUSH0 DUP1 SLOAD PUSH1 0x1 PUSH1 0x1 PUSH1 0xA0 SHL SUB DUP4 DUP2 AND PUSH1 0x1 PUSH1 0x1 PUSH1 0xA0 SHL SUB NOT DUP4 AND DUP2 OR DUP5 SSTORE PUSH1 0x40 MLOAD SWAP2 SWAP1 SWAP3 AND SWAP3 DUP4 SWAP2 PUSH32 0x8BE0079C531659141344CD1FD0A4F28419497F9722A3DAAFE3B4186F6B6457E0 SWAP2 SWAP1 LOG3 POP POP JUMP JUMPDEST PUSH2 0x7C6 PUSH2 0x800 JUMP JUMPDEST PUSH0 DUP1 SLOAD PUSH1 0xFF PUSH1 0xA0 SHL NOT AND PUSH1 0x1 PUSH1 0xA0 SHL OR SWAP1 SSTORE PUSH32 0x62E78CEA01BEE320CD4E420270B5EA74000D11B0C9F74754EBDBFC544B05A258 PUSH2 0x752 CALLER SWAP1 JUMP JUMPDEST PUSH0 SLOAD PUSH1 0x1 PUSH1 0xA0 SHL SWAP1 DIV PUSH1 0xFF AND ISZERO PUSH2 0x2AB JUMPI PUSH1 0x40 MLOAD PUSH4 0xD93C0665 PUSH1 0xE0 SHL DUP2 MSTORE PUSH1 0x4 ADD PUSH1 0x40 MLOAD DUP1 SWAP2 SUB SWAP1 REVERT JUMPDEST PUSH0 DUP1 PUSH0 DUP1 PUSH2 0x838 DUP7 DUP7 PUSH2 0x87D JUMP JUMPDEST SWAP3 POP SWAP3 POP SWAP3 POP PUSH2 0x848 DUP3 DUP3 PUSH2 0x8C6 JUMP JUMPDEST POP SWAP1 SWAP2 POP POP JUMPDEST SWAP3 SWAP2 POP POP JUMP JUMPDEST PUSH0 SLOAD PUSH1 0x1 PUSH1 0xA0 SHL SWAP1 DIV PUSH1 0xFF AND PUSH2 0x2AB JUMPI PUSH1 0x40 MLOAD PUSH4 0x8DFC202B PUSH1 0xE0 SHL DUP2 MSTORE PUSH1 0x4 ADD PUSH1 0x40 MLOAD DUP1 SWAP2 SUB SWAP1 REVERT JUMPDEST PUSH0 DUP1 PUSH0 DUP4 MLOAD PUSH1 0x41 SUB PUSH2 0x8B4 JUMPI PUSH1 0x20 DUP5 ADD MLOAD PUSH1 0x40 DUP6 ADD MLOAD PUSH1 0x60 DUP7 ADD MLOAD PUSH0 BYTE PUSH2 0x8A6 DUP9 DUP3 DUP6 DUP6 PUSH2 0x97E JUMP JUMPDEST SWAP6 POP SWAP6 POP SWAP6 POP POP POP POP PUSH2 0x8BF JUMP JUMPDEST POP POP DUP2 MLOAD PUSH0 SWAP2 POP PUSH1 0x2 SWAP1 JUMPDEST SWAP3 POP SWAP3 POP SWAP3 JUMP JUMPDEST PUSH0 DUP3 PUSH1 0x3 DUP2 GT ISZERO PUSH2 0x8D9 JUMPI PUSH2 0x8D9 PUSH2 0xB70 JUMP JUMPDEST SUB PUSH2 0x8E2 JUMPI POP POP JUMP JUMPDEST PUSH1 0x1 DUP3 PUSH1 0x3 DUP2 GT ISZERO PUSH2 0x8F6 JUMPI PUSH2 0x8F6 PUSH2 0xB70 JUMP JUMPDEST SUB PUSH2 0x914 JUMPI PUSH1 0x40 MLOAD PUSH4 0xF645EEDF PUSH1 0xE0 SHL DUP2 MSTORE PUSH1 0x4 ADD PUSH1 0x40 MLOAD DUP1 SWAP2 SUB SWAP1 REVERT JUMPDEST PUSH1 0x2 DUP3 PUSH1 0x3 DUP2 GT ISZERO PUSH2 0x928 JUMPI PUSH2 0x928 PUSH2 0xB70 JUMP JUMPDEST SUB PUSH2 0x949 JUMPI PUSH1 0x40 MLOAD PUSH4 0xFCE698F7 PUSH1 0xE0 SHL DUP2 MSTORE PUSH1 0x4 DUP2 ADD DUP3 SWAP1 MSTORE PUSH1 0x24 ADD PUSH2 0x277 JUMP JUMPDEST PUSH1 0x3 DUP3 PUSH1 0x3 DUP2 GT ISZERO PUSH2 0x95D JUMPI PUSH2 0x95D PUSH2 0xB70 JUMP JUMPDEST SUB PUSH2 0x297 JUMPI PUSH1 0x40 MLOAD PUSH4 0x35E2F383 PUSH1 0xE2 SHL DUP2 MSTORE PUSH1 0x4 DUP2 ADD DUP3 SWAP1 MSTORE PUSH1 0x24 ADD PUSH2 0x277 JUMP JUMPDEST PUSH0 DUP1 DUP1 PUSH32 0x7FFFFFFFFFFFFFFFFFFFFFFFFFFFFFFF5D576E7357A4501DDFE92F46681B20A0 DUP5 GT ISZERO PUSH2 0x9B7 JUMPI POP PUSH0 SWAP2 POP PUSH1 0x3 SWAP1 POP DUP3 PUSH2 0xA3C JUMP JUMPDEST PUSH1 0x40 DUP1 MLOAD PUSH0 DUP1 DUP3 MSTORE PUSH1 0x20 DUP3 ADD DUP1 DUP5 MSTORE DUP11 SWAP1 MSTORE PUSH1 0xFF DUP10 AND SWAP3 DUP3 ADD SWAP3 SWAP1 SWAP3 MSTORE PUSH1 0x60 DUP2 ADD DUP8 SWAP1 MSTORE PUSH1 0x80 DUP2 ADD DUP7 SWAP1 MSTORE PUSH1 0x1 SWAP1 PUSH1 0xA0 ADD PUSH1 0x20 PUSH1 0x40 MLOAD PUSH1 0x20 DUP2 SUB SWAP1 DUP1 DUP5 SUB SWAP1 DUP6 GAS STATICCALL ISZERO DUP1 ISZERO PUSH2 0xA08 JUMPI RETURNDATASIZE PUSH0 DUP1 RETURNDATACOPY RETURNDATASIZE PUSH0 REVERT JUMPDEST POP POP PUSH1 0x40 MLOAD PUSH1 0x1F NOT ADD MLOAD SWAP2 POP POP PUSH1 0x1 PUSH1 0x1 PUSH1 0xA0 SHL SUB DUP2 AND PUSH2 0xA33 JUMPI POP PUSH0 SWAP3 POP PUSH1 0x1 SWAP2 POP DUP3 SWAP1 POP PUSH2 0xA3C JUMP JUMPDEST SWAP3 POP PUSH0 SWAP2 POP DUP2 SWAP1 POP JUMPDEST SWAP5 POP SWAP5 POP SWAP5 SWAP2 POP POP JUMP JUMPDEST PUSH0 PUSH1 0x20 DUP3 DUP5 SUB SLT ISZERO PUSH2 0xA56 JUMPI PUSH0 DUP1 REVERT JUMPDEST POP CALLDATALOAD SWAP2 SWAP1 POP JUMP JUMPDEST DUP1 CALLDATALOAD PUSH1 0x1 PUSH1 0x1 PUSH1 0xA0 SHL SUB DUP2 AND DUP2 EQ PUSH2 0xA73 JUMPI PUSH0 DUP1 REVERT JUMPDEST SWAP2 SWAP1 POP JUMP JUMPDEST PUSH0 DUP1 PUSH1 0x40 DUP4 DUP6 SUB SLT ISZERO PUSH2 0xA89 JUMPI PUSH0 DUP1 REVERT JUMPDEST PUSH2 0xA92 DUP4 PUSH2 0xA5D JUMP JUMPDEST SWAP2 POP PUSH1 0x20 DUP4 ADD CALLDATALOAD DUP1 ISZERO ISZERO DUP2 EQ PUSH2 0xAA6 JUMPI PUSH0 DUP1 REVERT JUMPDEST DUP1 SWAP2 POP POP SWAP3 POP SWAP3 SWAP1 POP JUMP JUMPDEST PUSH0 PUSH1 0x20 DUP3 DUP5 SUB SLT ISZERO PUSH2 0xAC1 JUMPI PUSH0 DUP1 REVERT JUMPDEST PUSH2 0xACA DUP3 PUSH2 0xA5D JUMP JUMPDEST SWAP4 SWAP3 POP POP POP JUMP JUMPDEST PUSH0 DUP1 PUSH0 DUP1 PUSH0 PUSH1 0x80 DUP7 DUP9 SUB SLT ISZERO PUSH2 0xAE5 JUMPI PUSH0 DUP1 REVERT JUMPDEST DUP6 CALLDATALOAD SWAP5 POP PUSH1 0x20 DUP7 ADD CALLDATALOAD SWAP4 POP PUSH1 0x40 DUP7 ADD CALLDATALOAD PUSH8 0xFFFFFFFFFFFFFFFF DUP1 DUP3 GT ISZERO PUSH2 0xB0A JUMPI PUSH0 DUP1 REVERT JUMPDEST DUP2 DUP9 ADD SWAP2 POP DUP9 PUSH1 0x1F DUP4 ADD SLT PUSH2 0xB1D JUMPI PUSH0 DUP1 REVERT JUMPDEST DUP2 CALLDATALOAD DUP2 DUP2 GT ISZERO PUSH2 0xB2B JUMPI PUSH0 DUP1 REVERT JUMPDEST DUP10 PUSH1 0x20 DUP3 DUP6 ADD ADD GT ISZERO PUSH2 0xB3C JUMPI PUSH0 DUP1 REVERT JUMPDEST SWAP7 SWAP10 SWAP6 SWAP9 POP POP PUSH1 0x20 ADD SWAP6 PUSH1 0x60 ADD CALLDATALOAD SWAP4 SWAP3 POP POP POP JUMP JUMPDEST DUP1 DUP3 ADD DUP1 DUP3 GT ISZERO PUSH2 0x84E JUMPI PUSH4 0x4E487B71 PUSH1 0xE0 SHL PUSH0 MSTORE PUSH1 0x11 PUSH1 0x4 MSTORE PUSH1 0x24 PUSH0 REVERT JUMPDEST PUSH4 0x4E487B71 PUSH1 0xE0 SHL PUSH0 MSTORE PUSH1 0x21 PUSH1 0x4 MSTORE PUSH1 0x24 PUSH0 REVERT INVALID LOG2 PUSH5 0x6970667358 0x22 SLT KECCAK256 EQ 0xEC 0xF SAR DUP2 0xBE SLT ORIGIN 0xAC 0x22 BLOBBASEFEE LOG3 DUP11 PUSH30 0x826D30D47EB9732BED3546BEF9442E24EBF464736F6C6343000818003300 "},"methodIdentifiers":{"approvedSigners(address)":"8a875512","isActive()":"22f3e2d4","lastVerifiedAt(bytes32)":"d71aa9db","lastVerifiedOwner(bytes32)":"410fbdda","maxProofAge()":"6f5b6b20","owner()":"8da5cb5b","pause()":"8456cb59","paused()":"5c975abb","renounceOwnership()":"715018a6","setMaxProofAge(uint256)":"1bddcb19","setSigner(address,bool)":"31cb6105","transferOwnership(address)":"f2fde38b","unpause()":"3f4ba83a","verifyOwnership(bytes32,bytes32,bytes,uint256)":"af716f09"}}}}}